{
  "contractName": "AlkemiWETH",
  "abi": [
    {
      "anonymous": false,
      "inputs": [
        {
          "indexed": true,
          "internalType": "address",
          "name": "src",
          "type": "address"
        },
        {
          "indexed": true,
          "internalType": "address",
          "name": "guy",
          "type": "address"
        },
        {
          "indexed": false,
          "internalType": "uint256",
          "name": "wad",
          "type": "uint256"
        }
      ],
      "name": "Approval",
      "type": "event"
    },
    {
      "anonymous": false,
      "inputs": [
        {
          "indexed": true,
          "internalType": "address",
          "name": "dst",
          "type": "address"
        },
        {
          "indexed": false,
          "internalType": "uint256",
          "name": "wad",
          "type": "uint256"
        }
      ],
      "name": "Deposit",
      "type": "event"
    },
    {
      "anonymous": false,
      "inputs": [
        {
          "indexed": true,
          "internalType": "address",
          "name": "src",
          "type": "address"
        },
        {
          "indexed": true,
          "internalType": "address",
          "name": "dst",
          "type": "address"
        },
        {
          "indexed": false,
          "internalType": "uint256",
          "name": "wad",
          "type": "uint256"
        }
      ],
      "name": "Transfer",
      "type": "event"
    },
    {
      "anonymous": false,
      "inputs": [
        {
          "indexed": true,
          "internalType": "address",
          "name": "src",
          "type": "address"
        },
        {
          "indexed": false,
          "internalType": "uint256",
          "name": "wad",
          "type": "uint256"
        }
      ],
      "name": "Withdrawal",
      "type": "event"
    },
    {
      "stateMutability": "nonpayable",
      "type": "fallback"
    },
    {
      "inputs": [
        {
          "internalType": "address",
          "name": "",
          "type": "address"
        },
        {
          "internalType": "address",
          "name": "",
          "type": "address"
        }
      ],
      "name": "allowance",
      "outputs": [
        {
          "internalType": "uint256",
          "name": "",
          "type": "uint256"
        }
      ],
      "stateMutability": "view",
      "type": "function"
    },
    {
      "inputs": [
        {
          "internalType": "address",
          "name": "",
          "type": "address"
        }
      ],
      "name": "balanceOf",
      "outputs": [
        {
          "internalType": "uint256",
          "name": "",
          "type": "uint256"
        }
      ],
      "stateMutability": "view",
      "type": "function"
    },
    {
      "inputs": [],
      "name": "decimals",
      "outputs": [
        {
          "internalType": "uint8",
          "name": "",
          "type": "uint8"
        }
      ],
      "stateMutability": "view",
      "type": "function"
    },
    {
      "inputs": [],
      "name": "name",
      "outputs": [
        {
          "internalType": "string",
          "name": "",
          "type": "string"
        }
      ],
      "stateMutability": "view",
      "type": "function"
    },
    {
      "inputs": [],
      "name": "symbol",
      "outputs": [
        {
          "internalType": "string",
          "name": "",
          "type": "string"
        }
      ],
      "stateMutability": "view",
      "type": "function"
    },
    {
      "inputs": [],
      "name": "deposit",
      "outputs": [],
      "stateMutability": "payable",
      "type": "function"
    },
    {
      "inputs": [
        {
          "internalType": "address",
          "name": "user",
          "type": "address"
        },
        {
          "internalType": "uint256",
          "name": "wad",
          "type": "uint256"
        }
      ],
      "name": "withdraw",
      "outputs": [],
      "stateMutability": "nonpayable",
      "type": "function"
    },
    {
      "inputs": [],
      "name": "totalSupply",
      "outputs": [
        {
          "internalType": "uint256",
          "name": "",
          "type": "uint256"
        }
      ],
      "stateMutability": "view",
      "type": "function"
    },
    {
      "inputs": [
        {
          "internalType": "address",
          "name": "guy",
          "type": "address"
        },
        {
          "internalType": "uint256",
          "name": "wad",
          "type": "uint256"
        }
      ],
      "name": "approve",
      "outputs": [
        {
          "internalType": "bool",
          "name": "",
          "type": "bool"
        }
      ],
      "stateMutability": "nonpayable",
      "type": "function"
    },
    {
      "inputs": [
        {
          "internalType": "address",
          "name": "dst",
          "type": "address"
        },
        {
          "internalType": "uint256",
          "name": "wad",
          "type": "uint256"
        }
      ],
      "name": "transfer",
      "outputs": [
        {
          "internalType": "bool",
          "name": "",
          "type": "bool"
        }
      ],
      "stateMutability": "nonpayable",
      "type": "function"
    },
    {
      "inputs": [
        {
          "internalType": "address",
          "name": "src",
          "type": "address"
        },
        {
          "internalType": "address",
          "name": "dst",
          "type": "address"
        },
        {
          "internalType": "uint256",
          "name": "wad",
          "type": "uint256"
        }
      ],
      "name": "transferFrom",
      "outputs": [
        {
          "internalType": "bool",
          "name": "",
          "type": "bool"
        }
      ],
      "stateMutability": "nonpayable",
      "type": "function"
    }
  ],
  "bytecode": "0x60c0604052600d60808190526c2bb930b83832b21022ba3432b960991b60a090815261002e916000919061007a565b50604080518082019091526004808252630ae8aa8960e31b602090920191825261005a9160019161007a565b506002805460ff1916601217905534801561007457600080fd5b5061014e565b82805461008690610113565b90600052602060002090601f0160209004810192826100a857600085556100ee565b82601f106100c157805160ff19168380011785556100ee565b828001600101855582156100ee579182015b828111156100ee5782518255916020019190600101906100d3565b506100fa9291506100fe565b5090565b5b808211156100fa57600081556001016100ff565b600181811c9082168061012757607f821691505b6020821081141561014857634e487b7160e01b600052602260045260246000fd5b50919050565b61085c8061015d6000396000f3fe6080604052600436106100bc5760003560e01c806370a0823111610074578063d0e30db01161004e578063d0e30db0146101f9578063dd62ed3e14610201578063f3fef3a314610239576100bc565b806370a082311461019757806395d89b41146101c4578063a9059cbb146101d9576100bc565b806318160ddd116100a557806318160ddd1461012e57806323b872dd1461014b578063313ce5671461016b576100bc565b806306fdde03146100d3578063095ea7b3146100fe575b3480156100c857600080fd5b506100d1610259565b005b3480156100df57600080fd5b506100e86102ec565b6040516100f59190610681565b60405180910390f35b34801561010a57600080fd5b5061011e6101193660046106f2565b61037a565b60405190151581526020016100f5565b34801561013a57600080fd5b50475b6040519081526020016100f5565b34801561015757600080fd5b5061011e61016636600461071c565b6103e6565b34801561017757600080fd5b506002546101859060ff1681565b60405160ff90911681526020016100f5565b3480156101a357600080fd5b5061013d6101b2366004610758565b60036020526000908152604090205481565b3480156101d057600080fd5b506100e8610578565b3480156101e557600080fd5b5061011e6101f43660046106f2565b610585565b6100d1610259565b34801561020d57600080fd5b5061013d61021c366004610773565b600460209081526000928352604080842090915290825290205481565b34801561024557600080fd5b506100d16102543660046106f2565b610599565b33600090815260036020526040812080543492906102789084906107bc565b909155505060405134815233907fe1fffcc4923d04b559f4d29a8bfc6cda04eb5b0d3c460751c2402c5c5cc9109c9060200160405180910390a260405134815233906000907fddf252ad1be2c89b69c2b068fc378daa952ba7f163c4a11628f55a4df523b3ef9060200160405180910390a3565b600080546102f9906107d4565b80601f0160208091040260200160405190810160405280929190818152602001828054610325906107d4565b80156103725780601f1061034757610100808354040283529160200191610372565b820191906000526020600020905b81548152906001019060200180831161035557829003601f168201915b505050505081565b3360008181526004602090815260408083206001600160a01b038716808552925280832085905551919290917f8c5be1e5ebec7d5bd14f71427d1e84f3dd0314c0f7b2291e5b200ac8c7c3b925906103d59086815260200190565b60405180910390a350600192915050565b6001600160a01b03831660009081526003602052604081205482111561040b57600080fd5b6001600160a01b038416331480159061045757506001600160a01b03841660009081526004602090815260408083203384529091529020546fffffffffffffffffffffffffffffffff14155b156104c5576001600160a01b038416600090815260046020908152604080832033845290915290205482111561048c57600080fd5b6001600160a01b0384166000908152600460209081526040808320338452909152812080548492906104bf90849061080f565b90915550505b6001600160a01b038416600090815260036020526040812080548492906104ed90849061080f565b90915550506001600160a01b0383166000908152600360205260408120805484929061051a9084906107bc565b92505081905550826001600160a01b0316846001600160a01b03167fddf252ad1be2c89b69c2b068fc378daa952ba7f163c4a11628f55a4df523b3ef8460405161056691815260200190565b60405180910390a35060019392505050565b600180546102f9906107d4565b60006105923384846103e6565b9392505050565b336000908152600360205260409020548111156105b557600080fd5b33600090815260036020526040812080548392906105d490849061080f565b90915550506040516001600160a01b0383169082156108fc029083906000818181858888f1935050505015801561060f573d6000803e3d6000fd5b5060405181815233907f7fcf532c15f0a6db0bd6d0e038bea71d30d808c7d98cb3bf7268a95bf5081b659060200160405180910390a260405181815260009033907fddf252ad1be2c89b69c2b068fc378daa952ba7f163c4a11628f55a4df523b3ef9060200160405180910390a35050565b600060208083528351808285015260005b818110156106ae57858101830151858201604001528201610692565b818111156106c0576000604083870101525b50601f01601f1916929092016040019392505050565b80356001600160a01b03811681146106ed57600080fd5b919050565b6000806040838503121561070557600080fd5b61070e836106d6565b946020939093013593505050565b60008060006060848603121561073157600080fd5b61073a846106d6565b9250610748602085016106d6565b9150604084013590509250925092565b60006020828403121561076a57600080fd5b610592826106d6565b6000806040838503121561078657600080fd5b61078f836106d6565b915061079d602084016106d6565b90509250929050565b634e487b7160e01b600052601160045260246000fd5b600082198211156107cf576107cf6107a6565b500190565b600181811c908216806107e857607f821691505b6020821081141561080957634e487b7160e01b600052602260045260246000fd5b50919050565b600082821015610821576108216107a6565b50039056fea264697066735822122073fcf556607f6851c9459baabc2e5a9fd40fde905610fc7fa0bc1909a49158c264736f6c634300080b0033",
  "immutableReferences": {},
  "source": "// Cloned from https://github.com/gnosis/canonical-weth/blob/master/contracts/WETH9.sol -> Commit id: 0dd1ea3\n// SPDX-License-Identifier: MIT\npragma solidity 0.8.11;\n\ncontract AlkemiWETH {\n    string public name = \"Wrapped Ether\";\n    string public symbol = \"WETH\";\n    uint8 public decimals = 18;\n\n    event Approval(address indexed src, address indexed guy, uint256 wad);\n    event Transfer(address indexed src, address indexed dst, uint256 wad);\n    event Deposit(address indexed dst, uint256 wad);\n    event Withdrawal(address indexed src, uint256 wad);\n\n    mapping(address => uint256) public balanceOf;\n    mapping(address => mapping(address => uint256)) public allowance;\n\n    fallback() external {\n        deposit();\n    }\n    \n\n    function deposit() public payable {\n        balanceOf[msg.sender] += msg.value;\n        emit Deposit(msg.sender, msg.value);\n        emit Transfer(address(0), msg.sender, msg.value);\n    }\n\n    function withdraw(address user, uint256 wad) public {\n        require(balanceOf[msg.sender] >= wad);\n        balanceOf[msg.sender] -= wad;\n        payable(user).transfer(wad);\n        emit Withdrawal(msg.sender, wad);\n        emit Transfer(msg.sender, address(0), wad);\n    }\n\n    function totalSupply() public view returns (uint256) {\n        return address(this).balance;\n    }\n\n    function approve(address guy, uint256 wad) public returns (bool) {\n        allowance[msg.sender][guy] = wad;\n        emit Approval(msg.sender, guy, wad);\n        return true;\n    }\n\n    function transfer(address dst, uint256 wad) public returns (bool) {\n        return transferFrom(msg.sender, dst, wad);\n    }\n\n    function transferFrom(\n        address src,\n        address dst,\n        uint256 wad\n    ) public returns (bool) {\n        require(balanceOf[src] >= wad);\n\n        if (src != msg.sender && allowance[src][msg.sender] != type(uint128).max) {\n            require(allowance[src][msg.sender] >= wad);\n            allowance[src][msg.sender] -= wad;\n        }\n\n        balanceOf[src] -= wad;\n        balanceOf[dst] += wad;\n\n        emit Transfer(src, dst, wad);\n\n        return true;\n    }\n}",
  "sourcePath": "/Users/preethisjv/Documents/Alkemi/githubUpload/project-alkemi-alkemi-earn-protocol-v2-d96569adc8c7 2/contracts/AlkemiWETH.sol",
  "compiler": {
    "name": "solc",
    "version": "0.8.11+commit.d7f03943.Emscripten.clang"
  },
  "schemaVersion": "3.4.5",
  "updatedAt": "2022-06-07T16:43:46.926Z",
  "devdoc": {
    "kind": "dev",
    "methods": {},
    "version": 1
  },
  "userdoc": {
    "kind": "user",
    "methods": {},
    "version": 1
  }
}