{
  "contractName": "AlkemiVerifiedStorage",
  "abi": [
    {
      "inputs": [],
      "name": "admin",
      "outputs": [
        {
          "internalType": "address",
          "name": "",
          "type": "address"
        }
      ],
      "stateMutability": "view",
      "type": "function"
    },
    {
      "inputs": [],
      "name": "closeFactorMantissa",
      "outputs": [
        {
          "internalType": "uint256",
          "name": "",
          "type": "uint256"
        }
      ],
      "stateMutability": "view",
      "type": "function"
    },
    {
      "inputs": [],
      "name": "collateralRatio",
      "outputs": [
        {
          "internalType": "uint256",
          "name": "mantissa",
          "type": "uint256"
        }
      ],
      "stateMutability": "view",
      "type": "function"
    },
    {
      "inputs": [
        {
          "internalType": "address",
          "name": "",
          "type": "address"
        }
      ],
      "name": "customersWithKYC",
      "outputs": [
        {
          "internalType": "bool",
          "name": "",
          "type": "bool"
        }
      ],
      "stateMutability": "view",
      "type": "function"
    },
    {
      "inputs": [
        {
          "internalType": "address",
          "name": "",
          "type": "address"
        }
      ],
      "name": "markets",
      "outputs": [
        {
          "internalType": "bool",
          "name": "isSupported",
          "type": "bool"
        },
        {
          "internalType": "uint256",
          "name": "blockNumber",
          "type": "uint256"
        },
        {
          "internalType": "contract InterestRateModel",
          "name": "interestRateModel",
          "type": "address"
        },
        {
          "internalType": "uint256",
          "name": "totalSupply",
          "type": "uint256"
        },
        {
          "internalType": "uint256",
          "name": "supplyRateMantissa",
          "type": "uint256"
        },
        {
          "internalType": "uint256",
          "name": "supplyIndex",
          "type": "uint256"
        },
        {
          "internalType": "uint256",
          "name": "totalBorrows",
          "type": "uint256"
        },
        {
          "internalType": "uint256",
          "name": "borrowRateMantissa",
          "type": "uint256"
        },
        {
          "internalType": "uint256",
          "name": "borrowIndex",
          "type": "uint256"
        }
      ],
      "stateMutability": "view",
      "type": "function"
    },
    {
      "inputs": [],
      "name": "originationFee",
      "outputs": [
        {
          "internalType": "uint256",
          "name": "mantissa",
          "type": "uint256"
        }
      ],
      "stateMutability": "view",
      "type": "function"
    },
    {
      "inputs": [],
      "name": "paused",
      "outputs": [
        {
          "internalType": "bool",
          "name": "",
          "type": "bool"
        }
      ],
      "stateMutability": "view",
      "type": "function"
    },
    {
      "inputs": [],
      "name": "pendingAdmin",
      "outputs": [
        {
          "internalType": "address",
          "name": "",
          "type": "address"
        }
      ],
      "stateMutability": "view",
      "type": "function"
    },
    {
      "inputs": [],
      "name": "rewardControl",
      "outputs": [
        {
          "internalType": "contract RewardControlInterface",
          "name": "",
          "type": "address"
        }
      ],
      "stateMutability": "view",
      "type": "function"
    }
  ],
  "bytecode": "0x608060405234801561001057600080fd5b5061028a806100206000396000f3fe608060405234801561001057600080fd5b50600436106100a35760003560e01c8063b4eae1cb11610076578063e87554461161005b578063e8755446146101f5578063f5c61ce6146101fe578063f851a4401461021157600080fd5b8063b4eae1cb146101d3578063b8bb5c42146101eb57600080fd5b80631912e2dc146100a857806326782247146100e05780635c975abb1461010b5780638e8f294b14610118575b600080fd5b6100cb6100b6366004610224565b60106020526000908152604090205460ff1681565b60405190151581526020015b60405180910390f35b6006546100f3906001600160a01b031681565b6040516001600160a01b0390911681526020016100d7565b600e546100cb9060ff1681565b61017f610126366004610224565b600a6020526000908152604090208054600182015460028301546003840154600485015460058601546006870154600788015460089098015460ff9097169795966001600160a01b039095169593949293919290919089565b604080519915158a5260208a01989098526001600160a01b03909616968801969096526060870193909352608086019190915260a085015260c084015260e0830191909152610100820152610120016100d7565b600b546101dd9081565b6040519081526020016100d7565b600c546101dd9081565b6101dd60145481565b6013546100f3906001600160a01b031681565b6007546100f3906001600160a01b031681565b60006020828403121561023657600080fd5b81356001600160a01b038116811461024d57600080fd5b939250505056fea2646970667358221220da98cc716a69d1eb892f56a3a7b2d894fc125b937dbfcf250820148032c0f6aa64736f6c634300080b0033",
  "immutableReferences": {},
  "source": "// SPDX-License-Identifier: MIT\npragma solidity 0.8.11;\n\nimport \"./InterestRateModel.sol\";\nimport \"./AlkemiWETH.sol\";\nimport \"./Exponential.sol\";\nimport \"./RewardControlInterface.sol\";\n\ncontract AlkemiVerifiedStorage is Exponential{\n    uint256 internal initialInterestIndex;\n    uint256 internal defaultOriginationFee;\n    uint256 internal defaultCollateralRatio;\n    uint256 internal defaultLiquidationDiscount;\n    // minimumCollateralRatioMantissa and maximumLiquidationDiscountMantissa cannot be declared as constants due to upgradeability\n    // Values cannot be assigned directly as OpenZeppelin upgrades do not support the same\n    // Values can only be assigned using initializer() below\n    // However, there is no way to change the below values using any functions and hence they act as constants\n    uint256 internal minimumCollateralRatioMantissa;\n    uint256 internal maximumLiquidationDiscountMantissa;\n\n    /**\n     * @dev pending Administrator for this contract.\n     */\n    address public pendingAdmin;\n\n    /**\n     * @dev Administrator for this contract. Initially set in constructor, but can\n     *      be changed by the admin itself.\n     */\n    address public admin;\n\n    /**\n     * @dev Account allowed to fetch chainlink oracle prices for this contract. Can be changed by the admin.\n     */\n    //ChainLink public priceOracle;\n\n   \n    /**\n     * @dev Container for customer balance information written to storage.\n     *\n     *      struct Balance {\n     *        principal = customer total balance with accrued interest after applying the customer's most recent balance-changing action\n     *        interestIndex = Checkpoint for interest calculation after the customer's most recent balance-changing action\n     *      }\n     */\n    struct Balance {\n        uint256 principal;\n        uint256 interestIndex;\n    }\n\n    /**\n     * @dev 2-level map: customerAddress -> assetAddress -> balance for supplies\n     */\n    mapping(address => mapping(address => Balance)) internal supplyBalances;\n\n    /**\n     * @dev 2-level map: customerAddress -> assetAddress -> balance for borrows\n     */\n    mapping(address => mapping(address => Balance)) internal borrowBalances;\n\n    /**\n     * @dev Container for per-asset balance sheet and interest rate information written to storage, intended to be stored in a map where the asset address is the key\n     *\n     *      struct Market {\n     *         isSupported = Whether this market is supported or not (not to be confused with the list of collateral assets)\n     *         blockNumber = when the other values in this struct were calculated\n     *         interestRateModel = Interest Rate model, which calculates supply interest rate and borrow interest rate based on Utilization, used for the asset\n     *         totalSupply = total amount of this asset supplied (in asset wei)\n     *         supplyRateMantissa = the per-block interest rate for supplies of asset as of blockNumber, scaled by 10e18\n     *         supplyIndex = the interest index for supplies of asset as of blockNumber; initialized in _supportMarket\n     *         totalBorrows = total amount of this asset borrowed (in asset wei)\n     *         borrowRateMantissa = the per-block interest rate for borrows of asset as of blockNumber, scaled by 10e18\n     *         borrowIndex = the interest index for borrows of asset as of blockNumber; initialized in _supportMarket\n     *     }\n     */\n    struct Market {\n        bool isSupported;\n        uint256 blockNumber;\n        InterestRateModel interestRateModel;\n        uint256 totalSupply;\n        uint256 supplyRateMantissa;\n        uint256 supplyIndex;\n        uint256 totalBorrows;\n        uint256 borrowRateMantissa;\n        uint256 borrowIndex;\n        \n    }\n\n    /**\n     * @dev Initiates the contract for supply and withdraw Ether and conversion to WETH\n     */\n    //AlkemiWETH public WETHContract;\n\n    /**\n     * @dev map: assetAddress -> Market\n     */\n    mapping(address => Market) public markets;\n\n    /**\n     * @dev The collateral ratio that borrows must maintain (e.g. 2 implies 2:1). This\n     *      is initially set in the constructor, but can be changed by the admin.\n     */\n    Exp public collateralRatio;\n\n    /**\n     * @dev originationFee for new borrows.\n     *\n     */\n    Exp public originationFee;\n\n    /**\n     * @dev liquidationDiscount for collateral when liquidating borrows\n     *\n     */\n    Exp internal liquidationDiscount;\n\n    /**\n     * @dev flag for whether or not contract is paused\n     *\n     */\n    bool public paused;\n\n    /**\n     * @dev Mapping to identify the list of KYC Admins\n     */\n    mapping(address => bool) internal KYCAdmins;\n    /**\n     * @dev Mapping to identify the list of customers with verified KYC\n     */\n    mapping(address => bool) public customersWithKYC;\n\n    /**\n     * @dev Mapping to identify the list of customers with Liquidator roles\n     */\n    mapping(address => bool) internal liquidators;\n\n    /**\n     * The `SupplyLocalVars` struct is used internally in the `supply` function.\n     *\n     * To avoid solidity limits on the number of local variables we:\n     * 1. Use a struct to hold local computation localResults\n     * 2. Re-use a single variable for Error returns. (This is required with 1 because variable binding to tuple localResults\n     *    requires either both to be declared inline or both to be previously declared.\n     * 3. Re-use a boolean error-like return variable.\n     */\n    struct ProtocolLocalVars {\n        uint256 startingBalance;\n        uint256 newSupplyIndex;\n        uint256 userSupplyCurrent;\n        uint256 userSupplyUpdated;\n        uint256 newTotalSupply;\n        uint256 currentCash;\n        uint256 updatedCash;\n        uint256 newSupplyRateMantissa;\n        uint256 newBorrowIndex;\n        uint256 newBorrowRateMantissa;\n        uint256 withdrawAmount;\n        uint256 withdrawCapacity;\n        uint256 userBorrowCurrent;\n        uint256 repayAmount;\n        uint256 userBorrowUpdated;\n        uint256 newTotalBorrows;\n        uint256 borrowAmountWithFee;\n        Exp accountLiquidity;\n        Exp accountShortfall;\n        Exp ethValueOfWithdrawal;\n        Exp ethValueOfBorrowAmountWithFee;\n    }\n\n    // The `AccountValueLocalVars` struct is used internally in the `CalculateAccountValuesInternal` function.\n    struct AccountValueLocalVars {\n        address assetAddress;\n        uint256 collateralMarketsLength;\n        uint256 newSupplyIndex;\n        uint256 userSupplyCurrent;\n        uint256 newBorrowIndex;\n        uint256 userBorrowCurrent;\n        Exp borrowTotalValue;\n        Exp sumBorrows;\n        Exp supplyTotalValue;\n        Exp sumSupplies;\n    }\n\n    // The `LiquidateLocalVars` struct is used internally in the `liquidateBorrow` function.\n    struct LiquidateLocalVars {\n        // we need these addresses in the struct for use with `emitLiquidationEvent` to avoid `CompilerError: Stack too deep, try removing local variables.`\n        address targetAccount;\n        address assetBorrow;\n        address liquidator;\n        address assetCollateral;\n        // borrow index and supply index are global to the asset, not specific to the user\n        uint256 newBorrowIndex_UnderwaterAsset;\n        uint256 newSupplyIndex_UnderwaterAsset;\n        uint256 newBorrowIndex_CollateralAsset;\n        uint256 newSupplyIndex_CollateralAsset;\n        // the target borrow's full balance with accumulated interest\n        uint256 currentBorrowBalance_TargetUnderwaterAsset;\n        // currentBorrowBalance_TargetUnderwaterAsset minus whatever gets repaid as part of the liquidation\n        uint256 updatedBorrowBalance_TargetUnderwaterAsset;\n        uint256 newTotalBorrows_ProtocolUnderwaterAsset;\n        uint256 startingBorrowBalance_TargetUnderwaterAsset;\n        uint256 startingSupplyBalance_TargetCollateralAsset;\n        uint256 startingSupplyBalance_LiquidatorCollateralAsset;\n        uint256 currentSupplyBalance_TargetCollateralAsset;\n        uint256 updatedSupplyBalance_TargetCollateralAsset;\n        // If liquidator already has a balance of collateralAsset, we will accumulate\n        // interest on it before transferring seized collateral from the borrower.\n        uint256 currentSupplyBalance_LiquidatorCollateralAsset;\n        // This will be the liquidator's accumulated balance of collateral asset before the liquidation (if any)\n        // plus the amount seized from the borrower.\n        uint256 updatedSupplyBalance_LiquidatorCollateralAsset;\n        uint256 newTotalSupply_ProtocolCollateralAsset;\n        uint256 currentCash_ProtocolUnderwaterAsset;\n        uint256 updatedCash_ProtocolUnderwaterAsset;\n        // cash does not change for collateral asset\n\n        uint256 newSupplyRateMantissa_ProtocolUnderwaterAsset;\n        uint256 newBorrowRateMantissa_ProtocolUnderwaterAsset;\n        // Why no variables for the interest rates for the collateral asset?\n        // We don't need to calculate new rates for the collateral asset since neither cash nor borrows change\n\n        uint256 discountedRepayToEvenAmount;\n        //[supplyCurrent / (1 + liquidationDiscount)] * (Oracle price for the collateral / Oracle price for the borrow) (discountedBorrowDenominatedCollateral)\n        uint256 discountedBorrowDenominatedCollateral;\n        uint256 maxCloseableBorrowAmount_TargetUnderwaterAsset;\n        uint256 closeBorrowAmount_TargetUnderwaterAsset;\n        uint256 seizeSupplyAmount_TargetCollateralAsset;\n        uint256 reimburseAmount;\n        Exp collateralPrice;\n        Exp underwaterAssetPrice;\n    }\n\n    /**\n     * @dev 2-level map: customerAddress -> assetAddress -> originationFeeBalance for borrows\n     */\n    mapping(address => mapping(address => uint256))\n        internal originationFeeBalance;\n\n    /**\n     * @dev Reward Control Contract address\n     */\n    RewardControlInterface public rewardControl;\n\n    /**\n     * @notice Multiplier used to calculate the maximum repayAmount when liquidating a borrow\n     */\n    uint256 public closeFactorMantissa;\n\n    /// @dev _guardCounter and nonReentrant modifier extracted from Open Zeppelin's reEntrancyGuard\n    /// @dev counter to allow mutex lock with only one SSTORE operation\n    uint256 internal _guardCounter;\n}",
  "sourcePath": "/Users/preethisjv/Documents/Alkemi/githubUpload/project-alkemi-alkemi-earn-protocol-v2-d96569adc8c7 2/contracts/AlkemiVerifiedStorage.sol",
  "compiler": {
    "name": "solc",
    "version": "0.8.11+commit.d7f03943.Emscripten.clang"
  },
  "schemaVersion": "3.4.5",
  "updatedAt": "2022-06-07T16:43:46.920Z",
  "devdoc": {
    "kind": "dev",
    "methods": {},
    "stateVariables": {
      "KYCAdmins": {
        "details": "Mapping to identify the list of KYC Admins"
      },
      "_guardCounter": {
        "details": "_guardCounter and nonReentrant modifier extracted from Open Zeppelin's reEntrancyGuardcounter to allow mutex lock with only one SSTORE operation"
      },
      "admin": {
        "details": "Administrator for this contract. Initially set in constructor, but can      be changed by the admin itself."
      },
      "borrowBalances": {
        "details": "2-level map: customerAddress -> assetAddress -> balance for borrows"
      },
      "collateralRatio": {
        "details": "The collateral ratio that borrows must maintain (e.g. 2 implies 2:1). This      is initially set in the constructor, but can be changed by the admin."
      },
      "customersWithKYC": {
        "details": "Mapping to identify the list of customers with verified KYC"
      },
      "liquidationDiscount": {
        "details": "liquidationDiscount for collateral when liquidating borrows"
      },
      "liquidators": {
        "details": "Mapping to identify the list of customers with Liquidator roles"
      },
      "markets": {
        "details": "map: assetAddress -> Market"
      },
      "originationFee": {
        "details": "originationFee for new borrows."
      },
      "originationFeeBalance": {
        "details": "2-level map: customerAddress -> assetAddress -> originationFeeBalance for borrows"
      },
      "paused": {
        "details": "flag for whether or not contract is paused"
      },
      "pendingAdmin": {
        "details": "pending Administrator for this contract."
      },
      "rewardControl": {
        "details": "Reward Control Contract address"
      },
      "supplyBalances": {
        "details": "2-level map: customerAddress -> assetAddress -> balance for supplies"
      }
    },
    "version": 1
  },
  "userdoc": {
    "kind": "user",
    "methods": {
      "closeFactorMantissa()": {
        "notice": "Multiplier used to calculate the maximum repayAmount when liquidating a borrow"
      }
    },
    "version": 1
  }
}