{
  "contractName": "AlkemiRateModel",
  "abi": [
    {
      "inputs": [
        {
          "internalType": "string",
          "name": "_contractName",
          "type": "string"
        },
        {
          "internalType": "uint256",
          "name": "MinRate",
          "type": "uint256"
        },
        {
          "internalType": "uint256",
          "name": "HealthyMinUR",
          "type": "uint256"
        },
        {
          "internalType": "uint256",
          "name": "HealthyMinRate",
          "type": "uint256"
        },
        {
          "internalType": "uint256",
          "name": "HealthyMaxUR",
          "type": "uint256"
        },
        {
          "internalType": "uint256",
          "name": "HealthyMaxRate",
          "type": "uint256"
        },
        {
          "internalType": "uint256",
          "name": "MaxRate",
          "type": "uint256"
        }
      ],
      "stateMutability": "nonpayable",
      "type": "constructor"
    },
    {
      "anonymous": false,
      "inputs": [
        {
          "indexed": true,
          "internalType": "address",
          "name": "owner",
          "type": "address"
        },
        {
          "indexed": true,
          "internalType": "address",
          "name": "newOwner",
          "type": "address"
        }
      ],
      "name": "OwnerUpdate",
      "type": "event"
    },
    {
      "anonymous": false,
      "inputs": [
        {
          "indexed": false,
          "internalType": "uint256",
          "name": "oldBlocksPerYear",
          "type": "uint256"
        },
        {
          "indexed": false,
          "internalType": "uint256",
          "name": "newBlocksPerYear",
          "type": "uint256"
        }
      ],
      "name": "blocksPerYearUpdated",
      "type": "event"
    },
    {
      "inputs": [],
      "name": "blocksPerYear",
      "outputs": [
        {
          "internalType": "uint256",
          "name": "",
          "type": "uint256"
        }
      ],
      "stateMutability": "view",
      "type": "function"
    },
    {
      "inputs": [],
      "name": "newOwner",
      "outputs": [
        {
          "internalType": "address",
          "name": "",
          "type": "address"
        }
      ],
      "stateMutability": "view",
      "type": "function"
    },
    {
      "inputs": [],
      "name": "owner",
      "outputs": [
        {
          "internalType": "address",
          "name": "",
          "type": "address"
        }
      ],
      "stateMutability": "view",
      "type": "function"
    },
    {
      "inputs": [
        {
          "internalType": "string",
          "name": "_contractName",
          "type": "string"
        },
        {
          "internalType": "uint256",
          "name": "MinRate",
          "type": "uint256"
        },
        {
          "internalType": "uint256",
          "name": "HealthyMinUR",
          "type": "uint256"
        },
        {
          "internalType": "uint256",
          "name": "HealthyMinRate",
          "type": "uint256"
        },
        {
          "internalType": "uint256",
          "name": "HealthyMaxUR",
          "type": "uint256"
        },
        {
          "internalType": "uint256",
          "name": "HealthyMaxRate",
          "type": "uint256"
        },
        {
          "internalType": "uint256",
          "name": "MaxRate",
          "type": "uint256"
        }
      ],
      "name": "changeRates",
      "outputs": [],
      "stateMutability": "nonpayable",
      "type": "function"
    },
    {
      "inputs": [
        {
          "internalType": "uint256",
          "name": "_blocksPerYear",
          "type": "uint256"
        }
      ],
      "name": "changeBlocksPerYear",
      "outputs": [],
      "stateMutability": "nonpayable",
      "type": "function"
    },
    {
      "inputs": [
        {
          "internalType": "address",
          "name": "newOwner_",
          "type": "address"
        }
      ],
      "name": "transferOwnership",
      "outputs": [],
      "stateMutability": "nonpayable",
      "type": "function"
    },
    {
      "inputs": [],
      "name": "acceptOwnership",
      "outputs": [],
      "stateMutability": "nonpayable",
      "type": "function"
    },
    {
      "inputs": [
        {
          "internalType": "address",
          "name": "_asset",
          "type": "address"
        },
        {
          "internalType": "uint256",
          "name": "cash",
          "type": "uint256"
        },
        {
          "internalType": "uint256",
          "name": "borrows",
          "type": "uint256"
        }
      ],
      "name": "getSupplyRate",
      "outputs": [
        {
          "internalType": "bool",
          "name": "",
          "type": "bool"
        },
        {
          "internalType": "uint256",
          "name": "",
          "type": "uint256"
        }
      ],
      "stateMutability": "view",
      "type": "function"
    },
    {
      "inputs": [
        {
          "internalType": "address",
          "name": "asset",
          "type": "address"
        },
        {
          "internalType": "uint256",
          "name": "cash",
          "type": "uint256"
        },
        {
          "internalType": "uint256",
          "name": "borrows",
          "type": "uint256"
        }
      ],
      "name": "getBorrowRate",
      "outputs": [
        {
          "internalType": "bool",
          "name": "",
          "type": "bool"
        },
        {
          "internalType": "uint256",
          "name": "",
          "type": "uint256"
        }
      ],
      "stateMutability": "view",
      "type": "function"
    }
  ],
  "bytecode": "0x608060405262242e386000556004805460ff191660641790553480156200002557600080fd5b5060405162001cdc38038062001cdc83398101604081905262000048916200093d565b604080518082019091526002815261343760f01b60208201528187106200008d5760405162461bcd60e51b815260040162000084919062000a31565b60405180910390fd5b50604080518082019091526002815261068760f31b6020820152838610620000ca5760405162461bcd60e51b815260040162000084919062000a31565b50604080518082019091526002815261068760f31b6020820152828510620001075760405162461bcd60e51b815260040162000084919062000a31565b50600180546001600160a01b031916331790556200012b8787878787878762000138565b5050505050505062000af2565b6001805460408051808201909152918252601960f91b60208301526001600160a01b031633146200017e5760405162461bcd60e51b815260040162000084919062000a31565b50604080518082019091526002815261343760f01b6020820152818710620001bb5760405162461bcd60e51b815260040162000084919062000a31565b50604080518082019091526002815261068760f31b6020820152838610620001f85760405162461bcd60e51b815260040162000084919062000a31565b50604080518082019091526002815261068760f31b6020820152828510620002355760405162461bcd60e51b815260040162000084919062000a31565b5086516200024b9060039060208a01906200084e565b506040805160208101909152600081526040805160208101909152600081526040805160208101909152600081526004546200028c9060ff1660016200050b565b600454909150620002a2908a9060ff166200050b565b51600d55600454620002b990899060ff166200050b565b51600e55600454620002d090889060ff166200050b565b51600f55600454620002e790859060ff166200050b565b51601055600454620002fe90879060ff166200050b565b516011556004546200031590869060ff166200050b565b51601255600d546005819055600e54600655601154600a556040805160208082018352600f5482528251908101909252918152620003549190620005da565b604080516020810190915260065481529093506200037490849062000652565b51600755604080516020808201835260125482528251908101909252600f548252620003a091620005da565b604080516020808201835260115482528251908101909252600e548252919450620003cc9190620005da565b9150620003da838362000652565b516008819055604080516020808201835292815281519283019091526006548252620004069162000678565b6040805160208101909152600f548152909350620004259084620005da565b516009556040805180820182526002815261343960f01b60209182015281518082018352601054815282519182019092526012548152620004679190620005da565b6040805160208101909152601154815290935062000487908290620005da565b915062000495838362000652565b51600b81905560408051602080820183529281528151928301909152600a548252620004c19162000678565b60408051602081019091526012548152909250620004e1908390620005da565b51600c55604080518082019091526002815261035360f41b60208201525050505050505050505050565b6040805160208101909152600081526000806200053185670de0b6b3a764000062000789565b9150915081604051806040016040528060018152602001603360f81b81525090620005715760405162461bcd60e51b815260040162000084919062000a31565b50600080620005818387620007d8565b9150915081604051806040016040528060018152602001603560f81b81525090620005c15760405162461bcd60e51b815260040162000084919062000a31565b5060408051602081019091529081529695505050505050565b60408051602081019091526000808252835183518291620005fb916200080d565b9150915081604051806040016040528060018152602001600d60fa1b815250906200063b5760405162461bcd60e51b815260040162000084919062000a31565b506040805160208101909152908152949350505050565b604080516020810190915260008152825182516200067191906200050b565b9392505050565b60408051602081019091526000808252835183518291620006999162000789565b9150915081604051806040016040528060018152602001603360f81b81525090620006d95760405162461bcd60e51b815260040162000084919062000a31565b50600080620006fd620006f66002670de0b6b3a764000062000a7c565b8462000831565b9150915081604051806040016040528060018152602001603360f81b815250906200073d5760405162461bcd60e51b815260040162000084919062000a31565b506000806200075583670de0b6b3a7640000620007d8565b90925090506001821515146200076f576200076f62000a9f565b604080516020810190915290815298975050505050505050565b600080836200079f5750600190506000620007d1565b83830283858281620007b557620007b562000a66565b0414620007ca576000809250925050620007d1565b6001925090505b9250929050565b60008082620007ed57506000905080620007d1565b600183858162000801576200080162000a66565b04915091509250929050565b600080838311156200082557506000905080620007d1565b50600193919092039150565b60008083830184811015620007ca576000809250925050620007d1565b8280546200085c9062000ab5565b90600052602060002090601f016020900481019282620008805760008555620008cb565b82601f106200089b57805160ff1916838001178555620008cb565b82800160010185558215620008cb579182015b82811115620008cb578251825591602001919060010190620008ae565b50620008d9929150620008dd565b5090565b5b80821115620008d95760008155600101620008de565b634e487b7160e01b600052604160045260246000fd5b60005b83811015620009275781810151838201526020016200090d565b8381111562000937576000848401525b50505050565b600080600080600080600060e0888a0312156200095957600080fd5b87516001600160401b03808211156200097157600080fd5b818a0191508a601f8301126200098657600080fd5b8151818111156200099b576200099b620008f4565b604051601f8201601f19908116603f01168101908382118183101715620009c657620009c6620008f4565b816040528281528d6020848701011115620009e057600080fd5b620009f38360208301602088016200090a565b809b5050505050506020880151955060408801519450606088015193506080880151925060a0880151915060c0880151905092959891949750929550565b602081526000825180602084015262000a528160408501602087016200090a565b601f01601f19169190910160400192915050565b634e487b7160e01b600052601260045260246000fd5b60008262000a9a57634e487b7160e01b600052601260045260246000fd5b500490565b634e487b7160e01b600052600160045260246000fd5b600181811c9082168062000aca57607f821691505b6020821081141562000aec57634e487b7160e01b600052602260045260246000fd5b50919050565b6111da8062000b026000396000f3fe608060405234801561001057600080fd5b50600436106100a35760003560e01c8063a385fb9611610076578063e9d1f07e1161005b578063e9d1f07e14610149578063ed2b5a3c1461015c578063f2fde38b1461016f57600080fd5b8063a385fb961461011f578063d4ee1d901461013657600080fd5b80631d5134f3146100a8578063517cf73e146100bd57806379ba5097146100ec5780638da5cb5b146100f4575b600080fd5b6100bb6100b6366004610f64565b610182565b005b6100d06100cb36600461105f565b61052a565b6040805192151583526020830191909152015b60405180910390f35b6100bb610637565b600154610107906001600160a01b031681565b6040516001600160a01b0390911681526020016100e3565b61012860005481565b6040519081526020016100e3565b600254610107906001600160a01b031681565b6100bb610157366004611092565b6106ef565b6100d061016a36600461105f565b610778565b6100bb61017d3660046110ab565b6107d5565b6001805460408051808201909152918252601960f91b60208301526001600160a01b031633146101ce5760405162461bcd60e51b81526004016101c591906110c6565b60405180910390fd5b50604080518082019091526002815261343760f01b60208201528187106102085760405162461bcd60e51b81526004016101c591906110c6565b50604080518082019091526002815261068760f31b60208201528386106102425760405162461bcd60e51b81526004016101c591906110c6565b50604080518082019091526002815261068760f31b602082015282851061027c5760405162461bcd60e51b81526004016101c591906110c6565b5086516102909060039060208a0190610eb5565b506040805160208101909152600081526040805160208101909152600081526040805160208101909152600081526004546102cf9060ff166001610890565b6004549091506102e3908a9060ff16610890565b51600d556004546102f890899060ff16610890565b51600e5560045461030d90889060ff16610890565b51600f5560045461032290859060ff16610890565b5160105560045461033790879060ff16610890565b5160115560045461034c90869060ff16610890565b51601255600d546005819055600e54600655601154600a556040805160208082018352600f54825282519081019092529181526103899190610955565b604080516020810190915260065481529093506103a79084906109c8565b51600755604080516020808201835260125482528251908101909252600f5482526103d191610955565b604080516020808201835260115482528251908101909252600e5482529194506103fb9190610955565b915061040783836109c8565b516008819055604080516020808201835292815281519283019091526006548252610431916109ec565b6040805160208101909152600f54815290935061044e9084610955565b516009556040805180820182526002815261343960f01b6020918201528151808201835260105481528251918201909252601254815261048e9190610955565b604080516020810190915260115481529093506104ac908290610955565b91506104b883836109c8565b51600b81905560408051602080820183529281528151928301909152600a5482526104e2916109ec565b60408051602081019091526012548152909250610500908390610955565b51600c55604080518082019091526002815261035360f41b60208201525050505050505050505050565b600080600080600061053c8787610aec565b92509250925082610556576000809450945050505061062f565b6040805160208101909152600081526040805160208101909152600081526004546105859060ff166001610890565b604080516020810190915260055481529092506105a3908390610955565b604080516020810190915260045485519293506105d39287929182916105cc9160ff1690611131565b90526109ec565b604080516020810190915260045483519294506105fc9285929182916105cc9160ff1690611131565b9150600061060c83600054610c8f565b60045481519192506001916106249160ff1690611131565b975097505050505050505b935093915050565b6002546040805180820190915260018152601960f91b6020820152906001600160a01b0316331461067b5760405162461bcd60e51b81526004016101c591906110c6565b506002546001546040516001600160a01b0392831692909116907f343765429aea5a34b3ff6a3785a98a5abb2597aca87bfbb58632c173d585373a90600090a3600280546001805473ffffffffffffffffffffffffffffffffffffffff199081166001600160a01b03841617909155169055565b6001805460408051808201909152918252601960f91b60208301526001600160a01b031633146107325760405162461bcd60e51b81526004016101c591906110c6565b50600080549082905560408051828152602081018490527f658220531b838216731a521487dba05b43a3214e67d1b2fd1b9dc7b41918f86d910160405180910390a15050565b6000806000806107888686610aec565b9250509150816107a05760008093509350505061062f565b60006107ae82600054610c8f565b60045481519192506001916107c69160ff1690611131565b94509450505050935093915050565b6001805460408051808201909152918252601960f91b60208301526001600160a01b031633146108185760405162461bcd60e51b81526004016101c591906110c6565b506001805460408051808201909152918252601960f91b60208301526001600160a01b03838116911614156108605760405162461bcd60e51b81526004016101c591906110c6565b506002805473ffffffffffffffffffffffffffffffffffffffff19166001600160a01b0392909216919091179055565b6040805160208101909152600081526000806108b485670de0b6b3a7640000610cec565b9150915081604051806040016040528060018152602001603360f81b815250906108f15760405162461bcd60e51b81526004016101c591906110c6565b506000806108ff8387610d34565b9150915081604051806040016040528060018152602001603560f81b8152509061093c5760405162461bcd60e51b81526004016101c591906110c6565b5060408051602081019091529081529695505050505050565b6040805160208101909152600080825283518351829161097491610d64565b9150915081604051806040016040528060018152602001600d60fa1b815250906109b15760405162461bcd60e51b81526004016101c591906110c6565b506040805160208101909152908152949350505050565b604080516020810190915260008152825182516109e59190610890565b9392505050565b60408051602081019091526000808252835183518291610a0b91610cec565b9150915081604051806040016040528060018152602001603360f81b81525090610a485760405162461bcd60e51b81526004016101c591906110c6565b50600080610a68610a626002670de0b6b3a7640000611131565b84610d86565b9150915081604051806040016040528060018152602001603360f81b81525090610aa55760405162461bcd60e51b81526004016101c591906110c6565b50600080610abb83670de0b6b3a7640000610d34565b9092509050600182151514610ad257610ad2611153565b604080516020810190915290815298975050505050505050565b6000610b046040518060200160405280600081525090565b604080516020810190915260008152600080610b208787610da1565b9150915081610b5857600060405180602001604052806000815250604051806020016040528060008152509450945094505050610c88565b6000610b706040518060200160405280600081525090565b60408051602081019091526000815260065484511015610bce5760408051602081019091526007548152610ba59085906109ec565b60408051602081019091526005548152909250610bc3908390610e39565b805193509050610c6d565b600a5484511115610c12576040805160208101909152600b548152610bf49085906109ec565b6040805160208101909152600c548152909250610bc3908390610955565b600654845110801590610c285750600a54845111155b15610c6d5760408051602081019091526008548152610c489085906109ec565b60408051602081019091526009548152909250610c66908390610e39565b8051935090505b50506040805160208101909152908152600195509093509150505b9250925092565b604080516020810190915260008152600080610caf856000015185610d34565b9150915081604051806040016040528060018152602001603560f81b815250906109b15760405162461bcd60e51b81526004016101c591906110c6565b60008083610d005750600190506000610d2d565b83830283858281610d1357610d1361111b565b0414610d26576000809250925050610d2d565b6001925090505b9250929050565b60008082610d4757506000905080610d2d565b6001838581610d5857610d5861111b565b04915091509250929050565b60008083831115610d7a57506000905080610d2d565b50600193919092039150565b60008083830184811015610d26576000809250925050610d2d565b6000610db96040518060200160405280600081525090565b82610dd7575050604080516020810190915260008152600190610d2d565b600080610de48686610d86565b9150915081610e0a57600060405180602001604052806000815250935093505050610d2d565b6000610e168683610890565b600454909150610e2a90829060ff16610e95565b60019890975095505050505050565b60408051602081019091526000808252835183518291610e5891610d86565b9150915081604051806040016040528060018152602001603360f81b815250906109b15760405162461bcd60e51b81526004016101c591906110c6565b604080516020810190915260008152600080610e58856000015185610cec565b828054610ec190611169565b90600052602060002090601f016020900481019282610ee35760008555610f29565b82601f10610efc57805160ff1916838001178555610f29565b82800160010185558215610f29579182015b82811115610f29578251825591602001919060010190610f0e565b50610f35929150610f39565b5090565b5b80821115610f355760008155600101610f3a565b634e487b7160e01b600052604160045260246000fd5b600080600080600080600060e0888a031215610f7f57600080fd5b873567ffffffffffffffff80821115610f9757600080fd5b818a0191508a601f830112610fab57600080fd5b813581811115610fbd57610fbd610f4e565b604051601f8201601f19908116603f01168101908382118183101715610fe557610fe5610f4e565b816040528281528d6020848701011115610ffe57600080fd5b82602086016020830137600060209382018401529d918c01359c505060408b01359a60608101359a506080810135995060a0810135985060c001359650945050505050565b80356001600160a01b038116811461105a57600080fd5b919050565b60008060006060848603121561107457600080fd5b61107d84611043565b95602085013595506040909401359392505050565b6000602082840312156110a457600080fd5b5035919050565b6000602082840312156110bd57600080fd5b6109e582611043565b600060208083528351808285015260005b818110156110f3578581018301518582016040015282016110d7565b81811115611105576000604083870101525b50601f01601f1916929092016040019392505050565b634e487b7160e01b600052601260045260246000fd5b60008261114e57634e487b7160e01b600052601260045260246000fd5b500490565b634e487b7160e01b600052600160045260246000fd5b600181811c9082168061117d57607f821691505b6020821081141561119e57634e487b7160e01b600052602260045260246000fd5b5091905056fea2646970667358221220519b8b88fc5906b140a89fa7d638f6ecbedf7dc58f8fdea6c2a32bff1847718964736f6c634300080b0033",
  "immutableReferences": {},
  "source": "// SPDX-License-Identifier: MIT\npragma solidity 0.8.11;\nimport \"./Exponential.sol\";\nimport {Error} from \"./ErrorReporter.sol\";\n\n/**\n * @title  Earn Interest Rate Model\n * @author ShiftForex\n * @notice See Model here\n */\n\ncontract AlkemiRateModel is Exponential {\n    // Assuming avg. block time of 13.3 seconds; can be updated using changeBlocksPerYear() by the admin\n    uint256 public blocksPerYear = 2371128;\n\n    address public owner;\n    address public newOwner;\n\n    string contractName;\n\n    uint8 private hundred = 100;\n\n    modifier onlyOwner() {\n        require(msg.sender == owner, Error.UNAUTHORIZED);\n        _;\n    }\n\n    event OwnerUpdate(address indexed owner, address indexed newOwner);\n\n    event blocksPerYearUpdated(\n        uint256 oldBlocksPerYear,\n        uint256 newBlocksPerYear\n    );\n\n    Exp internal SpreadLow;\n    Exp internal BreakPointLow;\n    Exp internal ReserveLow;\n    Exp internal ReserveMid;\n    Exp internal SpreadMid;\n    Exp internal BreakPointHigh;\n    Exp internal ReserveHigh;\n    Exp internal SpreadHigh;\n\n    Exp internal MinRateActual;\n    Exp internal HealthyMinURActual;\n    Exp internal HealthyMinRateActual;\n    Exp internal MaxRateActual;\n    Exp internal HealthyMaxURActual;\n    Exp internal HealthyMaxRateActual;\n\n    constructor(\n        string memory _contractName,\n        uint256 MinRate,\n        uint256 HealthyMinUR,\n        uint256 HealthyMinRate,\n        uint256 HealthyMaxUR,\n        uint256 HealthyMaxRate,\n        uint256 MaxRate\n    ) {\n        // Remember to enter percentage times 100. ex., if it is 2.50%, enter 250\n        // Checks for reasonable interest rate parameters\n        require(MinRate < MaxRate, Error.MIN_RATE_GREATER_THAN_MAX_RATE);\n        require(\n            HealthyMinUR < HealthyMaxUR,\n            Error.HEALTHLY_MINUR_GREATER_THAN_HEALTHLY_MAXUR\n        );\n        require(\n            HealthyMinRate < HealthyMaxRate,\n            Error.HEALTHLY_MINUR_GREATER_THAN_HEALTHLY_MAXUR\n        );\n        owner = msg.sender;\n        changeRates(\n            _contractName,\n            MinRate,\n            HealthyMinUR,\n            HealthyMinRate,\n            HealthyMaxUR,\n            HealthyMaxRate,\n            MaxRate\n        );\n    }\n\n    function changeRates(\n        string memory _contractName,\n        uint256 MinRate,\n        uint256 HealthyMinUR,\n        uint256 HealthyMinRate,\n        uint256 HealthyMaxUR,\n        uint256 HealthyMaxRate,\n        uint256 MaxRate\n    ) public onlyOwner {\n        // Remember to enter percentage times 100. ex., if it is 2.50%, enter 250 as solidity does not recognize floating point numbers\n        // Checks for reasonable interest rate parameters\n        require(MinRate < MaxRate, Error.MIN_RATE_GREATER_THAN_MAX_RATE);\n        require(\n            HealthyMinUR < HealthyMaxUR,\n            Error.HEALTHLY_MINUR_GREATER_THAN_HEALTHLY_MAXUR\n        );\n        require(\n            HealthyMinRate < HealthyMaxRate,\n            Error.HEALTHLY_MINUR_GREATER_THAN_HEALTHLY_MAXUR\n        );\n        contractName = _contractName;\n        Exp memory temp1;\n        Exp memory temp2;\n        Exp memory HundredMantissa;\n\n        HundredMantissa = getExp(hundred, 1);\n \n        // Rates are divided by 1e2 to scale down inputs to actual values\n        // Inputs are expressed in percentage times 1e2, so we need to scale it down again by 1e2\n        // Resulting values like MinRateActual etc., are represented in 1e20 scale\n        // The return values for getSupplyRate() and getBorrowRate() functions are divided by 1e2 at the end to bring it down to 1e18 scale\n        MinRateActual = getExp(MinRate, hundred);\n        HealthyMinURActual = getExp(HealthyMinUR, hundred);\n        HealthyMinRateActual = getExp(HealthyMinRate, hundred);\n        MaxRateActual = getExp(MaxRate, hundred);\n        HealthyMaxURActual = getExp(HealthyMaxUR, hundred);\n        HealthyMaxRateActual = getExp(HealthyMaxRate, hundred);\n        \n        SpreadLow = MinRateActual;\n        BreakPointLow = HealthyMinURActual;\n        BreakPointHigh = HealthyMaxURActual;\n\n        // ReserveLow = (HealthyMinRate-SpreadLow)/BreakPointLow;\n        temp1 = subExp(HealthyMinRateActual, SpreadLow);\n        ReserveLow = divExp(temp1, BreakPointLow);\n        \n        // ReserveMid = (HealthyMaxRate-HealthyMinRate)/(HealthyMaxUR-HealthyMinUR);\n        temp1 = subExp(HealthyMaxRateActual, HealthyMinRateActual);\n        temp2 = subExp(HealthyMaxURActual, HealthyMinURActual);\n        ReserveMid = divExp(temp1, temp2);\n        \n        // SpreadMid = HealthyMinRate - (ReserveMid * BreakPointLow);\n        temp1 = mulExp(ReserveMid, BreakPointLow);\n        SpreadMid = subExp(HealthyMinRateActual, temp1);\n        require(\n            SpreadMid.mantissa >= 0,\n            Error.SPREAD_MID_IS_NEGATIVE\n        );\n        // ReserveHigh = (MaxRate - HealthyMaxRate) / (100 - HealthyMaxUR);\n        temp1 = subExp(MaxRateActual, HealthyMaxRateActual);\n        temp2 = subExp(HundredMantissa, HealthyMaxURActual);\n        ReserveHigh = divExp(temp1, temp2);\n        \n        // SpreadHigh = (ReserveHigh * BreakPointHigh) - HealthyMaxRate;\n        temp2 = mulExp(ReserveHigh, BreakPointHigh);\n        SpreadHigh = subExp(temp2, HealthyMaxRateActual);\n        require(\n            SpreadHigh.mantissa >= 0,\n            Error.SPREAD_MAX_IS_NEGATIVE\n        );\n    }\n\n    function changeBlocksPerYear(uint256 _blocksPerYear) external onlyOwner {\n        uint256 oldBlocksPerYear = blocksPerYear;\n        blocksPerYear = _blocksPerYear;\n        emit blocksPerYearUpdated(oldBlocksPerYear, _blocksPerYear);\n    }\n\n    function transferOwnership(address newOwner_) external onlyOwner {\n        require(newOwner_ != owner, Error.UNAUTHORIZED);\n        newOwner = newOwner_;\n    }\n\n    function acceptOwnership() external {\n        require(\n            msg.sender == newOwner,\n            Error.UNAUTHORIZED\n        );\n        emit OwnerUpdate(owner, newOwner);\n        owner = newOwner;\n        newOwner = address(0x0);\n    }\n\n    /*\n     * @dev Calculates the utilization rate (borrows / (cash + borrows)) as an Exp in 1e18 scale\n     */\n    function getUtilizationRate(uint256 cash, uint256 borrows)\n        internal\n        view\n        returns (bool, Exp memory)\n    {\n        if (borrows == 0) {\n            // Utilization rate is zero when there's no borrows\n            return (true, Exp({mantissa: 0}));\n        }\n\n        (bool success, uint256 cashPlusBorrows) = add(cash, borrows);\n        if (!success) {\n            return (\n                false,\n                Exp({mantissa: 0})\n            );\n        }\n\n        Exp memory utilizationRate = getExp(\n            borrows,\n            cashPlusBorrows\n        );\n        \n        utilizationRate = mulScalar(utilizationRate, hundred);\n\n        return (true, utilizationRate);\n    }\n\n    /*\n     * @dev Calculates the utilization and borrow rates for use by get{Supply,Borrow}Rate functions\n     * Both Utilization Rate and Borrow Rate are returned in 1e18 scale\n     */\n    function getUtilizationAndAnnualBorrowRate(uint256 cash, uint256 borrows)\n        internal\n        view\n        returns (\n            bool,\n            Exp memory,\n            Exp memory\n        )\n    {\n        (bool success, Exp memory utilizationRate) = getUtilizationRate(\n            cash,\n            borrows\n        );\n        if (!success) {\n            return (false, Exp({mantissa: 0}), Exp({mantissa: 0}));\n        }\n\n        /**\n         *  Borrow Rate\n         *  0 < UR < 20% :      SpreadLow + UR * ReserveLow\n         *  20% <= UR <= 80% :  SpreadMid + UR * ReserveMid\n         *  80% < UR :          UR * ReserveHigh - SpreadHigh\n         */\n\n        uint256 annualBorrowRateScaled;\n        Exp memory tempScaled;\n        Exp memory tempScaled2;\n\n        if (utilizationRate.mantissa < BreakPointLow.mantissa) {\n            tempScaled = mulExp(utilizationRate, ReserveLow);\n            tempScaled2 = addExp(tempScaled, SpreadLow);\n            annualBorrowRateScaled = tempScaled2.mantissa;\n        } else if (utilizationRate.mantissa > BreakPointHigh.mantissa) {\n            tempScaled = mulExp(utilizationRate, ReserveHigh);\n            // Integer Underflow is handled in sub() function under CarefulMath\n            tempScaled2 = subExp(tempScaled, SpreadHigh);\n            annualBorrowRateScaled = tempScaled2.mantissa;\n        } else if (\n            utilizationRate.mantissa >= BreakPointLow.mantissa &&\n            utilizationRate.mantissa <= BreakPointHigh.mantissa\n        ) {\n            tempScaled = mulExp(utilizationRate, ReserveMid);\n            tempScaled2 = addExp(tempScaled, SpreadMid);\n            annualBorrowRateScaled = tempScaled2.mantissa;\n        }\n\n        return (\n            true,\n            utilizationRate,\n            Exp({mantissa: annualBorrowRateScaled})\n        );\n    }\n\n    /**\n     * @notice Gets the current supply interest rate based on the given asset, total cash and total borrows\n     * @dev The return value should be scaled by 1e18, thus a return value of\n     *      `(true, 1000000000000)` implies an interest rate of 0.000001 or 0.0001% *per block*.\n     * @param _asset The asset to get the interest rate of\n     * @param cash The total cash of the asset in the market\n     * @param borrows The total borrows of the asset in the market\n     * @return Success or failure and the supply interest rate per block scaled by 1e18\n     */\n    function getSupplyRate(\n        address _asset,\n        uint256 cash,\n        uint256 borrows\n    ) public view returns (bool, uint256) {\n        _asset; // pragma ignore unused argument\n        (\n            bool success,\n            Exp memory utilizationRate0,\n            Exp memory annualBorrowRate\n        ) = getUtilizationAndAnnualBorrowRate(cash, borrows);\n        if (!success) {\n            return (false, 0);\n        }\n\n        /**\n         *  Supply Rate\n         *  = BorrowRate * utilizationRate * (1 - SpreadLow)\n         */\n        Exp memory temp1;\n        Exp memory oneMinusSpreadBasisPoints;\n        temp1 = getExp(hundred, 1);\n        oneMinusSpreadBasisPoints = subExp(temp1, SpreadLow);\n\n        // mulScalar only overflows when product is greater than or equal to 2^256.\n        // utilization rate's mantissa is a number between [0e18,1e18]. That means that\n        // utilizationRate1 is a value between [0e18,8.5e21]. This is strictly less than 2^256.\n\n        // Next multiply this product times the borrow rate\n        // Borrow rate should be divided by 1e2 to get product at 1e18 scale\n        temp1 = mulExp(\n            utilizationRate0,\n            Exp({mantissa: annualBorrowRate.mantissa / hundred})\n        );\n        // If the product of the mantissas for mulExp are both less than 2^256,\n        // then this operation will never fail.\n        // We know that borrow rate is in the interval [0, 2.25e17] from above.\n        // We know that utilizationRate1 is in the interval [0, 9e21] from directly above.\n        // As such, the multiplication is in the interval of [0, 2.025e39]. This is strictly\n        // less than 2^256 (which is about 10e77).\n\n        // oneMinusSpreadBasisPoints i.e.,(1 - SpreadLow) should be divided by 1e2 to get product at 1e18 scale\n        temp1 = mulExp(\n            temp1,\n            Exp({mantissa: oneMinusSpreadBasisPoints.mantissa / hundred})\n        );\n\n        // And then divide down by the spread's denominator (basis points divisor)\n        // as well as by blocks per year.\n        Exp memory supplyRate = divScalar(temp1, blocksPerYear); // basis points * blocks per year\n        // divScalar only fails when divisor is zero. This is clearly not the case.\n\n        // Note: supplyRate.mantissa is the rate scaled 1e20 ex., 23%\n        // Note: we then divide by 1e2 to scale it down to the expected 1e18 scale, which matches the expected result ex., 0.2300\n        return (true, supplyRate.mantissa / hundred);\n    }\n\n    /**\n     * @notice Gets the current borrow interest rate based on the given asset, total cash and total borrows\n     * @dev The return value should be scaled by 1e18, thus a return value of\n     *      `(true, 1000000000000)` implies an interest rate of 0.000001 or 0.0001% *per block*.\n     * @param asset The asset to get the interest rate of\n     * @param cash The total cash of the asset in the market\n     * @param borrows The total borrows of the asset in the market\n     * @return Success or failure and the borrow interest rate per block scaled by 1e18\n     */\n    function getBorrowRate(\n        address asset,\n        uint256 cash,\n        uint256 borrows\n    ) public view returns (bool, uint256) {\n        asset; // pragma ignore unused argument\n\n        (\n            bool success,\n            ,\n            Exp memory annualBorrowRate\n        ) = getUtilizationAndAnnualBorrowRate(cash, borrows);\n        if (!success) {\n            return (false, 0);\n        }\n\n        // And then divide down by blocks per year.\n        Exp memory borrowRate = divScalar(\n            annualBorrowRate,\n            blocksPerYear\n        ); // basis points * blocks per year\n        // divScalar only fails when divisor is zero. This is clearly not the case.\n\n        // Note: borrowRate.mantissa is the rate scaled 1e20 ex., 23%\n        // Note: we then divide by 1e2 to scale it down to the expected 1e18 scale, which matches the expected result ex., 0.2300\n        return (true, borrowRate.mantissa / hundred);\n    }\n}\n",
  "sourcePath": "/Users/preethisjv/Documents/Alkemi/githubUpload/project-alkemi-alkemi-earn-protocol-v2-d96569adc8c7 2/contracts/AlkemiRateModel.sol",
  "compiler": {
    "name": "solc",
    "version": "0.8.11+commit.d7f03943.Emscripten.clang"
  },
  "schemaVersion": "3.4.5",
  "updatedAt": "2022-06-07T16:43:46.903Z",
  "devdoc": {
    "author": "ShiftForex",
    "kind": "dev",
    "methods": {
      "getBorrowRate(address,uint256,uint256)": {
        "details": "The return value should be scaled by 1e18, thus a return value of      `(true, 1000000000000)` implies an interest rate of 0.000001 or 0.0001% *per block*.",
        "params": {
          "asset": "The asset to get the interest rate of",
          "borrows": "The total borrows of the asset in the market",
          "cash": "The total cash of the asset in the market"
        },
        "returns": {
          "_0": "Success or failure and the borrow interest rate per block scaled by 1e18"
        }
      },
      "getSupplyRate(address,uint256,uint256)": {
        "details": "The return value should be scaled by 1e18, thus a return value of      `(true, 1000000000000)` implies an interest rate of 0.000001 or 0.0001% *per block*.",
        "params": {
          "_asset": "The asset to get the interest rate of",
          "borrows": "The total borrows of the asset in the market",
          "cash": "The total cash of the asset in the market"
        },
        "returns": {
          "_0": "Success or failure and the supply interest rate per block scaled by 1e18"
        }
      }
    },
    "title": "Earn Interest Rate Model",
    "version": 1
  },
  "userdoc": {
    "kind": "user",
    "methods": {
      "getBorrowRate(address,uint256,uint256)": {
        "notice": "Gets the current borrow interest rate based on the given asset, total cash and total borrows"
      },
      "getSupplyRate(address,uint256,uint256)": {
        "notice": "Gets the current supply interest rate based on the given asset, total cash and total borrows"
      }
    },
    "notice": "See Model here",
    "version": 1
  }
}