{
  "contractName": "ChainLink",
  "abi": [
    {
      "inputs": [],
      "stateMutability": "nonpayable",
      "type": "constructor"
    },
    {
      "anonymous": false,
      "inputs": [
        {
          "indexed": true,
          "internalType": "address",
          "name": "oldAdmin",
          "type": "address"
        },
        {
          "indexed": true,
          "internalType": "address",
          "name": "newAdmin",
          "type": "address"
        }
      ],
      "name": "adminChanged",
      "type": "event"
    },
    {
      "anonymous": false,
      "inputs": [
        {
          "indexed": true,
          "internalType": "address",
          "name": "assetAddress",
          "type": "address"
        },
        {
          "indexed": true,
          "internalType": "address",
          "name": "priceFeedContract",
          "type": "address"
        }
      ],
      "name": "assetAdded",
      "type": "event"
    },
    {
      "anonymous": false,
      "inputs": [
        {
          "indexed": true,
          "internalType": "address",
          "name": "assetAddress",
          "type": "address"
        }
      ],
      "name": "assetRemoved",
      "type": "event"
    },
    {
      "anonymous": false,
      "inputs": [
        {
          "indexed": false,
          "internalType": "bool",
          "name": "currentStatus",
          "type": "bool"
        }
      ],
      "name": "contractPausedOrUnpaused",
      "type": "event"
    },
    {
      "anonymous": false,
      "inputs": [
        {
          "indexed": true,
          "internalType": "address",
          "name": "wethAddressPublic",
          "type": "address"
        }
      ],
      "name": "publicWethAddressSet",
      "type": "event"
    },
    {
      "anonymous": false,
      "inputs": [
        {
          "indexed": true,
          "internalType": "address",
          "name": "wethAddressVerified",
          "type": "address"
        }
      ],
      "name": "verifiedWethAddressSet",
      "type": "event"
    },
    {
      "inputs": [],
      "name": "USDETHPriceFeed",
      "outputs": [
        {
          "internalType": "contract AggregatorV3Interface",
          "name": "",
          "type": "address"
        }
      ],
      "stateMutability": "view",
      "type": "function"
    },
    {
      "inputs": [],
      "name": "admin",
      "outputs": [
        {
          "internalType": "address",
          "name": "",
          "type": "address"
        }
      ],
      "stateMutability": "view",
      "type": "function"
    },
    {
      "inputs": [],
      "name": "paused",
      "outputs": [
        {
          "internalType": "bool",
          "name": "",
          "type": "bool"
        }
      ],
      "stateMutability": "view",
      "type": "function"
    },
    {
      "inputs": [],
      "name": "wethAddressPublic",
      "outputs": [
        {
          "internalType": "address",
          "name": "",
          "type": "address"
        }
      ],
      "stateMutability": "view",
      "type": "function"
    },
    {
      "inputs": [],
      "name": "wethAddressVerified",
      "outputs": [
        {
          "internalType": "address",
          "name": "",
          "type": "address"
        }
      ],
      "stateMutability": "view",
      "type": "function"
    },
    {
      "stateMutability": "payable",
      "type": "receive"
    },
    {
      "inputs": [
        {
          "internalType": "address",
          "name": "assetAddress",
          "type": "address"
        },
        {
          "internalType": "address",
          "name": "priceFeedContract",
          "type": "address"
        }
      ],
      "name": "addAsset",
      "outputs": [],
      "stateMutability": "nonpayable",
      "type": "function"
    },
    {
      "inputs": [
        {
          "internalType": "address",
          "name": "assetAddress",
          "type": "address"
        }
      ],
      "name": "removeAsset",
      "outputs": [],
      "stateMutability": "nonpayable",
      "type": "function"
    },
    {
      "inputs": [
        {
          "internalType": "address",
          "name": "newAdmin",
          "type": "address"
        }
      ],
      "name": "changeAdmin",
      "outputs": [],
      "stateMutability": "nonpayable",
      "type": "function"
    },
    {
      "inputs": [
        {
          "internalType": "address",
          "name": "_wethAddressVerified",
          "type": "address"
        }
      ],
      "name": "setWethAddressVerified",
      "outputs": [],
      "stateMutability": "nonpayable",
      "type": "function"
    },
    {
      "inputs": [
        {
          "internalType": "address",
          "name": "_wethAddressPublic",
          "type": "address"
        }
      ],
      "name": "setWethAddressPublic",
      "outputs": [],
      "stateMutability": "nonpayable",
      "type": "function"
    },
    {
      "inputs": [],
      "name": "togglePause",
      "outputs": [],
      "stateMutability": "nonpayable",
      "type": "function"
    },
    {
      "inputs": [
        {
          "internalType": "address",
          "name": "asset",
          "type": "address"
        }
      ],
      "name": "getAssetPrice",
      "outputs": [
        {
          "internalType": "uint256",
          "name": "",
          "type": "uint256"
        },
        {
          "internalType": "uint8",
          "name": "",
          "type": "uint8"
        }
      ],
      "stateMutability": "view",
      "type": "function"
    },
    {
      "inputs": [],
      "name": "isChainlinkContractPaused",
      "outputs": [
        {
          "internalType": "bool",
          "name": "",
          "type": "bool"
        }
      ],
      "stateMutability": "view",
      "type": "function"
    }
  ],
  "bytecode": "0x60806040526001805460ff60a01b1916905534801561001d57600080fd5b50600180546001600160a01b03191633179055610c6b8061003f6000396000f3fe6080604052600436106100d65760003560e01c80638f2839701161007f578063da48999711610059578063da4899971461029c578063de4162d4146102bc578063f851a440146102db578063ff559175146102fb57600080fd5b80638f28397014610230578063b3596f0714610250578063c4ae31681461028757600080fd5b8063590c90f1116100b0578063590c90f1146101a25780635c975abb146101df5780637b49094d1461021057600080fd5b8063276dde65146101405780634a5e42b1146101625780634ed5fb571461018257600080fd5b3661013b5760405133903480156108fc02916000818181858888f1935050505060405180604001604052806002815260200161034360f41b815250906101385760405162461bcd60e51b815260040161012f9190610abd565b60405180910390fd5b50005b600080fd5b34801561014c57600080fd5b5061016061015b366004610b2e565b61031b565b005b34801561016e57600080fd5b5061016061017d366004610b2e565b6103ea565b34801561018e57600080fd5b5061016061019d366004610b2e565b6104be565b3480156101ae57600080fd5b506003546101c2906001600160a01b031681565b6040516001600160a01b0390911681526020015b60405180910390f35b3480156101eb57600080fd5b5060015461020090600160a01b900460ff1681565b60405190151581526020016101d6565b34801561021c57600080fd5b506004546101c2906001600160a01b031681565b34801561023c57600080fd5b5061016061024b366004610b2e565b61058d565b34801561025c57600080fd5b5061027061026b366004610b2e565b61066e565b6040805192835260ff9091166020830152016101d6565b34801561029357600080fd5b506101606108eb565b3480156102a857600080fd5b506101606102b7366004610b50565b6109c8565b3480156102c857600080fd5b50600154600160a01b900460ff16610200565b3480156102e757600080fd5b506001546101c2906001600160a01b031681565b34801561030757600080fd5b506002546101c2906001600160a01b031681565b6001805460408051808201909152918252601960f91b60208301526001600160a01b0316331461035e5760405162461bcd60e51b815260040161012f9190610abd565b50604080518082019091526002815261191b60f11b60208201526001600160a01b03821661039f5760405162461bcd60e51b815260040161012f9190610abd565b50600280546001600160a01b0319166001600160a01b0383169081179091556040517f2f6d82b98a8453a0dc7c07a89f0f73dfff3de9b9c13c184fd330a0f4859350f290600090a250565b6001805460408051808201909152918252601960f91b60208301526001600160a01b0316331461042d5760405162461bcd60e51b815260040161012f9190610abd565b50604080518082019091526002815261191b60f11b60208201526001600160a01b03821661046e5760405162461bcd60e51b815260040161012f9190610abd565b506001600160a01b03811660008181526020819052604080822080546001600160a01b0319169055517feb869716e6e4df646fa6f9580b7ce838674d58ef768d9ec740785cb0c971d6959190a250565b6001805460408051808201909152918252601960f91b60208301526001600160a01b031633146105015760405162461bcd60e51b815260040161012f9190610abd565b50604080518082019091526002815261191b60f11b60208201526001600160a01b0382166105425760405162461bcd60e51b815260040161012f9190610abd565b50600380546001600160a01b0319166001600160a01b0383169081179091556040517fb092d7333eb92eaa4b6931de66e33e4ccd8eba619648aaa97bd654275ddaab7590600090a250565b6001805460408051808201909152918252601960f91b60208301526001600160a01b031633146105d05760405162461bcd60e51b815260040161012f9190610abd565b50604080518082019091526002815261191b60f11b60208201526001600160a01b0382166106115760405162461bcd60e51b815260040161012f9190610abd565b506001546040516001600160a01b038084169216907fbadc9a52979e89f78b7c58309537410c5e51d0f63a0a455efe8d61d2b474e69890600090a3600180546001600160a01b0319166001600160a01b0392909216919091179055565b6001546000908190600160a01b900460ff166106c5576002546001600160a01b03848116911614806106ad57506003546001600160a01b038481169116145b156106c55750670de0b6b3a764000092601292509050565b6000836001600160a01b031663313ce5676040518163ffffffff1660e01b8152600401602060405180830381865afa158015610705573d6000803e3d6000fd5b505050506040513d601f19601f820116820180604052508101906107299190610b83565b600154909150600160a01b900460ff1615801561075f57506001600160a01b038481166000908152602081905260409020541615155b156108e0576001600160a01b03808516600090815260208190526040808220548151633fabe5a360e21b8152915192938493849384938493169163feaf968c9160048082019260a0929091908290030181865afa1580156107c4573d6000803e3d6000fd5b505050506040513d601f19601f820116820180604052508101906107e89190610bc0565b94509450945094509450620151e4426108019190610c10565b821161084f5760405162461bcd60e51b815260206004820152600a60248201527f5374616c65206461746100000000000000000000000000000000000000000000604482015260640161012f565b8469ffffffffffffffffffff168169ffffffffffffffffffff1610156108b75760405162461bcd60e51b815260206004820152600a60248201527f5374616c65204461746100000000000000000000000000000000000000000000604482015260640161012f565b60008413156108cf5750919793965092945050505050565b506000989497509395505050505050565b600094909350915050565b6001805460408051808201909152918252601960f91b60208301526001600160a01b0316331461092e5760405162461bcd60e51b815260040161012f9190610abd565b50600154600160a01b900460ff1615610985576001805460ff60a01b19169055604051600081527fc8bba866518ae9aa8da197216b6c4650cc7e794e25ba3db8367d55bff5200a3c906020015b60405180910390a1565b6001805460ff60a01b1916600160a01b1781556040519081527fc8bba866518ae9aa8da197216b6c4650cc7e794e25ba3db8367d55bff5200a3c9060200161097b565b6001805460408051808201909152918252601960f91b60208301526001600160a01b03163314610a0b5760405162461bcd60e51b815260040161012f9190610abd565b506001600160a01b03821615801590610a2c57506001600160a01b03811615155b60405180604001604052806002815260200161191b60f11b81525090610a655760405162461bcd60e51b815260040161012f9190610abd565b506001600160a01b0382811660008181526020819052604080822080546001600160a01b0319169486169485179055517f5760e73aa1540f0e1b7caf958cf3b63a02ed643843163081214586096289d71b9190a35050565b600060208083528351808285015260005b81811015610aea57858101830151858201604001528201610ace565b81811115610afc576000604083870101525b50601f01601f1916929092016040019392505050565b80356001600160a01b0381168114610b2957600080fd5b919050565b600060208284031215610b4057600080fd5b610b4982610b12565b9392505050565b60008060408385031215610b6357600080fd5b610b6c83610b12565b9150610b7a60208401610b12565b90509250929050565b600060208284031215610b9557600080fd5b815160ff81168114610b4957600080fd5b805169ffffffffffffffffffff81168114610b2957600080fd5b600080600080600060a08688031215610bd857600080fd5b610be186610ba6565b9450602086015193506040860151925060608601519150610c0460808701610ba6565b90509295509295909350565b600082821015610c3057634e487b7160e01b600052601160045260246000fd5b50039056fea2646970667358221220ba996d3992d24b687967ff0191150ac1a3ab9bcf46d2fc67251d9e76cb1fa6c664736f6c634300080b0033",
  "immutableReferences": {},
  "source": "// SPDX-License-Identifier: MIT\npragma solidity 0.8.11;\n\nimport \"./AggregatorV3Interface.sol\";\nimport \"./EIP20Interface.sol\";\nimport \"./ChainLinkInterface.sol\";\nimport {Error} from \"./ErrorReporter.sol\";\n\ncontract ChainLink is ChainLinkInterface{\n    mapping(address => AggregatorV3Interface) internal priceContractMapping;\n    address public admin;\n    bool public paused = false;\n    address public wethAddressVerified;\n    address public wethAddressPublic;\n    AggregatorV3Interface public USDETHPriceFeed;\n    uint256 constant expScale = 10**18;\n    uint8 constant eighteen = 18;\n\n    /**\n     * Sets the admin\n     * Add assets and set Weth Address using their own functions\n     */\n    constructor() {\n        admin = msg.sender;\n    }\n\n    /**\n     * Modifier to restrict functions only by admins\n     */\n    modifier onlyAdmin() {\n        require(\n            msg.sender == admin,\n            Error.UNAUTHORIZED\n        );\n        _;\n    }\n\n    /**\n     * Event declarations for all the operations of this contract\n     */\n    event assetAdded(\n        address indexed assetAddress,\n        address indexed priceFeedContract\n    );\n    event assetRemoved(address indexed assetAddress);\n    event adminChanged(address indexed oldAdmin, address indexed newAdmin);\n    event verifiedWethAddressSet(address indexed wethAddressVerified);\n    event publicWethAddressSet(address indexed wethAddressPublic);\n    event contractPausedOrUnpaused(bool currentStatus);\n\n    /**\n     * Allows admin to add a new asset for price tracking\n     */\n    function addAsset(address assetAddress, address priceFeedContract)\n        public\n        onlyAdmin\n    {\n        require(\n            assetAddress != address(0) && priceFeedContract != address(0),\n            Error.ADDRESS_CANNOT_BE_0X00\n        );\n        priceContractMapping[assetAddress] = AggregatorV3Interface(\n            priceFeedContract\n        );\n        emit assetAdded(assetAddress, priceFeedContract);\n    }\n\n    /**\n     * Allows admin to remove an existing asset from price tracking\n     */\n    function removeAsset(address assetAddress) public onlyAdmin {\n        require(\n            assetAddress != address(0),\n            Error.ADDRESS_CANNOT_BE_0X00\n        );\n        priceContractMapping[assetAddress] = AggregatorV3Interface(address(0));\n        emit assetRemoved(assetAddress);\n    }\n\n    /**\n     * Allows admin to change the admin of the contract\n     */\n    function changeAdmin(address newAdmin) public onlyAdmin {\n        require(\n            newAdmin != address(0),\n            Error.ADDRESS_CANNOT_BE_0X00\n        );\n        emit adminChanged(admin, newAdmin);\n        admin = newAdmin;\n    }\n\n    /**\n     * Allows admin to set the weth address for verified protocol\n     */\n    function setWethAddressVerified(address _wethAddressVerified) public onlyAdmin {\n        require(_wethAddressVerified != address(0), Error.ADDRESS_CANNOT_BE_0X00);\n        wethAddressVerified = _wethAddressVerified;\n        emit verifiedWethAddressSet(_wethAddressVerified);\n    }\n\n    /**\n     * Allows admin to set the weth address for public protocol\n     */\n    function setWethAddressPublic(address _wethAddressPublic) public onlyAdmin {\n        require(_wethAddressPublic != address(0), Error.ADDRESS_CANNOT_BE_0X00);\n        wethAddressPublic = _wethAddressPublic;\n        emit publicWethAddressSet(_wethAddressPublic);\n    }\n\n    /**\n     * Allows admin to pause and unpause the contract\n     */\n    function togglePause() public onlyAdmin {\n        if (paused) {\n            paused = false;\n            emit contractPausedOrUnpaused(false);\n        } else {\n            paused = true;\n            emit contractPausedOrUnpaused(true);\n        }\n    }\n\n    /**\n     * Returns the latest price scaled to 1e18 scale\n     */\n    function getAssetPrice(address asset) external virtual view returns (uint256, uint8) {\n        // Return 1 * 10^18 for WETH, otherwise return actual price\n        if (!paused) {\n            if ( asset == wethAddressVerified || asset == wethAddressPublic ){\n                return (expScale, eighteen);\n            }\n        }\n        // Capture the decimals in the ERC20 token\n        uint8 assetDecimals = EIP20Interface(asset).decimals();\n        if (!paused && address(priceContractMapping[asset]) != address(0)) {\n            (\n                uint80 roundID,\n                int256 price,\n                uint256 startedAt,\n                uint256 timeStamp,\n                uint80 answeredInRound\n            ) = priceContractMapping[asset].latestRoundData();\n            startedAt; // To avoid compiler warnings for unused local variable\n            // If the price data was not refreshed for the past 1 day, prices are considered stale\n            // This threshold is the maximum Chainlink uses to update the price feeds\n            require(timeStamp > (block.timestamp - 86500 seconds), \"Stale data\");\n            // If answeredInRound is less than roundID, prices are considered stale\n            require(answeredInRound >= roundID, \"Stale Data\");\n            if (price > 0) {\n                // Magnify the result based on decimals\n                return (uint256(price), assetDecimals);\n            } else {\n                return (0, assetDecimals);\n            }\n        } else {\n            return (0, assetDecimals);\n        }\n    }\n\n    /**\n     * Returns false if the contract is paused\n     */\n    function isChainlinkContractPaused() external view returns(bool){\n        return paused;\n    }\n\n    \n    receive() external payable {\n        require(\n            payable(msg.sender).send(msg.value),\n            Error.INTERNAL_EXCEPTION\n        );\n    }\n}",
  "sourcePath": "/Users/preethisjv/Documents/Alkemi/githubUpload/project-alkemi-alkemi-earn-protocol-v2-d96569adc8c7 2/contracts/ChainLink.sol",
  "compiler": {
    "name": "solc",
    "version": "0.8.11+commit.d7f03943.Emscripten.clang"
  },
  "schemaVersion": "3.4.5",
  "updatedAt": "2022-06-07T16:43:46.939Z",
  "devdoc": {
    "kind": "dev",
    "methods": {},
    "version": 1
  },
  "userdoc": {
    "events": {
      "assetAdded(address,address)": {
        "notice": "Event declarations for all the operations of this contract"
      }
    },
    "kind": "user",
    "methods": {
      "addAsset(address,address)": {
        "notice": "Allows admin to add a new asset for price tracking"
      },
      "changeAdmin(address)": {
        "notice": "Allows admin to change the admin of the contract"
      },
      "constructor": {
        "notice": "Sets the admin Add assets and set Weth Address using their own functions"
      },
      "getAssetPrice(address)": {
        "notice": "Returns the latest price scaled to 1e18 scale"
      },
      "isChainlinkContractPaused()": {
        "notice": "Returns false if the contract is paused"
      },
      "removeAsset(address)": {
        "notice": "Allows admin to remove an existing asset from price tracking"
      },
      "setWethAddressPublic(address)": {
        "notice": "Allows admin to set the weth address for public protocol"
      },
      "setWethAddressVerified(address)": {
        "notice": "Allows admin to set the weth address for verified protocol"
      },
      "togglePause()": {
        "notice": "Allows admin to pause and unpause the contract"
      }
    },
    "version": 1
  }
}