{
  "contractName": "ProtocolUtils",
  "abi": [
    {
      "inputs": [],
      "name": "priceOracle",
      "outputs": [
        {
          "internalType": "contract ChainLinkInterface",
          "name": "",
          "type": "address"
        }
      ],
      "stateMutability": "view",
      "type": "function"
    }
  ],
  "bytecode": "0x6080604052348015600f57600080fd5b5060ab8061001e6000396000f3fe6080604052348015600f57600080fd5b506004361060285760003560e01c80632630c12f14602d575b600080fd5b600054604c9073ffffffffffffffffffffffffffffffffffffffff1681565b60405173ffffffffffffffffffffffffffffffffffffffff909116815260200160405180910390f3fea264697066735822122069787719d7faad5e1235e85763ff035e1746788cfe4a421f1db0b4486bbd66aa64736f6c634300080b0033",
  "immutableReferences": {},
  "source": "// SPDX-License-Identifier: MIT\npragma solidity 0.8.11;\n\nimport \"./Exponential.sol\";\nimport \"./ChainLinkInterface.sol\";\nimport {Error} from \"./ErrorReporter.sol\";\n\ncontract ProtocolUtils is Exponential{\n    \n    ChainLinkInterface public priceOracle;\n  \n    /**\n     * @dev Gets the amount of the specified asset given the specified Eth value\n     *      ethValue / oraclePrice = assetAmountWei\n     *      If there's no oraclePrice, this returns (Error.DIVISION_BY_ZERO, 0)\n     * @return Return value is expressed in a magnified scale per token decimals\n     */\n    \n    function getAssetAmountForValue(address asset, Exp memory ethValue)\n        internal\n        view\n        returns (uint256)\n    {\n        Exp memory assetPrice;\n        Exp memory assetAmount;\n\n        assetPrice = fetchAssetPrice(asset);\n\n        assetAmount = divExp(ethValue, assetPrice);\n\n        return (truncate(assetAmount));\n    }\n\n    \n     /**\n     * @dev fetches the price of asset from the PriceOracle and converts it to Exp\n     * @param asset asset whose price should be fetched\n     * @return Return value is expressed in a magnified scale per token decimals\n     */\n    function fetchAssetPrice(address asset)\n        internal\n        view\n        returns (Exp memory)\n    {\n        bool paused = priceOracle.isChainlinkContractPaused();\n        require(address(priceOracle) != address(0), Error.ZERO_ORACLE_ADDRESS);\n\n        require(!paused, Error.MISSING_ASSET_PRICE); \n\n        (uint256 priceMantissa, uint8 assetDecimals) = priceOracle\n        .getAssetPrice(asset);\n        (bool success, uint256 magnification) = sub(18, uint256(assetDecimals));\n        require(success, Error.INTEGER_UNDERFLOW);\n\n        (success, priceMantissa) = mul(priceMantissa, 10**magnification);\n        require(success, Error.INTEGER_OVERFLOW);\n\n        return (Exp({mantissa: priceMantissa}));\n    }    \n    \n     /**\n     * @dev Gets the price for the amount specified of the given asset.\n     * @return Return value is expressed in a magnified scale per token decimals\n     */\n    function getPriceForAssetAmount(address asset, uint256 assetAmount)\n        internal\n        view\n        returns (Exp memory)\n    {\n        Exp memory assetPrice = fetchAssetPrice(asset);\n\n        require(!isZeroExp(assetPrice), Error.MISSING_ASSET_PRICE); \n\n        return mulScalar(assetPrice, assetAmount); // assetAmountWei * oraclePrice = assetValueInEth\n    }  \n    \n        /**\n     * @dev Calculates a new supply/borrow index based on the prevailing interest rates applied over time\n     *      This is defined as `we multiply the most recent supply/borrow index by (1 + blocks times rate)`\n     * @return Return value is expressed in 1e18 scale\n     */\n    function calculateInterestIndex(\n        uint256 startingInterestIndex,\n        uint256 interestRateMantissa,\n        uint256 blockStart,\n        uint256 blockEnd\n    )   internal pure returns (uint256) {\n        // Get the block delta\n        (bool success, uint256 blockDelta) = sub(blockEnd, blockStart);\n        require(success, Error.INTEGER_UNDERFLOW);\n\n        // Scale the interest rate times number of blocks\n        // Note: Doing Exp construction inline to avoid `CompilerError: Stack too deep, try removing local variables.`\n        Exp memory blocksTimesRate = mulScalar(\n            Exp({mantissa: interestRateMantissa}),\n            blockDelta\n        );\n\n        // Add one to that result (which is really Exp({mantissa: expScale}) which equals 1.0)\n        Exp memory onePlusBlocksTimesRate = addExp(\n            blocksTimesRate,\n            Exp({mantissa: expScale})\n        );\n\n        // Then scale that accumulated interest by the old interest index to get the new interest index\n        Exp memory newInterestIndexExp = mulScalar(\n            onePlusBlocksTimesRate,\n            startingInterestIndex\n        );\n\n        // Finally, truncate the interest index. This works only if interest index starts large enough\n        // that is can be accurately represented with a whole number.\n        return (truncate(newInterestIndexExp));\n    }\n\n    /**\n     * @dev Calculates a new balance based on a previous balance and a pair of interest indices\n     *      This is defined as: `The user's last balance checkpoint is multiplied by the currentSupplyIndex\n     *      value and divided by the user's checkpoint index value`\n     * @return Return value is expressed in 1e18 scale\n     */\n    function calculateBalance(\n        uint256 startingBalance,\n        uint256 interestIndexStart,\n        uint256 interestIndexEnd\n    )   internal pure returns (bool, uint256) {\n        if (startingBalance == 0) {\n            // We are accumulating interest on any previous balance; if there's no previous balance, then there is\n            // nothing to accumulate.\n            return (true, 0);\n        }\n        (bool success, uint256 balanceTimesIndex) = mul(\n            startingBalance,\n            interestIndexEnd\n        );\n        require(success, Error.INTEGER_OVERFLOW);\n\n        return div(balanceTimesIndex, interestIndexStart);\n    }\n\n}",
  "sourcePath": "/Users/preethisjv/Documents/Alkemi/githubUpload/project-alkemi-alkemi-earn-protocol-v2-d96569adc8c7 2/contracts/ProtocolUtils.sol",
  "compiler": {
    "name": "solc",
    "version": "0.8.11+commit.d7f03943.Emscripten.clang"
  },
  "schemaVersion": "3.4.5",
  "updatedAt": "2022-06-07T16:43:46.975Z",
  "devdoc": {
    "kind": "dev",
    "methods": {},
    "version": 1
  },
  "userdoc": {
    "kind": "user",
    "methods": {},
    "version": 1
  }
}