{
  "contractName": "RewardControl",
  "abi": [
    {
      "anonymous": false,
      "inputs": [
        {
          "indexed": true,
          "internalType": "address",
          "name": "market",
          "type": "address"
        },
        {
          "indexed": false,
          "internalType": "uint256",
          "name": "newSpeed",
          "type": "uint256"
        },
        {
          "indexed": false,
          "internalType": "bool",
          "name": "isVerified",
          "type": "bool"
        }
      ],
      "name": "AlkSpeedUpdated",
      "type": "event"
    },
    {
      "anonymous": false,
      "inputs": [
        {
          "indexed": true,
          "internalType": "address",
          "name": "market",
          "type": "address"
        },
        {
          "indexed": true,
          "internalType": "address",
          "name": "borrower",
          "type": "address"
        },
        {
          "indexed": false,
          "internalType": "uint256",
          "name": "borrowerDelta",
          "type": "uint256"
        },
        {
          "indexed": false,
          "internalType": "uint256",
          "name": "borrowerAccruedAlk",
          "type": "uint256"
        },
        {
          "indexed": false,
          "internalType": "uint256",
          "name": "borrowIndexMantissa",
          "type": "uint256"
        },
        {
          "indexed": false,
          "internalType": "bool",
          "name": "isVerified",
          "type": "bool"
        }
      ],
      "name": "DistributedBorrowerAlk",
      "type": "event"
    },
    {
      "anonymous": false,
      "inputs": [
        {
          "indexed": true,
          "internalType": "address",
          "name": "market",
          "type": "address"
        },
        {
          "indexed": true,
          "internalType": "address",
          "name": "supplier",
          "type": "address"
        },
        {
          "indexed": false,
          "internalType": "uint256",
          "name": "supplierDelta",
          "type": "uint256"
        },
        {
          "indexed": false,
          "internalType": "uint256",
          "name": "supplierAccruedAlk",
          "type": "uint256"
        },
        {
          "indexed": false,
          "internalType": "uint256",
          "name": "supplyIndexMantissa",
          "type": "uint256"
        },
        {
          "indexed": false,
          "internalType": "bool",
          "name": "isVerified",
          "type": "bool"
        }
      ],
      "name": "DistributedSupplierAlk",
      "type": "event"
    },
    {
      "anonymous": false,
      "inputs": [
        {
          "indexed": true,
          "internalType": "address",
          "name": "market",
          "type": "address"
        },
        {
          "indexed": false,
          "internalType": "uint256",
          "name": "numberOfMarkets",
          "type": "uint256"
        },
        {
          "indexed": false,
          "internalType": "bool",
          "name": "isVerified",
          "type": "bool"
        }
      ],
      "name": "MarketAdded",
      "type": "event"
    },
    {
      "anonymous": false,
      "inputs": [
        {
          "indexed": true,
          "internalType": "address",
          "name": "market",
          "type": "address"
        },
        {
          "indexed": false,
          "internalType": "uint256",
          "name": "numberOfMarkets",
          "type": "uint256"
        },
        {
          "indexed": false,
          "internalType": "bool",
          "name": "isVerified",
          "type": "bool"
        }
      ],
      "name": "MarketRemoved",
      "type": "event"
    },
    {
      "anonymous": false,
      "inputs": [
        {
          "indexed": true,
          "internalType": "address",
          "name": "owner",
          "type": "address"
        },
        {
          "indexed": true,
          "internalType": "address",
          "name": "newOwner",
          "type": "address"
        }
      ],
      "name": "OwnerUpdate",
      "type": "event"
    },
    {
      "anonymous": false,
      "inputs": [
        {
          "indexed": true,
          "internalType": "address",
          "name": "participant",
          "type": "address"
        },
        {
          "indexed": false,
          "internalType": "uint256",
          "name": "participantAccrued",
          "type": "uint256"
        },
        {
          "indexed": false,
          "internalType": "address",
          "name": "market",
          "type": "address"
        },
        {
          "indexed": false,
          "internalType": "bool",
          "name": "isVerified",
          "type": "bool"
        }
      ],
      "name": "TransferredAlk",
      "type": "event"
    },
    {
      "inputs": [],
      "name": "MAXIMUM_NUMBER_OF_MARKETS",
      "outputs": [
        {
          "internalType": "uint8",
          "name": "",
          "type": "uint8"
        }
      ],
      "stateMutability": "view",
      "type": "function"
    },
    {
      "inputs": [
        {
          "internalType": "address",
          "name": "",
          "type": "address"
        }
      ],
      "name": "alkAccrued",
      "outputs": [
        {
          "internalType": "uint256",
          "name": "",
          "type": "uint256"
        }
      ],
      "stateMutability": "view",
      "type": "function"
    },
    {
      "inputs": [],
      "name": "alkAddress",
      "outputs": [
        {
          "internalType": "address",
          "name": "",
          "type": "address"
        }
      ],
      "stateMutability": "view",
      "type": "function"
    },
    {
      "inputs": [
        {
          "internalType": "bool",
          "name": "",
          "type": "bool"
        },
        {
          "internalType": "address",
          "name": "",
          "type": "address"
        }
      ],
      "name": "alkBorrowState",
      "outputs": [
        {
          "internalType": "uint224",
          "name": "index",
          "type": "uint224"
        },
        {
          "internalType": "uint32",
          "name": "block",
          "type": "uint32"
        }
      ],
      "stateMutability": "view",
      "type": "function"
    },
    {
      "inputs": [
        {
          "internalType": "bool",
          "name": "",
          "type": "bool"
        },
        {
          "internalType": "address",
          "name": "",
          "type": "address"
        },
        {
          "internalType": "address",
          "name": "",
          "type": "address"
        }
      ],
      "name": "alkBorrowerIndex",
      "outputs": [
        {
          "internalType": "uint256",
          "name": "",
          "type": "uint256"
        }
      ],
      "stateMutability": "view",
      "type": "function"
    },
    {
      "inputs": [],
      "name": "alkRate",
      "outputs": [
        {
          "internalType": "uint256",
          "name": "",
          "type": "uint256"
        }
      ],
      "stateMutability": "view",
      "type": "function"
    },
    {
      "inputs": [
        {
          "internalType": "bool",
          "name": "",
          "type": "bool"
        },
        {
          "internalType": "address",
          "name": "",
          "type": "address"
        }
      ],
      "name": "alkSpeeds",
      "outputs": [
        {
          "internalType": "uint256",
          "name": "",
          "type": "uint256"
        }
      ],
      "stateMutability": "view",
      "type": "function"
    },
    {
      "inputs": [
        {
          "internalType": "bool",
          "name": "",
          "type": "bool"
        },
        {
          "internalType": "address",
          "name": "",
          "type": "address"
        },
        {
          "internalType": "address",
          "name": "",
          "type": "address"
        }
      ],
      "name": "alkSupplierIndex",
      "outputs": [
        {
          "internalType": "uint256",
          "name": "",
          "type": "uint256"
        }
      ],
      "stateMutability": "view",
      "type": "function"
    },
    {
      "inputs": [
        {
          "internalType": "bool",
          "name": "",
          "type": "bool"
        },
        {
          "internalType": "address",
          "name": "",
          "type": "address"
        }
      ],
      "name": "alkSupplyState",
      "outputs": [
        {
          "internalType": "uint224",
          "name": "index",
          "type": "uint224"
        },
        {
          "internalType": "uint32",
          "name": "block",
          "type": "uint32"
        }
      ],
      "stateMutability": "view",
      "type": "function"
    },
    {
      "inputs": [],
      "name": "alkemiEarnPublic",
      "outputs": [
        {
          "internalType": "contract AlkemiPublicInterface",
          "name": "",
          "type": "address"
        }
      ],
      "stateMutability": "view",
      "type": "function"
    },
    {
      "inputs": [],
      "name": "alkemiEarnVerified",
      "outputs": [
        {
          "internalType": "contract AlkemiVerifiedInterface",
          "name": "",
          "type": "address"
        }
      ],
      "stateMutability": "view",
      "type": "function"
    },
    {
      "inputs": [
        {
          "internalType": "bool",
          "name": "",
          "type": "bool"
        },
        {
          "internalType": "uint256",
          "name": "",
          "type": "uint256"
        }
      ],
      "name": "allMarkets",
      "outputs": [
        {
          "internalType": "address",
          "name": "",
          "type": "address"
        }
      ],
      "stateMutability": "view",
      "type": "function"
    },
    {
      "inputs": [
        {
          "internalType": "bool",
          "name": "",
          "type": "bool"
        },
        {
          "internalType": "address",
          "name": "",
          "type": "address"
        }
      ],
      "name": "allMarketsIndex",
      "outputs": [
        {
          "internalType": "bool",
          "name": "",
          "type": "bool"
        }
      ],
      "stateMutability": "view",
      "type": "function"
    },
    {
      "inputs": [],
      "name": "initializationDone",
      "outputs": [
        {
          "internalType": "bool",
          "name": "",
          "type": "bool"
        }
      ],
      "stateMutability": "view",
      "type": "function"
    },
    {
      "inputs": [],
      "name": "newOwner",
      "outputs": [
        {
          "internalType": "address",
          "name": "",
          "type": "address"
        }
      ],
      "stateMutability": "view",
      "type": "function"
    },
    {
      "inputs": [],
      "name": "owner",
      "outputs": [
        {
          "internalType": "address",
          "name": "",
          "type": "address"
        }
      ],
      "stateMutability": "view",
      "type": "function"
    },
    {
      "inputs": [
        {
          "internalType": "address",
          "name": "_owner",
          "type": "address"
        },
        {
          "internalType": "address",
          "name": "_alkemiEarnVerified",
          "type": "address"
        },
        {
          "internalType": "address",
          "name": "_alkemiEarnPublic",
          "type": "address"
        },
        {
          "internalType": "address",
          "name": "_alkAddress",
          "type": "address"
        }
      ],
      "name": "initializer",
      "outputs": [],
      "stateMutability": "nonpayable",
      "type": "function"
    },
    {
      "inputs": [
        {
          "internalType": "address",
          "name": "market",
          "type": "address"
        },
        {
          "internalType": "address",
          "name": "supplier",
          "type": "address"
        },
        {
          "internalType": "bool",
          "name": "isVerified",
          "type": "bool"
        }
      ],
      "name": "refreshAlkSupplyIndex",
      "outputs": [],
      "stateMutability": "nonpayable",
      "type": "function"
    },
    {
      "inputs": [
        {
          "internalType": "address",
          "name": "market",
          "type": "address"
        },
        {
          "internalType": "address",
          "name": "borrower",
          "type": "address"
        },
        {
          "internalType": "bool",
          "name": "isVerified",
          "type": "bool"
        }
      ],
      "name": "refreshAlkBorrowIndex",
      "outputs": [],
      "stateMutability": "nonpayable",
      "type": "function"
    },
    {
      "inputs": [],
      "name": "refreshAlkSpeeds",
      "outputs": [],
      "stateMutability": "nonpayable",
      "type": "function"
    },
    {
      "inputs": [
        {
          "internalType": "address",
          "name": "market",
          "type": "address"
        },
        {
          "internalType": "bool",
          "name": "isVerified",
          "type": "bool"
        }
      ],
      "name": "updateAlkSupplyIndex",
      "outputs": [],
      "stateMutability": "nonpayable",
      "type": "function"
    },
    {
      "inputs": [
        {
          "internalType": "address",
          "name": "market",
          "type": "address"
        },
        {
          "internalType": "bool",
          "name": "isVerified",
          "type": "bool"
        }
      ],
      "name": "updateAlkBorrowIndex",
      "outputs": [],
      "stateMutability": "nonpayable",
      "type": "function"
    },
    {
      "inputs": [
        {
          "internalType": "address",
          "name": "market",
          "type": "address"
        },
        {
          "internalType": "address",
          "name": "supplier",
          "type": "address"
        },
        {
          "internalType": "bool",
          "name": "isVerified",
          "type": "bool"
        }
      ],
      "name": "distributeSupplierAlk",
      "outputs": [],
      "stateMutability": "nonpayable",
      "type": "function"
    },
    {
      "inputs": [
        {
          "internalType": "address",
          "name": "market",
          "type": "address"
        },
        {
          "internalType": "address",
          "name": "borrower",
          "type": "address"
        },
        {
          "internalType": "bool",
          "name": "isVerified",
          "type": "bool"
        }
      ],
      "name": "distributeBorrowerAlk",
      "outputs": [],
      "stateMutability": "nonpayable",
      "type": "function"
    },
    {
      "inputs": [
        {
          "internalType": "address",
          "name": "holder",
          "type": "address"
        }
      ],
      "name": "claimAlk",
      "outputs": [],
      "stateMutability": "nonpayable",
      "type": "function"
    },
    {
      "inputs": [
        {
          "internalType": "address",
          "name": "holder",
          "type": "address"
        },
        {
          "internalType": "address",
          "name": "market",
          "type": "address"
        },
        {
          "internalType": "bool",
          "name": "isVerified",
          "type": "bool"
        }
      ],
      "name": "claimAlk",
      "outputs": [],
      "stateMutability": "nonpayable",
      "type": "function"
    },
    {
      "inputs": [],
      "name": "getBlockNumber",
      "outputs": [
        {
          "internalType": "uint256",
          "name": "",
          "type": "uint256"
        }
      ],
      "stateMutability": "view",
      "type": "function"
    },
    {
      "inputs": [
        {
          "internalType": "address",
          "name": "participant",
          "type": "address"
        }
      ],
      "name": "getAlkAccrued",
      "outputs": [
        {
          "internalType": "uint256",
          "name": "",
          "type": "uint256"
        }
      ],
      "stateMutability": "view",
      "type": "function"
    },
    {
      "inputs": [],
      "name": "getAlkAddress",
      "outputs": [
        {
          "internalType": "address",
          "name": "",
          "type": "address"
        }
      ],
      "stateMutability": "view",
      "type": "function"
    },
    {
      "inputs": [],
      "name": "getAlkemiEarnAddress",
      "outputs": [
        {
          "internalType": "address",
          "name": "",
          "type": "address"
        },
        {
          "internalType": "address",
          "name": "",
          "type": "address"
        }
      ],
      "stateMutability": "view",
      "type": "function"
    },
    {
      "inputs": [
        {
          "internalType": "address",
          "name": "market",
          "type": "address"
        },
        {
          "internalType": "bool",
          "name": "isVerified",
          "type": "bool"
        }
      ],
      "name": "getMarketTotalSupply",
      "outputs": [
        {
          "internalType": "uint256",
          "name": "",
          "type": "uint256"
        }
      ],
      "stateMutability": "view",
      "type": "function"
    },
    {
      "inputs": [
        {
          "internalType": "address",
          "name": "market",
          "type": "address"
        },
        {
          "internalType": "bool",
          "name": "isVerified",
          "type": "bool"
        }
      ],
      "name": "getMarketTotalBorrows",
      "outputs": [
        {
          "internalType": "uint256",
          "name": "",
          "type": "uint256"
        }
      ],
      "stateMutability": "view",
      "type": "function"
    },
    {
      "inputs": [
        {
          "internalType": "address",
          "name": "market",
          "type": "address"
        },
        {
          "internalType": "address",
          "name": "supplier",
          "type": "address"
        },
        {
          "internalType": "bool",
          "name": "isVerified",
          "type": "bool"
        }
      ],
      "name": "getSupplyBalance",
      "outputs": [
        {
          "internalType": "uint256",
          "name": "",
          "type": "uint256"
        }
      ],
      "stateMutability": "view",
      "type": "function"
    },
    {
      "inputs": [
        {
          "internalType": "address",
          "name": "market",
          "type": "address"
        },
        {
          "internalType": "address",
          "name": "borrower",
          "type": "address"
        },
        {
          "internalType": "bool",
          "name": "isVerified",
          "type": "bool"
        }
      ],
      "name": "getBorrowBalance",
      "outputs": [
        {
          "internalType": "uint256",
          "name": "",
          "type": "uint256"
        }
      ],
      "stateMutability": "view",
      "type": "function"
    },
    {
      "inputs": [
        {
          "internalType": "address",
          "name": "_newOwner",
          "type": "address"
        }
      ],
      "name": "transferOwnership",
      "outputs": [],
      "stateMutability": "nonpayable",
      "type": "function"
    },
    {
      "inputs": [],
      "name": "acceptOwnership",
      "outputs": [],
      "stateMutability": "nonpayable",
      "type": "function"
    },
    {
      "inputs": [
        {
          "internalType": "address",
          "name": "market",
          "type": "address"
        },
        {
          "internalType": "bool",
          "name": "isVerified",
          "type": "bool"
        }
      ],
      "name": "addMarket",
      "outputs": [],
      "stateMutability": "nonpayable",
      "type": "function"
    },
    {
      "inputs": [
        {
          "internalType": "uint256",
          "name": "id",
          "type": "uint256"
        },
        {
          "internalType": "bool",
          "name": "isVerified",
          "type": "bool"
        }
      ],
      "name": "removeMarket",
      "outputs": [],
      "stateMutability": "nonpayable",
      "type": "function"
    },
    {
      "inputs": [
        {
          "internalType": "address",
          "name": "_alkAddress",
          "type": "address"
        }
      ],
      "name": "setAlkAddress",
      "outputs": [],
      "stateMutability": "nonpayable",
      "type": "function"
    },
    {
      "inputs": [
        {
          "internalType": "address",
          "name": "_alkemiEarnVerified",
          "type": "address"
        }
      ],
      "name": "setAlkemiEarnVerifiedAddress",
      "outputs": [],
      "stateMutability": "nonpayable",
      "type": "function"
    },
    {
      "inputs": [
        {
          "internalType": "address",
          "name": "_alkemiEarnPublic",
          "type": "address"
        }
      ],
      "name": "setAlkemiEarnPublicAddress",
      "outputs": [],
      "stateMutability": "nonpayable",
      "type": "function"
    },
    {
      "inputs": [
        {
          "internalType": "uint256",
          "name": "_alkRate",
          "type": "uint256"
        }
      ],
      "name": "setAlkRate",
      "outputs": [],
      "stateMutability": "nonpayable",
      "type": "function"
    },
    {
      "inputs": [
        {
          "internalType": "address",
          "name": "user",
          "type": "address"
        }
      ],
      "name": "getAlkRewards",
      "outputs": [
        {
          "internalType": "uint256",
          "name": "",
          "type": "uint256"
        }
      ],
      "stateMutability": "view",
      "type": "function"
    }
  ],
  "bytecode": "0x608060405234801561001057600080fd5b5061389b806100206000396000f3fe608060405234801561001057600080fd5b50600436106102e95760003560e01c806398c2eb2011610191578063d6ef0bef116100e3578063e87702ca11610097578063f7a8fce011610071578063f7a8fce014610719578063f901d24b1461072c578063fe6553821461075757600080fd5b8063e87702ca146106e0578063f2fde38b146106f3578063f41269eb1461070657600080fd5b8063d9b987c7116100c8578063d9b987c714610681578063da7cdc1b14610694578063e6598b8e1461069d57600080fd5b8063d6ef0bef1461065b578063d7981a331461066e57600080fd5b8063b57221be11610145578063cbb40ff71161011f578063cbb40ff7146105bb578063d341df5e146105e1578063d4ee1d901461064857600080fd5b8063b57221be1461058d578063bfa4cc15146105a0578063c72dfcca146105b357600080fd5b8063a638980c11610176578063a638980c14610536578063a740e94014610549578063aaeb966d1461057a57600080fd5b806398c2eb2014610510578063a54890a01461052357600080fd5b806348c6f1f21161024a57806371d6e892116101fe578063802e87f0116101d8578063802e87f014610491578063836c41b8146104ba5780638da5cb5b146104f857600080fd5b806371d6e892146104635780637588f30e1461047657806379ba50971461048957600080fd5b8063654464471161022f57806365446447146103ff578063681aa760146104125780636840f6341461043257600080fd5b806348c6f1f2146103c65780636222c0ee146103ec57600080fd5b80633a43a74a116102a157806342cbb15c1161028657806342cbb15c1461039a57806342ebf043146103a0578063457bb263146103b357600080fd5b80633a43a74a146103745780633fae5d2b1461038757600080fd5b806314352c44116102d257806314352c44146103295780631bee8aba1461034e5780632aecc9aa1461036157600080fd5b80630e195549146102ee5780630fd5aa5b14610314575b600080fd5b6103016102fc3660046134f8565b610764565b6040519081526020015b60405180910390f35b610327610322366004613521565b610892565b005b600d546001600160a01b03165b6040516001600160a01b03909116815260200161030b565b61032761035c366004613558565b610ac9565b600b54610336906001600160a01b031681565b61032761038236600461359f565b610c0d565b610327610395366004613558565b610ebc565b43610301565b6103276103ae3660046134f8565b610f10565b6103276103c1366004613558565b611007565b600b54600c54604080516001600160a01b0393841681529290911660208301520161030b565b6103276103fa3660046135c4565b611056565b61032761040d3660046135dd565b6110a5565b6103016104203660046134f8565b60086020526000908152604090205481565b610301610440366004613631565b600760209081526000938452604080852082529284528284209052825290205481565b6103276104713660046134f8565b6111ce565b600c54610336906001600160a01b031681565b6103276112d9565b61030161049f3660046134f8565b6001600160a01b031660009081526008602052604090205490565b6104e86104c8366004613676565b600160209081526000928352604080842090915290825290205460ff1681565b604051901515815260200161030b565b6009546103369061010090046001600160a01b031681565b61032761051e3660046134f8565b6113ac565b610327610531366004613521565b6114a3565b610327610544366004613521565b6116af565b610301610557366004613631565b600660209081526000938452604080852082529284528284209052825290205481565b610327610588366004613558565b611862565b61030161059b366004613521565b611997565b6103366105ae3660046136ab565b611a4d565b610327611a85565b600d546105cf90600160a01b900460ff1681565b60405160ff909116815260200161030b565b6106246105ef366004613676565b60056020908152600092835260408084209091529082529020546001600160e01b03811690600160e01b900463ffffffff1682565b604080516001600160e01b03909316835263ffffffff90911660208301520161030b565b600a54610336906001600160a01b031681565b610327610669366004613558565b611d2b565b61030161067c366004613521565b611ded565b61032761068f3660046134f8565b611e59565b61030160025481565b6106246106ab366004613676565b60046020908152600092835260408084209091529082529020546001600160e01b03811690600160e01b900463ffffffff1682565b6103016106ee366004613558565b611f50565b6103276107013660046134f8565b612017565b600d54610336906001600160a01b031681565b610301610727366004613558565b6120d1565b61030161073a366004613676565b600360209081526000928352604080842090915290825290205481565b6009546104e89060ff1681565b6001600160a01b038116600090815260086020526040812054818061078761214d565b600160009081526020819052600080516020613846833981519152549294509092505b6001600090815260205260008051602061384683398151915254811015610809576107f5856107f06107e186888c87886001612580565b6107f087898d88896001612add565b612f5f565b945080610801816136ed565b9150506107aa565b5060005b60008080526020527fad3228b676f7d3cd4284a5443f17f1962b36e491b30a40b2405849e597ba5fb55481101561088757600061084a8284613708565b9050610871866107f061086287898d87896000612580565b6107f0888a8e888a6000612add565b955050808061087f906136ed565b91505061080d565b509295945050505050565b80151560008181526004602090815260408083206001600160a01b038716808552908352818420948452600383528184209084529091528120548254909143916108ea908390600160e01b900463ffffffff16612fa1565b90506000811180156108fc5750600083115b15610a7757600061090d8787611997565b9050600061091b8386612fe3565b9050600080831161093b5760405180602001604052806000815250610945565b6109458284613025565b604080516020810190915288546001600160e01b0316815290915060009061096d908361306a565b905060405180604001604052806109a28360000151604051806040016040528060028152602001611a9960f11b815250613096565b6001600160e01b031681526020016109d48860405180604001604052806002815260200161353360f01b8152506130c5565b63ffffffff16815250600460008b15151515815260200190815260200160002060008c6001600160a01b03166001600160a01b0316815260200190815260200160002060008201518160000160006101000a8154816001600160e01b0302191690836001600160e01b03160217905550602082015181600001601c6101000a81548163ffffffff021916908363ffffffff16021790555090505050505050610ac1565b8015610ac157610aa18260405180604001604052806002815260200161353360f01b8152506130c5565b845463ffffffff91909116600160e01b026001600160e01b039091161784555b505050505050565b80151560008181526004602090815260408083206001600160a01b038089168086529184528285208351808601855281546001600160e01b0316815284518087018652978752600686528487209387529285528386209189168087528286529386208054885283519490965293529255825190929015610ac1576000610b4f83836130ed565b90506000610b5e8888886120d1565b90506000610b6c8284613119565b6001600160a01b038916600090815260086020526040902054909150610b929082612f5f565b6001600160a01b03898116600081815260086020908152604091829020859055895182518781529182019590955290810193909352891515606084015291908b16907f8d450e84357d7337f6f7854f6541749795d595eecf49ab57815387a044ea729a906080015b60405180910390a3505050505050505050565b6009546040805180820190915260018152601960f91b60208201529061010090046001600160a01b03163314610c5f5760405162461bcd60e51b8152600401610c569190613720565b60405180910390fd5b508015156000908152602081905260409020548210610c7c575050565b8015156000908152600160209081526040808320918390528220805483919086908110610cab57610cab613775565b6000918252602080832091909101546001600160a01b031683528281019390935260409182018120805460ff1916941515949094179093558315158352908290528120805484908110610d0057610d00613775565b6000918252602090912001546001600160a01b03169050825b821515600090815260208190526040902054610d379060019061378b565b811015610ddf578215156000908152602081905260409020610d5a826001613708565b81548110610d6a57610d6a613775565b6000918252602080832090910154851515835290829052604090912080546001600160a01b039092169183908110610da457610da4613775565b600091825260209091200180546001600160a01b0319166001600160a01b039290921691909117905580610dd7816136ed565b915050610d19565b508115156000908152602081905260409020805480610e0057610e006137a2565b60008281526020808220830160001990810180546001600160a01b031916905590920190925583151582526003815260408083206001600160a01b0385168452909152812055610e4e611a85565b81158015600090815260208190526040808220549282529020546001600160a01b038316917f139636d17ea1ec27949b774fe60dce0d127166fd163c5af4e5f0f4b056427f8491610e9f9190612f5f565b6040805191825285151560208301520160405180910390a2505050565b80151560009081526001602090815260408083206001600160a01b038716845290915290205460ff16610eee57505050565b610ef6611a85565b610f008382610892565b610f0b838383610ac9565b505050565b6009546040805180820190915260018152601960f91b60208201529061010090046001600160a01b03163314610f595760405162461bcd60e51b8152600401610c569190613720565b50600b54604080518082019091526002815261353160f01b6020820152906001600160a01b0383811691161415610fa35760405162461bcd60e51b8152600401610c569190613720565b50604080518082019091526002815261191b60f11b60208201526001600160a01b038216610fe45760405162461bcd60e51b8152600401610c569190613720565b50600b80546001600160a01b0319166001600160a01b0392909216919091179055565b80151560009081526001602090815260408083206001600160a01b038716845290915290205460ff1661103957505050565b611041611a85565b61104b83826114a3565b610f0b838383611862565b6009546040805180820190915260018152601960f91b60208201529061010090046001600160a01b0316331461109f5760405162461bcd60e51b8152600401610c569190613720565b50600255565b6001600160a01b038416158015906110c557506001600160a01b03831615155b80156110d957506001600160a01b03821615155b80156110ed57506001600160a01b03811615155b60405180604001604052806002815260200161191b60f11b815250906111265760405162461bcd60e51b8152600401610c569190613720565b5060095460ff166111c857600980546001600160a01b03808716610100027fffffffffffffffffffffff00000000000000000000000000000000000000000092831617600117909255600b80548684166001600160a01b031991821617909155600c80548685169216919091179055600d805467333651b00e394b70600255741000000000000000000000000000000000000000009216928416929092171790555b50505050565b6001600090815260209081526000805160206138468339815191528054604080518285028101850190915281815261124a93859391929083018282801561123e57602002820191906000526020600020905b81546001600160a01b03168152600190910190602001808311611220575b50505050506001613143565b600080805260209081527fad3228b676f7d3cd4284a5443f17f1962b36e491b30a40b2405849e597ba5fb5805460408051828502810185019091528181526112d69385939192908301828280156112ca57602002820191906000526020600020905b81546001600160a01b031681526001909101906020018083116112ac575b50505050506000613143565b50565b600a546040805180820190915260018152601960f91b6020820152906001600160a01b0316331461131d5760405162461bcd60e51b8152600401610c569190613720565b50600a546009546040516001600160a01b0392831692610100909204909116907f343765429aea5a34b3ff6a3785a98a5abb2597aca87bfbb58632c173d585373a90600090a3600a8054600980547fffffffffffffffffffffff0000000000000000000000000000000000000000ff166101006001600160a01b038416021790556001600160a01b0319169055565b6009546040805180820190915260018152601960f91b60208201529061010090046001600160a01b031633146113f55760405162461bcd60e51b8152600401610c569190613720565b50600d54604080518082019091526002815261353160f01b6020820152906001600160a01b038381169116141561143f5760405162461bcd60e51b8152600401610c569190613720565b50604080518082019091526002815261191b60f11b60208201526001600160a01b0382166114805760405162461bcd60e51b8152600401610c569190613720565b50600d80546001600160a01b0319166001600160a01b0392909216919091179055565b80151560008181526005602090815260408083206001600160a01b038716808552908352818420948452600383528184209084529091528120548254909143916114fb908390600160e01b900463ffffffff16612fa1565b905060008111801561150d5750600083115b1561168657600061151e8787611ded565b9050600061152c8386612fe3565b9050600080831161154c5760405180602001604052806000815250611556565b6115568284613025565b604080516020810190915288546001600160e01b0316815290915060009061157e908361306a565b905060405180604001604052806115b28360000151604051806040016040528060018152602001603360f81b815250613096565b6001600160e01b031681526020016115e388604051806040016040528060018152602001603360f81b8152506130c5565b63ffffffff16815250600560008b15151515815260200190815260200160002060008c6001600160a01b03166001600160a01b0316815260200190815260200160002060008201518160000160006101000a8154816001600160e01b0302191690836001600160e01b03160217905550602082015181600001601c6101000a81548163ffffffff021916908363ffffffff16021790555090505050505050610ac1565b8015610ac157610aa182604051806040016040528060018152602001603360f81b8152506130c5565b6009546040805180820190915260018152601960f91b60208201529061010090046001600160a01b031633146116f85760405162461bcd60e51b8152600401610c569190613720565b5080151560009081526001602090815260408083206001600160a01b03861684528252918290205482518084019093526002835261353160f01b9183019190915260ff161561175a5760405162461bcd60e51b8152600401610c569190613720565b50600d54811515600090815260208181526040918290205482518084019093526002835261323760f01b918301919091529091600160a01b900460ff16116117b55760405162461bcd60e51b8152600401610c569190613720565b508015801560008181526001602081815260408084206001600160a01b038916808652908352818520805460ff1916851790559484528382528084208054938401815580855291842090920180546001600160a01b031916851790555493825290205490917f853501741cbb96ce9d9e735733b1c84178f3871c61e6841c44852e3b91ba5462916118469190612f5f565b6040805191825284151560208301520160405180910390a25050565b80151560008181526005602090815260408083206001600160a01b038089168086529184528285208351808601855281546001600160e01b0316815284518087018652978752600786528487209387529285528386209189168087528286529386208054885283519490965293529255825190929015610ac15760006118e883836130ed565b905060006118f7888888611f50565b905060006119058284613119565b6001600160a01b03891660009081526008602052604090205490915061192b9082612f5f565b6001600160a01b03898116600081815260086020908152604091829020859055895182518781529182019590955290810193909352891515606084015291908b16907f0c2939150378de29858d8c08eef6242f52b1833aeaad3aa3ac8d32e4c8a666a090608001610bfa565b60008115611a1557600b5460405163e89808c760e01b81526001600160a01b0385811660048301529091169063e89808c7906024015b602060405180830381865afa1580156119ea573d6000803e3d6000fd5b505050506040513d601f19601f82011682018060405250810190611a0e91906137b8565b9050611a47565b600c54604051636f14d9a360e01b81526001600160a01b03858116600483015290911690636f14d9a3906024016119cd565b92915050565b60006020528160005260406000208181548110611a6957600080fd5b6000918252602090912001546001600160a01b03169150829050565b6000806000611a9261214d565b6001600090815260208190526000805160206138468339815191525492945090925090815b6001600090815260205260008051602061384683398151915254811015611be55760016000908152602052600080516020613846833981519152805482908110611b0357611b03613775565b60009182526020909120015484516001600160a01b039091169650611b29576000611b57565b611b57600254611b52878481518110611b4457611b44613775565b6020026020010151876131e9565b613223565b6001600160a01b03871660008181527fa15bc60c955c405d20d9149c709e2460f1c2d9a497496a7f46004d1772c3054c6020908152604091829020849055815184815260019181019190915292955090917f825ae2bfeb2248f03c620bd923e872744e498ccb2def9915cb75d1e516df39b5910160405180910390a280611bdd816136ed565b915050611ab7565b5060005b60008080526020527fad3228b676f7d3cd4284a5443f17f1962b36e491b30a40b2405849e597ba5fb554811015610ac15760008080526020527fad3228b676f7d3cd4284a5443f17f1962b36e491b30a40b2405849e597ba5fb5805482908110611c5557611c55613775565b60009182526020909120015484516001600160a01b039091169650611c7b576000611ca0565b600254611ca090611b5287611c908587613708565b81518110611b4457611b44613775565b6001600160a01b03871660008181527f3617319a054d772f909f7c479a2cebe5066e836a939412e32403c99029b92eff6020908152604080832085905580518581529182019290925292955090917f825ae2bfeb2248f03c620bd923e872744e498ccb2def9915cb75d1e516df39b5910160405180910390a280611d23816136ed565b915050611be9565b80151560009081526001602090815260408083206001600160a01b03861684528252918290205482518084019093526002835261031360f41b9183019190915260ff16611d8b5760405162461bcd60e51b8152600401610c569190613720565b50604080516001808252818301909252600091602080830190803683370190505090508281600081518110611dc257611dc2613775565b60200260200101906001600160a01b031690816001600160a01b0316815250506111c8848284613143565b60008115611e2757600b5460405163d05009ab60e01b81526001600160a01b0385811660048301529091169063d05009ab906024016119cd565b600c54604051631ef737e560e21b81526001600160a01b03858116600483015290911690637bdcdf94906024016119cd565b6009546040805180820190915260018152601960f91b60208201529061010090046001600160a01b03163314611ea25760405162461bcd60e51b8152600401610c569190613720565b50600c54604080518082019091526002815261353160f01b6020820152906001600160a01b0383811691161415611eec5760405162461bcd60e51b8152600401610c569190613720565b50604080518082019091526002815261191b60f11b60208201526001600160a01b038216611f2d5760405162461bcd60e51b8152600401610c569190613720565b50600c80546001600160a01b0319166001600160a01b0392909216919091179055565b60008115611fd657600b5460405163118e31b760e01b81526001600160a01b03858116600483015286811660248301529091169063118e31b7906044015b602060405180830381865afa158015611fab573d6000803e3d6000fd5b505050506040513d601f19601f82011682018060405250810190611fcf91906137b8565b9050612010565b600c5460405163118e31b760e01b81526001600160a01b03858116600483015286811660248301529091169063118e31b790604401611f8e565b9392505050565b6009546040805180820190915260018152601960f91b60208201529061010090046001600160a01b031633146120605760405162461bcd60e51b8152600401610c569190613720565b506009546040805180820190915260018152601960f91b6020820152906001600160a01b038381166101009092041614156120ae5760405162461bcd60e51b8152600401610c569190613720565b50600a80546001600160a01b0319166001600160a01b0392909216919091179055565b6000811561211357600b5460405163ba37773160e01b81526001600160a01b03858116600483015286811660248301529091169063ba37773190604401611f8e565b600c5460405163ba37773160e01b81526001600160a01b03858116600483015286811660248301529091169063ba37773190604401611f8e565b60606121656040518060200160405280600081525090565b604080516020808201909252600080825291829052600080516020613846833981519152548280527fad3228b676f7d3cd4284a5443f17f1962b36e491b30a40b2405849e597ba5fb5549192916121bc9190612f5f565b67ffffffffffffffff8111156121d4576121d46137d1565b60405190808252806020026020018201604052801561221457816020015b6040805160208101909152600081528152602001906001900390816121f25790505b5090506000806122306040518060200160405280600081525090565b60016000908152602081905260008051602061384683398151915254815b6001600090815260205260008051602061384683398151915254811015612421576001600090815260205260008051602061384683398151915280548290811061229a5761229a613775565b600091825260209091200154600b5460405163e89808c760e01b81526001600160a01b03928316600482018190529550612390929091169063e89808c7906024015b602060405180830381865afa1580156122f9573d6000803e3d6000fd5b505050506040513d601f19601f8201168201806040525081019061231d91906137b8565b600b546040516317a6948f60e21b81526001600160a01b03878116600483015290911690635e9a523c90602401602060405180830381865afa158015612367573d6000803e3d6000fd5b505050506040513d601f19601f8201168201806040525081019061238b91906137b8565b612fe3565b600b5460405163d05009ab60e01b81526001600160a01b0386811660048301529298506123c9929091169063d05009ab906024016122dc565b945060405180602001604052806123e08888612f5f565b8152509350838782815181106123f8576123f8613775565b602002602001018190525061240d888561306a565b975080612419816136ed565b91505061224e565b5060005b60008080526020527fad3228b676f7d3cd4284a5443f17f1962b36e491b30a40b2405849e597ba5fb5548110156125705760008080526020527fad3228b676f7d3cd4284a5443f17f1962b36e491b30a40b2405849e597ba5fb580548290811061249157612491613775565b600091825260209091200154600c54604051636f14d9a360e01b81526001600160a01b039283166004820181905295506124d79290911690636f14d9a3906024016122dc565b600c54604051631ef737e560e21b81526001600160a01b0386811660048301529298506125109290911690637bdcdf94906024016122dc565b945060405180602001604052806125278888612f5f565b9052935083876125378385613708565b8151811061254757612547613775565b602002602001018190525061255c888561306a565b975080612568816136ed565b915050612425565b5094989597509495505050505050565b60008060008860000151116125965760006125bf565b6125bf600254611b528988815181106125b1576125b1613775565b60200260200101518b6131e9565b83151560009081526004602090815260408083209183905282208054939450919290918391889081106125f4576125f4613775565b6000918252602080832091909101546001600160a01b0316835282810193909352604091820181208251808401909352546001600160e01b0381168352600160e01b900463ffffffff1692820192909252915061265c435b836020015163ffffffff16612fa1565b1180156126695750600082115b156127cf57604080516020808201835283516001600160e01b031682528615156000908152908190529182208054612756929184916126ce91908b9081106126b3576126b3613775565b6000918252602090912001546001600160a01b031689611997565b116126e8576040518060200160405280600081525061306a565b612751612709612703435b876020015163ffffffff16612fa1565b87612fe3565b8815156000908152602081905260409020805461274c91908c90811061273157612731613775565b6000918252602090912001546001600160a01b03168a611997565b613025565b61306a565b9050604051806040016040528061278b8360000151604051806040016040528060028152602001611a9960f11b815250613096565b6001600160e01b031681526020016127be435b60405180604001604052806002815260200161353360f01b8152506130c5565b63ffffffff168152509150506127f5565b60006127da4361264c565b11156127f5576127e94361279e565b63ffffffff1660208201525b83801561286f5750604080516020808201835286151560009081526006825283812091819052928320805483929185918b90811061283557612835613775565b60009182526020808320909101546001600160a01b0390811684528382019490945260409283018220938e16825292909252902054905251115b15612a0f57600b5484151560009081526020819052604090208054612a06926001600160a01b03169163ba377731918b91908a9081106128b1576128b1613775565b60009182526020909120015460405160e084901b7fffffffff000000000000000000000000000000000000000000000000000000001681526001600160a01b03928316600482015291166024820152604401602060405180830381865afa158015612920573d6000803e3d6000fd5b505050506040513d601f19601f8201168201806040525081019061294491906137b8565b604080516020808201835285516001600160e01b0316825282518082018452891515600090815260068352848120928190529384208054612a019592938493909290918e90811061299757612997613775565b9060005260206000200160009054906101000a90046001600160a01b03166001600160a01b03166001600160a01b0316815260200190815260200160002060008e6001600160a01b03166001600160a01b03168152602001908152602001600020548152506130ed565b613119565b92505050612ad3565b83158015612a8a5750604080516020808201835286151560009081526006825283812091819052928320805483929185918b908110612a5057612a50613775565b60009182526020808320909101546001600160a01b0390811684528382019490945260409283018220938e16825292909252902054905251115b15612acc57600c5484151560009081526020819052604090208054612a06926001600160a01b03169163ba377731918b91908a9081106128b1576128b1613775565b6000925050505b9695505050505050565b6000806000886000015111612af3576000612b0e565b612b0e600254611b528988815181106125b1576125b1613775565b8315156000908152600560209081526040808320918390528220805493945091929091839188908110612b4357612b43613775565b6000918252602080832091909101546001600160a01b0316835282810193909352604091820181208251808401909352546001600160e01b0381168352600160e01b900463ffffffff16928201929092529150612b9f4361264c565b118015612bac5750600082115b15612cda57604080516020808201835283516001600160e01b031682528615156000908152908190529182208054612c7d92918491612c1191908b908110612bf657612bf6613775565b6000918252602090912001546001600160a01b031689611ded565b11612c2b576040518060200160405280600081525061306a565b612751612c3a612703436126f3565b8815156000908152602081905260409020805461274c91908c908110612c6257612c62613775565b6000918252602090912001546001600160a01b03168a611ded565b90506040518060400160405280612cb28360000151604051806040016040528060028152602001611a9960f11b815250613096565b6001600160e01b03168152602001612cc94361279e565b63ffffffff16815250915050612d00565b6000612ce54361264c565b1115612d0057612cf44361279e565b63ffffffff1660208201525b604080516020808201835286151560009081526007825283812091819052928320805483929185918b908110612d3857612d38613775565b60009182526020808320909101546001600160a01b0390811684528382019490945260409283018220938e16825292909252902054905251118015612d7a5750835b15612ea257600b5484151560009081526020819052604090208054612a06926001600160a01b03169163118e31b7918b91908a908110612dbc57612dbc613775565b60009182526020909120015460405160e084901b7fffffffff000000000000000000000000000000000000000000000000000000001681526001600160a01b03928316600482015291166024820152604401602060405180830381865afa158015612e2b573d6000803e3d6000fd5b505050506040513d601f19601f82011682018060405250810190612e4f91906137b8565b604080516020808201835285516001600160e01b0316825282518082018452891515600090815260078352848120928190529384208054612a019592938493909290918e90811061299757612997613775565b604080516020808201835286151560009081526007825283812091819052928320805483929185918b908110612eda57612eda613775565b60009182526020808320909101546001600160a01b0390811684528382019490945260409283018220938e16825292909252902054905251118015612f1d575083155b15612acc57600c5484151560009081526020819052604090208054612a06926001600160a01b03169163118e31b7918b91908a908110612dbc57612dbc613775565b600061201083836040518060400160405280601181526020017f6164646974696f6e206f766572666c6f7700000000000000000000000000000081525061323c565b600061201083836040518060400160405280601581526020017f7375627472616374696f6e20756e646572666c6f770000000000000000000000815250613276565b600061201083836040518060400160405280601781526020017f6d756c7469706c69636174696f6e206f766572666c6f770000000000000000008152506132ad565b604080516020810190915260008152604051806020016040528061306161305b866ec097ce7bc90715b34b9f1000000000612fe3565b85613300565b90529392505050565b604080516020810190915260008152604051806020016040528061306185600001518560000151612f5f565b600081600160e01b84106130bd5760405162461bcd60e51b8152600401610c569190613720565b509192915050565b60008164010000000084106130bd5760405162461bcd60e51b8152600401610c569190613720565b604080516020810190915260008152604051806020016040528061306185600001518560000151612fa1565b60006ec097ce7bc90715b34b9f1000000000613139848460000151612fe3565b61201091906137e7565b60005b82518110156111c857600083828151811061316357613163613775565b602002602001015190506131778184610892565b613182818685610ac9565b61318c81846114a3565b613197818685611862565b6001600160a01b0385166000908152600860205260409020546131bd9086908386613342565b6001600160a01b03861660009081526008602052604090205550806131e1816136ed565b915050613146565b604080516020810190915260008152604051806020016040528061306161321c8660000151670de0b6b3a7640000612fe3565b8551613300565b6000670de0b6b3a7640000613139848460000151612fe3565b6000806132498486613708565b9050828582101561326d5760405162461bcd60e51b8152600401610c569190613720565b50949350505050565b6000818484111561329a5760405162461bcd60e51b8152600401610c569190613720565b506132a5838561378b565b949350505050565b60008315806132ba575082155b156132c757506000612010565b60006132d38486613809565b9050836132e086836137e7565b14839061326d5760405162461bcd60e51b8152600401610c569190613720565b600061201083836040518060400160405280600e81526020017f646976696465206279207a65726f0000000000000000000000000000000000008152506134b0565b600083156134a757600061335e600d546001600160a01b031690565b6040516370a0823160e01b81523060048201529091506000906001600160a01b038316906370a08231906024016020604051808303816000875af11580156133aa573d6000803e3d6000fd5b505050506040513d601f19601f820116820180604052508101906133ce91906137b8565b90508086116134a45760405163a9059cbb60e01b81526001600160a01b0388811660048301526024820188905283169063a9059cbb906044016020604051808303816000875af1158015613426573d6000803e3d6000fd5b505050506040513d601f19601f8201168201806040525081019061344a9190613828565b50604080518781526001600160a01b038781166020830152861515828401529151918916917f2ec82ee7fb64ec4aa5e2f24783f00a11fb953f0a9ed5fcc054dd2ed033b569729181900360600190a26000925050506132a5565b50505b50919392505050565b600081836134d15760405162461bcd60e51b8152600401610c569190613720565b506132a583856137e7565b80356001600160a01b03811681146134f357600080fd5b919050565b60006020828403121561350a57600080fd5b612010826134dc565b80151581146112d657600080fd5b6000806040838503121561353457600080fd5b61353d836134dc565b9150602083013561354d81613513565b809150509250929050565b60008060006060848603121561356d57600080fd5b613576846134dc565b9250613584602085016134dc565b9150604084013561359481613513565b809150509250925092565b600080604083850312156135b257600080fd5b82359150602083013561354d81613513565b6000602082840312156135d657600080fd5b5035919050565b600080600080608085870312156135f357600080fd5b6135fc856134dc565b935061360a602086016134dc565b9250613618604086016134dc565b9150613626606086016134dc565b905092959194509250565b60008060006060848603121561364657600080fd5b833561365181613513565b925061365f602085016134dc565b915061366d604085016134dc565b90509250925092565b6000806040838503121561368957600080fd5b823561369481613513565b91506136a2602084016134dc565b90509250929050565b600080604083850312156136be57600080fd5b82356136c981613513565b946020939093013593505050565b634e487b7160e01b600052601160045260246000fd5b6000600019821415613701576137016136d7565b5060010190565b6000821982111561371b5761371b6136d7565b500190565b600060208083528351808285015260005b8181101561374d57858101830151858201604001528201613731565b8181111561375f576000604083870101525b50601f01601f1916929092016040019392505050565b634e487b7160e01b600052603260045260246000fd5b60008282101561379d5761379d6136d7565b500390565b634e487b7160e01b600052603160045260246000fd5b6000602082840312156137ca57600080fd5b5051919050565b634e487b7160e01b600052604160045260246000fd5b60008261380457634e487b7160e01b600052601260045260246000fd5b500490565b6000816000190483118215151615613823576138236136d7565b500290565b60006020828403121561383a57600080fd5b81516120108161351356feada5013122d395ba3c54772283fb069b10426056ef8ca54750cb9bb552a59e7da264697066735822122075782608cda4de74285e4c712f33442a8e8e1f26a825ec78c97bf20ce9d4265564736f6c634300080b0033",
  "immutableReferences": {},
  "source": "// SPDX-License-Identifier: MIT\npragma solidity 0.8.11;\n\nimport \"./RewardControlStorage.sol\";\nimport \"./RewardControlInterface.sol\";\nimport \"./ExponentialNoError.sol\";\nimport \"./EIP20Interface.sol\";\nimport {Error} from \"./ErrorReporter.sol\";\n\ncontract RewardControl is\n    RewardControlStorage,\n    RewardControlInterface,\n    ExponentialNoError\n{\n    /**\n     * Events\n     */\n\n    /// @notice Emitted when a new ALK speed is calculated for a market\n    event AlkSpeedUpdated(\n        address indexed market,\n        uint256 newSpeed,\n        bool isVerified\n    );\n\n    /// @notice Emitted when ALK is distributed to a supplier\n    event DistributedSupplierAlk(\n        address indexed market,\n        address indexed supplier,\n        uint256 supplierDelta,\n        uint256 supplierAccruedAlk,\n        uint256 supplyIndexMantissa,\n        bool isVerified\n    );\n\n    /// @notice Emitted when ALK is distributed to a borrower\n    event DistributedBorrowerAlk(\n        address indexed market,\n        address indexed borrower,\n        uint256 borrowerDelta,\n        uint256 borrowerAccruedAlk,\n        uint256 borrowIndexMantissa,\n        bool isVerified\n    );\n\n    /// @notice Emitted when ALK is transferred to a participant\n    event TransferredAlk(\n        address indexed participant,\n        uint256 participantAccrued,\n        address market,\n        bool isVerified\n    );\n\n    /// @notice Emitted when the owner of the contract is updated\n    event OwnerUpdate(address indexed owner, address indexed newOwner);\n\n    /// @notice Emitted when a market is added\n    event MarketAdded(\n        address indexed market,\n        uint256 numberOfMarkets,\n        bool isVerified\n    );\n\n    /// @notice Emitted when a market is removed\n    event MarketRemoved(\n        address indexed market,\n        uint256 numberOfMarkets,\n        bool isVerified\n    );\n\n    /**\n     * Constants\n     */\n\n    /**\n     * Constructor\n     */\n\n    /**\n     * @notice `RewardControl` is the contract to calculate and distribute reward tokens\n     * @notice This contract uses Openzeppelin Upgrades plugin to make use of the upgradeability functionality using proxies\n     * @notice Hence this contract has an 'initializer' in place of a 'constructor'\n     * @notice Make sure to add new global variables only in a derived contract of RewardControlStorage, inherited by this contract\n     * @notice Also make sure to do extensive testing while modifying any structs and enums during an upgrade\n     */\n    function initializer(\n        address _owner,\n        address _alkemiEarnVerified,\n        address _alkemiEarnPublic,\n        address _alkAddress\n    ) public {\n        require(\n            _owner != address(0) &&\n                _alkemiEarnVerified != address(0) &&\n                _alkemiEarnPublic != address(0) &&\n                _alkAddress != address(0),\n                Error.ADDRESS_CANNOT_BE_0X00\n        );\n        if (initializationDone == false) {\n            initializationDone = true;\n            owner = _owner;\n            alkemiEarnVerified = AlkemiVerifiedInterface(_alkemiEarnVerified);\n            alkemiEarnPublic = AlkemiPublicInterface(_alkemiEarnPublic);\n            alkAddress = _alkAddress;\n            // Total Liquidity rewards for 4 years = 70,000,000\n            // Liquidity per year = 70,000,000/4 = 17,500,000\n            // Divided by blocksPerYear (assuming 13.3 seconds avg. block time) = 17,500,000/2,371,128 = 7.380453522542860000\n            // 7380453522542860000 (Tokens scaled by token decimals of 18) divided by 2 (half for lending and half for borrowing)\n            alkRate = 3690226761271430000;\n            MAXIMUM_NUMBER_OF_MARKETS = 16;\n        }\n    }\n\n    /**\n     * Modifiers\n     */\n\n    /**\n     * @notice Make sure that the sender is only the owner of the contract\n     */\n    modifier onlyOwner() {\n        require(msg.sender == owner, Error.UNAUTHORIZED);\n        _;\n    }\n\n    /**\n     * Public functions\n     */\n\n    /**\n     * @notice Refresh ALK supply index for the specified market and supplier\n     * @param market The market whose supply index to update\n     * @param supplier The address of the supplier to distribute ALK to\n     * @param isVerified Specifies if the market is from verified or public protocol\n     */\n    function refreshAlkSupplyIndex(\n        address market,\n        address supplier,\n        bool isVerified\n    ) external {\n        if (!allMarketsIndex[isVerified][market]) {\n            return;\n        }\n        refreshAlkSpeeds();\n        updateAlkSupplyIndex(market, isVerified);\n        distributeSupplierAlk(market, supplier, isVerified);\n    }\n\n    /**\n     * @notice Refresh ALK borrow index for the specified market and borrower\n     * @param market The market whose borrow index to update\n     * @param borrower The address of the borrower to distribute ALK to\n     * @param isVerified Specifies if the market is from verified or public protocol\n     */\n    function refreshAlkBorrowIndex(\n        address market,\n        address borrower,\n        bool isVerified\n    ) external {\n        if (!allMarketsIndex[isVerified][market]) {\n            return;\n        }\n        refreshAlkSpeeds();\n        updateAlkBorrowIndex(market, isVerified);\n        distributeBorrowerAlk(market, borrower, isVerified);\n    }\n\n    /**\n     * @notice Claim all the ALK accrued by holder in all markets\n     * @param holder The address to claim ALK for\n     */\n    function claimAlk(address holder) external {\n        claimAlk(holder, allMarkets[true], true);\n        claimAlk(holder, allMarkets[false], false);\n    }\n\n    /**\n     * @notice Claim all the ALK accrued by holder by refreshing the indexes on the specified market only\n     * @param holder The address to claim ALK for\n     * @param market The address of the market to refresh the indexes for\n     * @param isVerified Specifies if the market is from verified or public protocol\n     */\n    function claimAlk(\n        address holder,\n        address market,\n        bool isVerified\n    ) external {\n        require(allMarketsIndex[isVerified][market], Error.MARKET_NOT_SUPPORTED);\n        address[] memory markets = new address[](1);\n        markets[0] = market;\n        claimAlk(holder, markets, isVerified);\n    }\n\n    /**\n     * Private functions\n     */\n\n    /**\n     * @notice Recalculate and update ALK speeds for all markets\n     */\n    function refreshMarketLiquidity()\n        internal\n        view\n        returns (Exp[] memory, Exp memory)\n    {\n        Exp memory totalLiquidity = Exp({mantissa: 0});\n        Exp[] memory marketTotalLiquidity = new Exp[](\n            add_(allMarkets[true].length, allMarkets[false].length)\n        );\n        uint256 currentMarketTotalSupply;\n        uint256 currentMarketTotalBorrows;\n        Exp memory currentMarketTotalLiquidity;\n        address currentMarket;\n        uint256 verifiedMarketsLength = allMarkets[true].length;\n        for (uint256 i = 0; i < allMarkets[true].length; i++) {\n            currentMarket = allMarkets[true][i];\n            currentMarketTotalSupply = mul_(\n                alkemiEarnVerified.getMarketTotalSupplyVerified(currentMarket),\n                alkemiEarnVerified.assetPrices(currentMarket)\n            );\n            currentMarketTotalBorrows = mul_(\n                alkemiEarnVerified.getMarketTotalBorrowVerified(currentMarket),\n                alkemiEarnVerified.assetPrices(currentMarket)\n            );\n            currentMarketTotalLiquidity = Exp({\n                mantissa: add_(\n                    currentMarketTotalSupply,\n                    currentMarketTotalBorrows\n                )\n            });\n            marketTotalLiquidity[i] = currentMarketTotalLiquidity;\n            totalLiquidity = add_(totalLiquidity, currentMarketTotalLiquidity);\n        }\n\n        for (uint256 j = 0; j < allMarkets[false].length; j++) {\n            currentMarket = allMarkets[false][j];\n            currentMarketTotalSupply = mul_(\n               alkemiEarnPublic.getMarketTotalSupplyPublic(currentMarket),\n               alkemiEarnVerified.assetPrices(currentMarket)\n            );\n            currentMarketTotalBorrows = mul_(\n                alkemiEarnPublic.getMarketTotalBorrowPublic(currentMarket),\n                alkemiEarnVerified.assetPrices(currentMarket)\n            );\n            currentMarketTotalLiquidity = Exp({\n                mantissa: add_(\n                    currentMarketTotalSupply,\n                    currentMarketTotalBorrows\n                )\n            });\n            marketTotalLiquidity[\n                verifiedMarketsLength + j\n            ] = currentMarketTotalLiquidity;\n            totalLiquidity = add_(totalLiquidity, currentMarketTotalLiquidity);\n        }\n        return (marketTotalLiquidity, totalLiquidity);\n    }\n\n    /**\n     * @notice Recalculate and update ALK speeds for all markets\n     */\n    function refreshAlkSpeeds() public {\n        address currentMarket;\n        (\n            Exp[] memory marketTotalLiquidity,\n            Exp memory totalLiquidity\n        ) = refreshMarketLiquidity();\n        uint256 newSpeed;\n        uint256 verifiedMarketsLength = allMarkets[true].length;\n        for (uint256 i = 0; i < allMarkets[true].length; i++) {\n            currentMarket = allMarkets[true][i];\n            newSpeed = totalLiquidity.mantissa > 0\n                ? mul_(alkRate, div_(marketTotalLiquidity[i], totalLiquidity))\n                : 0;\n            alkSpeeds[true][currentMarket] = newSpeed;\n            emit AlkSpeedUpdated(currentMarket, newSpeed, true);\n        }\n\n        for (uint256 j = 0; j < allMarkets[false].length; j++) {\n            currentMarket = allMarkets[false][j];\n            newSpeed = totalLiquidity.mantissa > 0\n                ? mul_(\n                    alkRate,\n                    div_(\n                        marketTotalLiquidity[verifiedMarketsLength + j],\n                        totalLiquidity\n                    )\n                )\n                : 0;\n            alkSpeeds[false][currentMarket] = newSpeed;\n            emit AlkSpeedUpdated(currentMarket, newSpeed, false);\n        }\n    }\n\n    /**\n     * @notice Accrue ALK to the market by updating the supply index\n     * @param market The market whose supply index to update\n     * @param isVerified Verified / Public protocol\n     */\n    function updateAlkSupplyIndex(address market, bool isVerified) public {\n        MarketState storage supplyState = alkSupplyState[isVerified][market];\n        uint256 marketSpeed = alkSpeeds[isVerified][market];\n        uint256 blockNumber = getBlockNumber();\n        uint256 deltaBlocks = sub_(blockNumber, uint256(supplyState.block));\n        if (deltaBlocks > 0 && marketSpeed > 0) {\n            uint256 marketTotalSupply = getMarketTotalSupply(\n                market,\n                isVerified\n            );\n            uint256 supplyAlkAccrued = mul_(deltaBlocks, marketSpeed);\n            Double memory ratio = marketTotalSupply > 0\n                ? fraction(supplyAlkAccrued, marketTotalSupply)\n                : Double({mantissa: 0});\n            Double memory index = add_(\n                Double({mantissa: supplyState.index}),\n                ratio\n            );\n            alkSupplyState[isVerified][market] = MarketState({\n                index: safe224(index.mantissa, Error.NEW_INDEX_EXCEEDS_224_BITS),\n                block: safe32(blockNumber, Error.BLOCK_NUMBER_EXCEEDS_32_BITS)\n            });\n        } else if (deltaBlocks > 0) {\n            supplyState.block = safe32(\n                blockNumber,\n                Error.BLOCK_NUMBER_EXCEEDS_32_BITS\n            );\n        }\n    }\n\n    /**\n     * @notice Accrue ALK to the market by updating the borrow index\n     * @param market The market whose borrow index to update\n     * @param isVerified Verified / Public protocol\n     */\n    function updateAlkBorrowIndex(address market, bool isVerified) public {\n        MarketState storage borrowState = alkBorrowState[isVerified][market];\n        uint256 marketSpeed = alkSpeeds[isVerified][market];\n        uint256 blockNumber = getBlockNumber();\n        uint256 deltaBlocks = sub_(blockNumber, uint256(borrowState.block));\n        if (deltaBlocks > 0 && marketSpeed > 0) {\n            uint256 marketTotalBorrows = getMarketTotalBorrows(\n                market,\n                isVerified\n            );\n            uint256 borrowAlkAccrued = mul_(deltaBlocks, marketSpeed);\n            Double memory ratio = marketTotalBorrows > 0\n                ? fraction(borrowAlkAccrued, marketTotalBorrows)\n                : Double({mantissa: 0});\n            Double memory index = add_(\n                Double({mantissa: borrowState.index}),\n                ratio\n            );\n            alkBorrowState[isVerified][market] = MarketState({\n                index: safe224(index.mantissa, Error.INTEGER_OVERFLOW),\n                block: safe32(blockNumber, Error.INTEGER_OVERFLOW)\n            });\n        } else if (deltaBlocks > 0) {\n            borrowState.block = safe32(\n                blockNumber,\n                Error.INTEGER_OVERFLOW\n            );\n        }\n    }\n\n    /**\n     * @notice Calculate ALK accrued by a supplier and add it on top of alkAccrued[supplier]\n     * @param market The market in which the supplier is interacting\n     * @param supplier The address of the supplier to distribute ALK to\n     * @param isVerified Verified / Public protocol\n     */\n    function distributeSupplierAlk(\n        address market,\n        address supplier,\n        bool isVerified\n    ) public {\n        MarketState storage supplyState = alkSupplyState[isVerified][market];\n        Double memory supplyIndex = Double({mantissa: supplyState.index});\n        Double memory supplierIndex = Double({\n            mantissa: alkSupplierIndex[isVerified][market][supplier]\n        });\n        alkSupplierIndex[isVerified][market][supplier] = supplyIndex.mantissa;\n\n        if (supplierIndex.mantissa > 0) {\n            Double memory deltaIndex = sub_(supplyIndex, supplierIndex);\n            uint256 supplierBalance = getSupplyBalance(\n                market,\n                supplier,\n                isVerified\n            );\n            uint256 supplierDelta = mul_(supplierBalance, deltaIndex);\n            alkAccrued[supplier] = add_(alkAccrued[supplier], supplierDelta);\n            emit DistributedSupplierAlk(\n                market,\n                supplier,\n                supplierDelta,\n                alkAccrued[supplier],\n                supplyIndex.mantissa,\n                isVerified\n            );\n        }\n    }\n\n    /**\n     * @notice Calculate ALK accrued by a borrower and add it on top of alkAccrued[borrower]\n     * @param market The market in which the borrower is interacting\n     * @param borrower The address of the borrower to distribute ALK to\n     * @param isVerified Verified / Public protocol\n     */\n    function distributeBorrowerAlk(\n        address market,\n        address borrower,\n        bool isVerified\n    ) public {\n        MarketState storage borrowState = alkBorrowState[isVerified][market];\n        Double memory borrowIndex = Double({mantissa: borrowState.index});\n        Double memory borrowerIndex = Double({\n            mantissa: alkBorrowerIndex[isVerified][market][borrower]\n        });\n        alkBorrowerIndex[isVerified][market][borrower] = borrowIndex.mantissa;\n\n        if (borrowerIndex.mantissa > 0) {\n            Double memory deltaIndex = sub_(borrowIndex, borrowerIndex);\n            uint256 borrowerBalance = getBorrowBalance(\n                market,\n                borrower,\n                isVerified\n            );\n            uint256 borrowerDelta = mul_(borrowerBalance, deltaIndex);\n            alkAccrued[borrower] = add_(alkAccrued[borrower], borrowerDelta);\n            emit DistributedBorrowerAlk(\n                market,\n                borrower,\n                borrowerDelta,\n                alkAccrued[borrower],\n                borrowIndex.mantissa,\n                isVerified\n            );\n        }\n    }\n\n    /**\n     * @notice Claim all the ALK accrued by holder in the specified markets\n     * @param holder The address to claim ALK for\n     * @param markets The list of markets to claim ALK in\n     * @param isVerified Verified / Public protocol\n     */\n    function claimAlk(\n        address holder,\n        address[] memory markets,\n        bool isVerified\n    ) internal {\n        for (uint256 i = 0; i < markets.length; i++) {\n            address market = markets[i];\n\n            updateAlkSupplyIndex(market, isVerified);\n            distributeSupplierAlk(market, holder, isVerified);\n\n            updateAlkBorrowIndex(market, isVerified);\n            distributeBorrowerAlk(market, holder, isVerified);\n\n            alkAccrued[holder] = transferAlk(\n                holder,\n                alkAccrued[holder],\n                market,\n                isVerified\n            );\n        }\n    }\n\n    /**\n     * @notice Transfer ALK to the participant\n     * @dev Note: If there is not enough ALK, we do not perform the transfer all.\n     * @param participant The address of the participant to transfer ALK to\n     * @param participantAccrued The amount of ALK to (possibly) transfer\n     * @param market Market for which ALK is transferred\n     * @param isVerified Verified / Public Protocol\n     * @return The amount of ALK which was NOT transferred to the participant\n     */\n    function transferAlk(\n        address participant,\n        uint256 participantAccrued,\n        address market,\n        bool isVerified\n    ) internal returns (uint256) {\n        if (participantAccrued > 0) {\n            EIP20Interface alk = EIP20Interface(getAlkAddress());\n            uint256 alkRemaining = alk.balanceOf(address(this));\n            if (participantAccrued <= alkRemaining) {\n                alk.transfer(participant, participantAccrued);\n                emit TransferredAlk(\n                    participant,\n                    participantAccrued,\n                    market,\n                    isVerified\n                );\n                return 0;\n            }\n        }\n        return participantAccrued;\n    }\n\n    /**\n     * Getters\n     */\n\n    /**\n     * @notice Get the current block number\n     * @return The current block number\n     */\n    function getBlockNumber() public view returns (uint256) {\n        return block.number;\n    }\n\n    /**\n     * @notice Get the current accrued ALK for a participant\n     * @param participant The address of the participant\n     * @return The amount of accrued ALK for the participant\n     */\n    function getAlkAccrued(address participant) public view returns (uint256) {\n        return alkAccrued[participant];\n    }\n\n    /**\n     * @notice Get the address of the ALK token\n     * @return The address of ALK token\n     */\n    function getAlkAddress() public view returns (address) {\n        return alkAddress;\n    }\n\n    /**\n     * @notice Get the address of the underlying AlkemiEarnVerified and AlkemiEarnPublic contract\n     * @return The address of the underlying AlkemiEarnVerified and AlkemiEarnPublic contract\n     */\n    function getAlkemiEarnAddress() public view returns (address, address) {\n        return (address(alkemiEarnVerified), address(alkemiEarnPublic));\n    }\n\n\n    /**\n     * @notice Get market total supply from the AlkemiEarnVerified / AlkemiEarnPublic contract\n     * @param market The address of the market\n     * @param isVerified Verified / Public protocol\n     * @return Market total supply for the given market\n     */\n    function getMarketTotalSupply(address market, bool isVerified)\n        public\n        view\n        returns (uint256)\n    {\n        if(isVerified){\n            return alkemiEarnVerified.getMarketTotalSupplyVerified(market);\n        }\n        else{\n            return alkemiEarnPublic.getMarketTotalSupplyPublic(market);\n        }\n    }\n\n    /**\n     * @notice Get market total borrows from the AlkemiEarnVerified contract\n     * @param market The address of the market\n     * @param isVerified Verified / Public protocol\n     * @return Market total borrows for the given market\n     */\n    function getMarketTotalBorrows(address market, bool isVerified)\n        public\n        view\n        returns (uint256)\n    {\n         if(isVerified){\n            return alkemiEarnVerified.getMarketTotalBorrowVerified(market);\n        }\n        else{\n            return alkemiEarnPublic.getMarketTotalBorrowPublic(market);\n        }\n    }\n\n    /**\n     * @notice Get supply balance of the specified market and supplier\n     * @param market The address of the market\n     * @param supplier The address of the supplier\n     * @param isVerified Verified / Public protocol\n     * @return Supply balance of the specified market and supplier\n     */\n    function getSupplyBalance(\n        address market,\n        address supplier,\n        bool isVerified\n    ) public view returns (uint256) {\n        if (isVerified) {\n            return alkemiEarnVerified.getSupplyBalance(supplier, market);\n        } else {\n            return alkemiEarnPublic.getSupplyBalance(supplier, market);\n        }\n    }\n\n    /**\n     * @notice Get borrow balance of the specified market and borrower\n     * @param market The address of the market\n     * @param borrower The address of the borrower\n     * @param isVerified Verified / Public protocol\n     * @return Borrow balance of the specified market and borrower\n     */\n    function getBorrowBalance(\n        address market,\n        address borrower,\n        bool isVerified\n    ) public view returns (uint256) {\n        if (isVerified) {\n            return alkemiEarnVerified.getBorrowBalance(borrower, market);\n        } else {\n            return alkemiEarnPublic.getBorrowBalance(borrower, market);\n        }\n    }\n\n    /**\n     * Admin functions\n     */\n\n    /**\n     * @notice Transfer the ownership of this contract to the new owner. The ownership will not be transferred until the new owner accept it.\n     * @param _newOwner The address of the new owner\n     */\n    function transferOwnership(address _newOwner) external onlyOwner {\n        require(_newOwner != owner, Error.UNAUTHORIZED);\n        newOwner = _newOwner;\n    }\n\n    /**\n     * @notice Accept the ownership of this contract by the new owner\n     */\n    function acceptOwnership() external {\n        require(\n            msg.sender == newOwner,\n            Error.UNAUTHORIZED\n        );\n        emit OwnerUpdate(owner, newOwner);\n        owner = newOwner;\n        newOwner = address(0);\n    }\n\n    /**\n     * @notice Add new market to the reward program\n     * @param market The address of the new market to be added to the reward program\n     * @param isVerified Verified / Public protocol\n     */\n    function addMarket(address market, bool isVerified) external onlyOwner {\n        require(!allMarketsIndex[isVerified][market], Error.SAME_ADDRESS);\n        require(\n            allMarkets[isVerified].length < uint256(MAXIMUM_NUMBER_OF_MARKETS),\n            Error.EXCEEDED_MAX_MARKETS_ALLOWED\n        );\n        allMarketsIndex[isVerified][market] = true;\n        allMarkets[isVerified].push(market);\n        emit MarketAdded(\n            market,\n            add_(allMarkets[isVerified].length, allMarkets[!isVerified].length),\n            isVerified\n        );\n    }\n\n    /**\n     * @notice Remove a market from the reward program based on array index\n     * @param id The index of the `allMarkets` array to be removed\n     * @param isVerified Verified / Public protocol\n     */\n    function removeMarket(uint256 id, bool isVerified) external onlyOwner {\n        if (id >= allMarkets[isVerified].length) {\n            return;\n        }\n        allMarketsIndex[isVerified][allMarkets[isVerified][id]] = false;\n        address removedMarket = allMarkets[isVerified][id];\n\n        for (uint256 i = id; i < allMarkets[isVerified].length - 1; i++) {\n            allMarkets[isVerified][i] = allMarkets[isVerified][i + 1];\n        }\n        allMarkets[isVerified].pop();\n        // reset the ALK speeds for the removed market and refresh ALK speeds\n        alkSpeeds[isVerified][removedMarket] = 0;\n        refreshAlkSpeeds();\n        emit MarketRemoved(\n            removedMarket,\n            add_(allMarkets[isVerified].length, allMarkets[!isVerified].length),\n            isVerified\n        );\n    }\n\n    /**\n     * @notice Set ALK token address\n     * @param _alkAddress The ALK token address\n     */\n    function setAlkAddress(address _alkAddress) external onlyOwner {\n        require(alkAddress != _alkAddress, Error.SAME_ADDRESS);\n        require(_alkAddress != address(0), Error.ADDRESS_CANNOT_BE_0X00);\n        alkAddress = _alkAddress;\n    }\n\n    /**\n     * @notice Set AlkemiEarnVerified contract address\n     * @param _alkemiEarnVerified The AlkemiEarnVerified contract address\n     */\n    function setAlkemiEarnVerifiedAddress(address _alkemiEarnVerified)\n        external\n        onlyOwner\n    {\n        require(\n            address(alkemiEarnVerified) != _alkemiEarnVerified,\n            Error.SAME_ADDRESS\n        );\n        require(\n            _alkemiEarnVerified != address(0),\n            Error.ADDRESS_CANNOT_BE_0X00\n        );\n        alkemiEarnVerified = AlkemiVerifiedInterface(_alkemiEarnVerified);\n    }\n\n    /**\n     * @notice Set AlkemiEarnPublic contract address\n     * @param _alkemiEarnPublic The AlkemiEarnVerified contract address\n     */\n    function setAlkemiEarnPublicAddress(address _alkemiEarnPublic)\n        external\n        onlyOwner\n    {\n        require(\n            address(alkemiEarnPublic) != _alkemiEarnPublic,\n            Error.SAME_ADDRESS\n        );\n        require(\n            _alkemiEarnPublic != address(0),\n            Error.ADDRESS_CANNOT_BE_0X00\n        );\n        alkemiEarnPublic = AlkemiPublicInterface(_alkemiEarnPublic);\n    }\n\n    /**\n     * @notice Set ALK rate\n     * @param _alkRate The ALK rate\n     */\n    function setAlkRate(uint256 _alkRate) external onlyOwner {\n        alkRate = _alkRate;\n    }\n\n    /**\n     * @notice Get latest ALK rewards\n     * @param user the supplier/borrower\n     */\n    function getAlkRewards(address user) external view returns (uint256) {\n        // Refresh ALK speeds\n        uint256 alkRewards = alkAccrued[user];\n        (\n            Exp[] memory marketTotalLiquidity,\n            Exp memory totalLiquidity\n        ) = refreshMarketLiquidity();\n        uint256 verifiedMarketsLength = allMarkets[true].length;\n        for (uint256 i = 0; i < allMarkets[true].length; i++) {\n            alkRewards = add_(\n                alkRewards,\n                add_(\n                    getSupplyAlkRewards(\n                        totalLiquidity,\n                        marketTotalLiquidity,\n                        user,\n                        i,\n                        i,\n                        true\n                    ),\n                    getBorrowAlkRewards(\n                        totalLiquidity,\n                        marketTotalLiquidity,\n                        user,\n                        i,\n                        i,\n                        true\n                    )\n                )\n            );\n        }\n        for (uint256 j = 0; j < allMarkets[false].length; j++) {\n            uint256 index = verifiedMarketsLength + j;\n            alkRewards = add_(\n                alkRewards,\n                add_(\n                    getSupplyAlkRewards(\n                        totalLiquidity,\n                        marketTotalLiquidity,\n                        user,\n                        index,\n                        j,\n                        false\n                    ),\n                    getBorrowAlkRewards(\n                        totalLiquidity,\n                        marketTotalLiquidity,\n                        user,\n                        index,\n                        j,\n                        false\n                    )\n                )\n            );\n        }\n        return alkRewards;\n    }\n\n    /**\n     * @notice Get latest Supply ALK rewards\n     * @param totalLiquidity Total Liquidity of all markets\n     * @param marketTotalLiquidity Array of individual market liquidity\n     * @param user the supplier\n     * @param i index of the market in marketTotalLiquidity array\n     * @param j index of the market in the verified/public allMarkets array\n     * @param isVerified Verified / Public protocol\n     */\n    function getSupplyAlkRewards(\n        Exp memory totalLiquidity,\n        Exp[] memory marketTotalLiquidity,\n        address user,\n        uint256 i,\n        uint256 j,\n        bool isVerified\n    ) internal view returns (uint256) {\n        uint256 newSpeed = totalLiquidity.mantissa > 0\n            ? mul_(alkRate, div_(marketTotalLiquidity[i], totalLiquidity))\n            : 0;\n        MarketState memory supplyState = alkSupplyState[isVerified][\n            allMarkets[isVerified][j]\n        ];\n        if (\n            sub_(getBlockNumber(), uint256(supplyState.block)) > 0 &&\n            newSpeed > 0\n        ) {\n            Double memory index = add_(\n                Double({mantissa: supplyState.index}),\n                (\n                    getMarketTotalSupply(\n                        allMarkets[isVerified][j],\n                        isVerified\n                    ) > 0\n                        ? fraction(\n                            mul_(\n                                sub_(\n                                    getBlockNumber(),\n                                    uint256(supplyState.block)\n                                ),\n                                newSpeed\n                            ),\n                            getMarketTotalSupply(\n                                allMarkets[isVerified][j],\n                                isVerified\n                            )\n                        )\n                        : Double({mantissa: 0})\n                )\n            );\n            supplyState = MarketState({\n                index: safe224(index.mantissa, Error.NEW_INDEX_EXCEEDS_224_BITS),\n                block: safe32(getBlockNumber(), Error.BLOCK_NUMBER_EXCEEDS_32_BITS)\n            });\n        } else if (sub_(getBlockNumber(), uint256(supplyState.block)) > 0) {\n            supplyState.block = safe32(\n                getBlockNumber(),\n                Error.BLOCK_NUMBER_EXCEEDS_32_BITS\n            );\n        }\n\n        if (\n            isVerified &&\n            Double({\n                mantissa: alkSupplierIndex[isVerified][\n                    allMarkets[isVerified][j]\n                ][user]\n            }).mantissa >\n            0\n        ) {\n            return\n                mul_(\n                    alkemiEarnVerified.getSupplyBalance(\n                        user,\n                        allMarkets[isVerified][j]\n                    ),\n                    sub_(\n                        Double({mantissa: supplyState.index}),\n                        Double({\n                            mantissa: alkSupplierIndex[isVerified][\n                                allMarkets[isVerified][j]\n                            ][user]\n                        })\n                    )\n                );\n        }\n        if (\n            !isVerified &&\n            Double({\n                mantissa: alkSupplierIndex[isVerified][\n                    allMarkets[isVerified][j]\n                ][user]\n            }).mantissa >\n            0\n        ) {\n            return\n                mul_(\n                    alkemiEarnPublic.getSupplyBalance(\n                        user,\n                        allMarkets[isVerified][j]\n                    ),\n                    sub_(\n                        Double({mantissa: supplyState.index}),\n                        Double({\n                            mantissa: alkSupplierIndex[isVerified][\n                                allMarkets[isVerified][j]\n                            ][user]\n                        })\n                    )\n                );\n        } else {\n            return 0;\n        }\n    }\n\n    /**\n     * @notice Get latest Borrow ALK rewards\n     * @param totalLiquidity Total Liquidity of all markets\n     * @param marketTotalLiquidity Array of individual market liquidity\n     * @param user the borrower\n     * @param i index of the market in marketTotalLiquidity array\n     * @param j index of the market in the verified/public allMarkets array\n     * @param isVerified Verified / Public protocol\n     */\n    function getBorrowAlkRewards(\n        Exp memory totalLiquidity,\n        Exp[] memory marketTotalLiquidity,\n        address user,\n        uint256 i,\n        uint256 j,\n        bool isVerified\n    ) internal view returns (uint256) {\n        uint256 newSpeed = totalLiquidity.mantissa > 0\n            ? mul_(alkRate, div_(marketTotalLiquidity[i], totalLiquidity))\n            : 0;\n        MarketState memory borrowState = alkBorrowState[isVerified][\n            allMarkets[isVerified][j]\n        ];\n        if (\n            sub_(getBlockNumber(), uint256(borrowState.block)) > 0 &&\n            newSpeed > 0\n        ) {\n            Double memory index = add_(\n                Double({mantissa: borrowState.index}),\n                (\n                    getMarketTotalBorrows(\n                        allMarkets[isVerified][j],\n                        isVerified\n                    ) > 0\n                        ? fraction(\n                            mul_(\n                                sub_(\n                                    getBlockNumber(),\n                                    uint256(borrowState.block)\n                                ),\n                                newSpeed\n                            ),\n                            getMarketTotalBorrows(\n                                allMarkets[isVerified][j],\n                                isVerified\n                            )\n                        )\n                        : Double({mantissa: 0})\n                )\n            );\n            borrowState = MarketState({\n                index: safe224(index.mantissa, Error.NEW_INDEX_EXCEEDS_224_BITS),\n                block: safe32(getBlockNumber(), Error.BLOCK_NUMBER_EXCEEDS_32_BITS)\n            });\n        } else if (sub_(getBlockNumber(), uint256(borrowState.block)) > 0) {\n            borrowState.block = safe32(\n                getBlockNumber(),\n                Error.BLOCK_NUMBER_EXCEEDS_32_BITS\n            );\n        }\n\n        if (\n            Double({\n                mantissa: alkBorrowerIndex[isVerified][\n                    allMarkets[isVerified][j]\n                ][user]\n            }).mantissa >\n            0 &&\n            isVerified\n        ) {\n            return\n                mul_(\n                    alkemiEarnVerified.getBorrowBalance(\n                        user,\n                        allMarkets[isVerified][j]\n                    ),\n                    sub_(\n                        Double({mantissa: borrowState.index}),\n                        Double({\n                            mantissa: alkBorrowerIndex[isVerified][\n                                allMarkets[isVerified][j]\n                            ][user]\n                        })\n                    )\n                );\n        }\n        if (\n            Double({\n                mantissa: alkBorrowerIndex[isVerified][\n                    allMarkets[isVerified][j]\n                ][user]\n            }).mantissa >\n            0 &&\n            !isVerified\n        ) {\n            return\n                mul_(\n                    alkemiEarnPublic.getBorrowBalance(\n                        user,\n                        allMarkets[isVerified][j]\n                    ),\n                    sub_(\n                        Double({mantissa: borrowState.index}),\n                        Double({\n                            mantissa: alkBorrowerIndex[isVerified][\n                                allMarkets[isVerified][j]\n                            ][user]\n                        })\n                    )\n                );\n        } else {\n            return 0;\n        }\n    }\n}",
  "sourcePath": "/Users/preethisjv/Documents/Alkemi/githubUpload/project-alkemi-alkemi-earn-protocol-v2-d96569adc8c7 2/contracts/RewardControl.sol",
  "compiler": {
    "name": "solc",
    "version": "0.8.11+commit.d7f03943.Emscripten.clang"
  },
  "schemaVersion": "3.4.5",
  "updatedAt": "2022-06-07T16:43:47.002Z",
  "devdoc": {
    "kind": "dev",
    "methods": {
      "addMarket(address,bool)": {
        "params": {
          "isVerified": "Verified / Public protocol",
          "market": "The address of the new market to be added to the reward program"
        }
      },
      "claimAlk(address)": {
        "params": {
          "holder": "The address to claim ALK for"
        }
      },
      "claimAlk(address,address,bool)": {
        "params": {
          "holder": "The address to claim ALK for",
          "isVerified": "Specifies if the market is from verified or public protocol",
          "market": "The address of the market to refresh the indexes for"
        }
      },
      "distributeBorrowerAlk(address,address,bool)": {
        "params": {
          "borrower": "The address of the borrower to distribute ALK to",
          "isVerified": "Verified / Public protocol",
          "market": "The market in which the borrower is interacting"
        }
      },
      "distributeSupplierAlk(address,address,bool)": {
        "params": {
          "isVerified": "Verified / Public protocol",
          "market": "The market in which the supplier is interacting",
          "supplier": "The address of the supplier to distribute ALK to"
        }
      },
      "getAlkAccrued(address)": {
        "params": {
          "participant": "The address of the participant"
        },
        "returns": {
          "_0": "The amount of accrued ALK for the participant"
        }
      },
      "getAlkAddress()": {
        "returns": {
          "_0": "The address of ALK token"
        }
      },
      "getAlkRewards(address)": {
        "params": {
          "user": "the supplier/borrower"
        }
      },
      "getAlkemiEarnAddress()": {
        "returns": {
          "_0": "The address of the underlying AlkemiEarnVerified and AlkemiEarnPublic contract"
        }
      },
      "getBlockNumber()": {
        "returns": {
          "_0": "The current block number"
        }
      },
      "getBorrowBalance(address,address,bool)": {
        "params": {
          "borrower": "The address of the borrower",
          "isVerified": "Verified / Public protocol",
          "market": "The address of the market"
        },
        "returns": {
          "_0": "Borrow balance of the specified market and borrower"
        }
      },
      "getMarketTotalBorrows(address,bool)": {
        "params": {
          "isVerified": "Verified / Public protocol",
          "market": "The address of the market"
        },
        "returns": {
          "_0": "Market total borrows for the given market"
        }
      },
      "getMarketTotalSupply(address,bool)": {
        "params": {
          "isVerified": "Verified / Public protocol",
          "market": "The address of the market"
        },
        "returns": {
          "_0": "Market total supply for the given market"
        }
      },
      "getSupplyBalance(address,address,bool)": {
        "params": {
          "isVerified": "Verified / Public protocol",
          "market": "The address of the market",
          "supplier": "The address of the supplier"
        },
        "returns": {
          "_0": "Supply balance of the specified market and supplier"
        }
      },
      "refreshAlkBorrowIndex(address,address,bool)": {
        "params": {
          "borrower": "The address of the borrower to distribute ALK to",
          "isVerified": "Specifies if the market is from verified or public protocol",
          "market": "The market whose borrow index to update"
        }
      },
      "refreshAlkSupplyIndex(address,address,bool)": {
        "params": {
          "isVerified": "Specifies if the market is from verified or public protocol",
          "market": "The market whose supply index to update",
          "supplier": "The address of the supplier to distribute ALK to"
        }
      },
      "removeMarket(uint256,bool)": {
        "params": {
          "id": "The index of the `allMarkets` array to be removed",
          "isVerified": "Verified / Public protocol"
        }
      },
      "setAlkAddress(address)": {
        "params": {
          "_alkAddress": "The ALK token address"
        }
      },
      "setAlkRate(uint256)": {
        "params": {
          "_alkRate": "The ALK rate"
        }
      },
      "setAlkemiEarnPublicAddress(address)": {
        "params": {
          "_alkemiEarnPublic": "The AlkemiEarnVerified contract address"
        }
      },
      "setAlkemiEarnVerifiedAddress(address)": {
        "params": {
          "_alkemiEarnVerified": "The AlkemiEarnVerified contract address"
        }
      },
      "transferOwnership(address)": {
        "params": {
          "_newOwner": "The address of the new owner"
        }
      },
      "updateAlkBorrowIndex(address,bool)": {
        "params": {
          "isVerified": "Verified / Public protocol",
          "market": "The market whose borrow index to update"
        }
      },
      "updateAlkSupplyIndex(address,bool)": {
        "params": {
          "isVerified": "Verified / Public protocol",
          "market": "The market whose supply index to update"
        }
      }
    },
    "version": 1
  },
  "userdoc": {
    "events": {
      "AlkSpeedUpdated(address,uint256,bool)": {
        "notice": "Emitted when a new ALK speed is calculated for a market"
      },
      "DistributedBorrowerAlk(address,address,uint256,uint256,uint256,bool)": {
        "notice": "Emitted when ALK is distributed to a borrower"
      },
      "DistributedSupplierAlk(address,address,uint256,uint256,uint256,bool)": {
        "notice": "Emitted when ALK is distributed to a supplier"
      },
      "MarketAdded(address,uint256,bool)": {
        "notice": "Emitted when a market is added"
      },
      "MarketRemoved(address,uint256,bool)": {
        "notice": "Emitted when a market is removed"
      },
      "OwnerUpdate(address,address)": {
        "notice": "Emitted when the owner of the contract is updated"
      },
      "TransferredAlk(address,uint256,address,bool)": {
        "notice": "Emitted when ALK is transferred to a participant"
      }
    },
    "kind": "user",
    "methods": {
      "acceptOwnership()": {
        "notice": "Accept the ownership of this contract by the new owner"
      },
      "addMarket(address,bool)": {
        "notice": "Add new market to the reward program"
      },
      "claimAlk(address)": {
        "notice": "Claim all the ALK accrued by holder in all markets"
      },
      "claimAlk(address,address,bool)": {
        "notice": "Claim all the ALK accrued by holder by refreshing the indexes on the specified market only"
      },
      "distributeBorrowerAlk(address,address,bool)": {
        "notice": "Calculate ALK accrued by a borrower and add it on top of alkAccrued[borrower]"
      },
      "distributeSupplierAlk(address,address,bool)": {
        "notice": "Calculate ALK accrued by a supplier and add it on top of alkAccrued[supplier]"
      },
      "getAlkAccrued(address)": {
        "notice": "Get the current accrued ALK for a participant"
      },
      "getAlkAddress()": {
        "notice": "Get the address of the ALK token"
      },
      "getAlkRewards(address)": {
        "notice": "Get latest ALK rewards"
      },
      "getAlkemiEarnAddress()": {
        "notice": "Get the address of the underlying AlkemiEarnVerified and AlkemiEarnPublic contract"
      },
      "getBlockNumber()": {
        "notice": "Get the current block number"
      },
      "getBorrowBalance(address,address,bool)": {
        "notice": "Get borrow balance of the specified market and borrower"
      },
      "getMarketTotalBorrows(address,bool)": {
        "notice": "Get market total borrows from the AlkemiEarnVerified contract"
      },
      "getMarketTotalSupply(address,bool)": {
        "notice": "Get market total supply from the AlkemiEarnVerified / AlkemiEarnPublic contract"
      },
      "getSupplyBalance(address,address,bool)": {
        "notice": "Get supply balance of the specified market and supplier"
      },
      "initializer(address,address,address,address)": {
        "notice": "`RewardControl` is the contract to calculate and distribute reward tokensThis contract uses Openzeppelin Upgrades plugin to make use of the upgradeability functionality using proxiesHence this contract has an 'initializer' in place of a 'constructor'Make sure to add new global variables only in a derived contract of RewardControlStorage, inherited by this contractAlso make sure to do extensive testing while modifying any structs and enums during an upgrade"
      },
      "refreshAlkBorrowIndex(address,address,bool)": {
        "notice": "Refresh ALK borrow index for the specified market and borrower"
      },
      "refreshAlkSpeeds()": {
        "notice": "Recalculate and update ALK speeds for all markets"
      },
      "refreshAlkSupplyIndex(address,address,bool)": {
        "notice": "Refresh ALK supply index for the specified market and supplier"
      },
      "removeMarket(uint256,bool)": {
        "notice": "Remove a market from the reward program based on array index"
      },
      "setAlkAddress(address)": {
        "notice": "Set ALK token address"
      },
      "setAlkRate(uint256)": {
        "notice": "Set ALK rate"
      },
      "setAlkemiEarnPublicAddress(address)": {
        "notice": "Set AlkemiEarnPublic contract address"
      },
      "setAlkemiEarnVerifiedAddress(address)": {
        "notice": "Set AlkemiEarnVerified contract address"
      },
      "transferOwnership(address)": {
        "notice": "Transfer the ownership of this contract to the new owner. The ownership will not be transferred until the new owner accept it."
      },
      "updateAlkBorrowIndex(address,bool)": {
        "notice": "Accrue ALK to the market by updating the borrow index"
      },
      "updateAlkSupplyIndex(address,bool)": {
        "notice": "Accrue ALK to the market by updating the supply index"
      }
    },
    "version": 1
  }
}