{
  "contractName": "RewardControlStorage",
  "abi": [
    {
      "inputs": [],
      "name": "MAXIMUM_NUMBER_OF_MARKETS",
      "outputs": [
        {
          "internalType": "uint8",
          "name": "",
          "type": "uint8"
        }
      ],
      "stateMutability": "view",
      "type": "function"
    },
    {
      "inputs": [
        {
          "internalType": "address",
          "name": "",
          "type": "address"
        }
      ],
      "name": "alkAccrued",
      "outputs": [
        {
          "internalType": "uint256",
          "name": "",
          "type": "uint256"
        }
      ],
      "stateMutability": "view",
      "type": "function"
    },
    {
      "inputs": [],
      "name": "alkAddress",
      "outputs": [
        {
          "internalType": "address",
          "name": "",
          "type": "address"
        }
      ],
      "stateMutability": "view",
      "type": "function"
    },
    {
      "inputs": [
        {
          "internalType": "bool",
          "name": "",
          "type": "bool"
        },
        {
          "internalType": "address",
          "name": "",
          "type": "address"
        }
      ],
      "name": "alkBorrowState",
      "outputs": [
        {
          "internalType": "uint224",
          "name": "index",
          "type": "uint224"
        },
        {
          "internalType": "uint32",
          "name": "block",
          "type": "uint32"
        }
      ],
      "stateMutability": "view",
      "type": "function"
    },
    {
      "inputs": [
        {
          "internalType": "bool",
          "name": "",
          "type": "bool"
        },
        {
          "internalType": "address",
          "name": "",
          "type": "address"
        },
        {
          "internalType": "address",
          "name": "",
          "type": "address"
        }
      ],
      "name": "alkBorrowerIndex",
      "outputs": [
        {
          "internalType": "uint256",
          "name": "",
          "type": "uint256"
        }
      ],
      "stateMutability": "view",
      "type": "function"
    },
    {
      "inputs": [],
      "name": "alkRate",
      "outputs": [
        {
          "internalType": "uint256",
          "name": "",
          "type": "uint256"
        }
      ],
      "stateMutability": "view",
      "type": "function"
    },
    {
      "inputs": [
        {
          "internalType": "bool",
          "name": "",
          "type": "bool"
        },
        {
          "internalType": "address",
          "name": "",
          "type": "address"
        }
      ],
      "name": "alkSpeeds",
      "outputs": [
        {
          "internalType": "uint256",
          "name": "",
          "type": "uint256"
        }
      ],
      "stateMutability": "view",
      "type": "function"
    },
    {
      "inputs": [
        {
          "internalType": "bool",
          "name": "",
          "type": "bool"
        },
        {
          "internalType": "address",
          "name": "",
          "type": "address"
        },
        {
          "internalType": "address",
          "name": "",
          "type": "address"
        }
      ],
      "name": "alkSupplierIndex",
      "outputs": [
        {
          "internalType": "uint256",
          "name": "",
          "type": "uint256"
        }
      ],
      "stateMutability": "view",
      "type": "function"
    },
    {
      "inputs": [
        {
          "internalType": "bool",
          "name": "",
          "type": "bool"
        },
        {
          "internalType": "address",
          "name": "",
          "type": "address"
        }
      ],
      "name": "alkSupplyState",
      "outputs": [
        {
          "internalType": "uint224",
          "name": "index",
          "type": "uint224"
        },
        {
          "internalType": "uint32",
          "name": "block",
          "type": "uint32"
        }
      ],
      "stateMutability": "view",
      "type": "function"
    },
    {
      "inputs": [],
      "name": "alkemiEarnPublic",
      "outputs": [
        {
          "internalType": "contract AlkemiPublicInterface",
          "name": "",
          "type": "address"
        }
      ],
      "stateMutability": "view",
      "type": "function"
    },
    {
      "inputs": [],
      "name": "alkemiEarnVerified",
      "outputs": [
        {
          "internalType": "contract AlkemiVerifiedInterface",
          "name": "",
          "type": "address"
        }
      ],
      "stateMutability": "view",
      "type": "function"
    },
    {
      "inputs": [
        {
          "internalType": "bool",
          "name": "",
          "type": "bool"
        },
        {
          "internalType": "uint256",
          "name": "",
          "type": "uint256"
        }
      ],
      "name": "allMarkets",
      "outputs": [
        {
          "internalType": "address",
          "name": "",
          "type": "address"
        }
      ],
      "stateMutability": "view",
      "type": "function"
    },
    {
      "inputs": [
        {
          "internalType": "bool",
          "name": "",
          "type": "bool"
        },
        {
          "internalType": "address",
          "name": "",
          "type": "address"
        }
      ],
      "name": "allMarketsIndex",
      "outputs": [
        {
          "internalType": "bool",
          "name": "",
          "type": "bool"
        }
      ],
      "stateMutability": "view",
      "type": "function"
    },
    {
      "inputs": [],
      "name": "initializationDone",
      "outputs": [
        {
          "internalType": "bool",
          "name": "",
          "type": "bool"
        }
      ],
      "stateMutability": "view",
      "type": "function"
    },
    {
      "inputs": [],
      "name": "newOwner",
      "outputs": [
        {
          "internalType": "address",
          "name": "",
          "type": "address"
        }
      ],
      "stateMutability": "view",
      "type": "function"
    },
    {
      "inputs": [],
      "name": "owner",
      "outputs": [
        {
          "internalType": "address",
          "name": "",
          "type": "address"
        }
      ],
      "stateMutability": "view",
      "type": "function"
    }
  ],
  "bytecode": "0x608060405234801561001057600080fd5b506104e5806100206000396000f3fe608060405234801561001057600080fd5b50600436106101005760003560e01c8063cbb40ff711610097578063e6598b8e11610066578063e6598b8e146102fb578063f41269eb1461033e578063f901d24b14610351578063fe6553821461037c57600080fd5b8063cbb40ff714610241578063d341df5e14610278578063d4ee1d90146102df578063da7cdc1b146102f257600080fd5b8063836c41b8116100d3578063836c41b8146101a75780638da5cb5b146101e5578063a740e940146101fd578063bfa4cc151461022e57600080fd5b80632aecc9aa14610105578063681aa760146101355780636840f634146101635780637588f30e14610194575b600080fd5b600b54610118906001600160a01b031681565b6040516001600160a01b0390911681526020015b60405180910390f35b6101556101433660046103dd565b60086020526000908152604090205481565b60405190815260200161012c565b61015561017136600461040f565b600760209081526000938452604080852082529284528284209052825290205481565b600c54610118906001600160a01b031681565b6101d56101b5366004610452565b600160209081526000928352604080842090915290825290205460ff1681565b604051901515815260200161012c565b6009546101189061010090046001600160a01b031681565b61015561020b36600461040f565b600660209081526000938452604080852082529284528284209052825290205481565b61011861023c366004610485565b610389565b600d546102669074010000000000000000000000000000000000000000900460ff1681565b60405160ff909116815260200161012c565b6102bb610286366004610452565b60056020908152600092835260408084209091529082529020546001600160e01b03811690600160e01b900463ffffffff1682565b604080516001600160e01b03909316835263ffffffff90911660208301520161012c565b600a54610118906001600160a01b031681565b61015560025481565b6102bb610309366004610452565b60046020908152600092835260408084209091529082529020546001600160e01b03811690600160e01b900463ffffffff1682565b600d54610118906001600160a01b031681565b61015561035f366004610452565b600360209081526000928352604080842090915290825290205481565b6009546101d59060ff1681565b600060205281600052604060002081815481106103a557600080fd5b6000918252602090912001546001600160a01b03169150829050565b80356001600160a01b03811681146103d857600080fd5b919050565b6000602082840312156103ef57600080fd5b6103f8826103c1565b9392505050565b803580151581146103d857600080fd5b60008060006060848603121561042457600080fd5b61042d846103ff565b925061043b602085016103c1565b9150610449604085016103c1565b90509250925092565b6000806040838503121561046557600080fd5b61046e836103ff565b915061047c602084016103c1565b90509250929050565b6000806040838503121561049857600080fd5b6104a1836103ff565b94602093909301359350505056fea2646970667358221220316f5acb755f9613e69b3143cbd8d00467095b81507733fbe4ba161da97994c464736f6c634300080b0033",
  "immutableReferences": {},
  "source": "// SPDX-License-Identifier: MIT\npragma solidity 0.8.11;\n\nimport \"./AlkemiVerifiedInterface.sol\";\nimport \"./AlkemiPublicInterface.sol\";\n\ncontract RewardControlStorage {\n    struct MarketState {\n        // @notice The market's last updated alkSupplyIndex or alkBorrowIndex\n        uint224 index;\n        // @notice The block number the index was last updated at\n        uint32 block;\n    }\n\n    // @notice A list of all markets in the reward program mapped to respective verified/public protocols\n    // @notice true => address[] represents Verified Protocol markets\n    // @notice false => address[] represents Public Protocol markets\n    mapping(bool => address[]) public allMarkets;\n\n    // @notice The index for checking whether a market is already in the reward program\n    // @notice The first mapping represents verified / public market and the second gives the existence of the market\n    mapping(bool => mapping(address => bool)) public allMarketsIndex;\n\n    // @notice The rate at which the Reward Control distributes ALK per block\n    uint256 public alkRate;\n\n    // @notice The portion of alkRate that each market currently receives\n    // @notice The first mapping represents verified / public market and the second gives the alkSpeeds\n    mapping(bool => mapping(address => uint256)) public alkSpeeds;\n\n    // @notice The ALK market supply state for each market\n    // @notice The first mapping represents verified / public market and the second gives the supplyState\n    mapping(bool => mapping(address => MarketState)) public alkSupplyState;\n\n    // @notice The ALK market borrow state for each market\n    // @notice The first mapping represents verified / public market and the second gives the borrowState\n    mapping(bool => mapping(address => MarketState)) public alkBorrowState;\n\n    // @notice The snapshot of ALK index for each market for each supplier as of the last time they accrued ALK\n    // @notice verified/public => market => supplier => supplierIndex\n    mapping(bool => mapping(address => mapping(address => uint256)))\n        public alkSupplierIndex;\n\n    // @notice The snapshot of ALK index for each market for each borrower as of the last time they accrued ALK\n    // @notice verified/public => market => borrower => borrowerIndex\n    mapping(bool => mapping(address => mapping(address => uint256)))\n        public alkBorrowerIndex;\n\n    // @notice The ALK accrued but not yet transferred to each participant\n    mapping(address => uint256) public alkAccrued;\n\n    // @notice To make sure initializer is called only once\n    bool public initializationDone;\n\n    // @notice The address of the current owner of this contract\n    address public owner;\n\n    // @notice The proposed address of the new owner of this contract\n    address public newOwner;\n\n    // @notice The underlying AlkemiEarnVerified contract\n    AlkemiVerifiedInterface public alkemiEarnVerified;\n\n    // @notice The underlying AlkemiEarnPublic contract\n    AlkemiPublicInterface public alkemiEarnPublic;\n\n    // @notice The ALK token address\n    address public alkAddress;\n\n    // Hard cap on the maximum number of markets\n    uint8 public MAXIMUM_NUMBER_OF_MARKETS;\n}",
  "sourcePath": "/Users/preethisjv/Documents/Alkemi/githubUpload/project-alkemi-alkemi-earn-protocol-v2-d96569adc8c7 2/contracts/RewardControlStorage.sol",
  "compiler": {
    "name": "solc",
    "version": "0.8.11+commit.d7f03943.Emscripten.clang"
  },
  "schemaVersion": "3.4.5",
  "updatedAt": "2022-06-07T16:43:47.037Z",
  "devdoc": {
    "kind": "dev",
    "methods": {},
    "version": 1
  },
  "userdoc": {
    "kind": "user",
    "methods": {},
    "version": 1
  }
}