{
  "contractName": "TestToken",
  "abi": [
    {
      "anonymous": false,
      "inputs": [
        {
          "indexed": true,
          "internalType": "address",
          "name": "src",
          "type": "address"
        },
        {
          "indexed": true,
          "internalType": "address",
          "name": "guy",
          "type": "address"
        },
        {
          "indexed": false,
          "internalType": "uint256",
          "name": "wad",
          "type": "uint256"
        }
      ],
      "name": "Approval",
      "type": "event"
    },
    {
      "anonymous": false,
      "inputs": [
        {
          "indexed": true,
          "internalType": "address",
          "name": "dst",
          "type": "address"
        },
        {
          "indexed": false,
          "internalType": "uint256",
          "name": "wad",
          "type": "uint256"
        }
      ],
      "name": "Deposit",
      "type": "event"
    },
    {
      "anonymous": false,
      "inputs": [
        {
          "indexed": true,
          "internalType": "address",
          "name": "src",
          "type": "address"
        },
        {
          "indexed": true,
          "internalType": "address",
          "name": "dst",
          "type": "address"
        },
        {
          "indexed": false,
          "internalType": "uint256",
          "name": "wad",
          "type": "uint256"
        }
      ],
      "name": "Transfer",
      "type": "event"
    },
    {
      "anonymous": false,
      "inputs": [
        {
          "indexed": true,
          "internalType": "address",
          "name": "src",
          "type": "address"
        },
        {
          "indexed": false,
          "internalType": "uint256",
          "name": "wad",
          "type": "uint256"
        }
      ],
      "name": "Withdrawal",
      "type": "event"
    },
    {
      "stateMutability": "nonpayable",
      "type": "fallback"
    },
    {
      "inputs": [],
      "name": "TotalSupply",
      "outputs": [
        {
          "internalType": "uint256",
          "name": "",
          "type": "uint256"
        }
      ],
      "stateMutability": "view",
      "type": "function"
    },
    {
      "inputs": [
        {
          "internalType": "address",
          "name": "",
          "type": "address"
        },
        {
          "internalType": "address",
          "name": "",
          "type": "address"
        }
      ],
      "name": "allowance",
      "outputs": [
        {
          "internalType": "uint256",
          "name": "",
          "type": "uint256"
        }
      ],
      "stateMutability": "view",
      "type": "function"
    },
    {
      "inputs": [
        {
          "internalType": "address",
          "name": "",
          "type": "address"
        }
      ],
      "name": "balanceOf",
      "outputs": [
        {
          "internalType": "uint256",
          "name": "",
          "type": "uint256"
        }
      ],
      "stateMutability": "view",
      "type": "function"
    },
    {
      "inputs": [],
      "name": "decimals",
      "outputs": [
        {
          "internalType": "uint8",
          "name": "",
          "type": "uint8"
        }
      ],
      "stateMutability": "view",
      "type": "function"
    },
    {
      "inputs": [],
      "name": "name",
      "outputs": [
        {
          "internalType": "string",
          "name": "",
          "type": "string"
        }
      ],
      "stateMutability": "view",
      "type": "function"
    },
    {
      "inputs": [],
      "name": "symbol",
      "outputs": [
        {
          "internalType": "string",
          "name": "",
          "type": "string"
        }
      ],
      "stateMutability": "view",
      "type": "function"
    },
    {
      "inputs": [],
      "name": "deposit",
      "outputs": [],
      "stateMutability": "payable",
      "type": "function"
    },
    {
      "inputs": [
        {
          "internalType": "address",
          "name": "user",
          "type": "address"
        },
        {
          "internalType": "uint256",
          "name": "wad",
          "type": "uint256"
        }
      ],
      "name": "withdraw",
      "outputs": [],
      "stateMutability": "nonpayable",
      "type": "function"
    },
    {
      "inputs": [],
      "name": "totalSupply",
      "outputs": [
        {
          "internalType": "uint256",
          "name": "",
          "type": "uint256"
        }
      ],
      "stateMutability": "view",
      "type": "function"
    },
    {
      "inputs": [
        {
          "internalType": "address",
          "name": "guy",
          "type": "address"
        },
        {
          "internalType": "uint256",
          "name": "wad",
          "type": "uint256"
        }
      ],
      "name": "approve",
      "outputs": [
        {
          "internalType": "bool",
          "name": "",
          "type": "bool"
        }
      ],
      "stateMutability": "nonpayable",
      "type": "function"
    },
    {
      "inputs": [
        {
          "internalType": "address",
          "name": "dst",
          "type": "address"
        },
        {
          "internalType": "uint256",
          "name": "wad",
          "type": "uint256"
        }
      ],
      "name": "transfer",
      "outputs": [
        {
          "internalType": "bool",
          "name": "",
          "type": "bool"
        }
      ],
      "stateMutability": "nonpayable",
      "type": "function"
    },
    {
      "inputs": [
        {
          "internalType": "address",
          "name": "src",
          "type": "address"
        },
        {
          "internalType": "address",
          "name": "dst",
          "type": "address"
        },
        {
          "internalType": "uint256",
          "name": "wad",
          "type": "uint256"
        }
      ],
      "name": "transferFrom",
      "outputs": [
        {
          "internalType": "bool",
          "name": "",
          "type": "bool"
        }
      ],
      "stateMutability": "nonpayable",
      "type": "function"
    }
  ],
  "bytecode": "0x60c0604052600a6080819052692a32b9ba102a37b5b2b760b11b60a090815261002b9160009190610086565b506040805180820190915260038082526254544b60e81b602090920191825261005691600191610086565b506002805460ff191660121790556b204fce5e3e2502611000000060035534801561008057600080fd5b5061015a565b8280546100929061011f565b90600052602060002090601f0160209004810192826100b457600085556100fa565b82601f106100cd57805160ff19168380011785556100fa565b828001600101855582156100fa579182015b828111156100fa5782518255916020019190600101906100df565b5061010692915061010a565b5090565b5b80821115610106576000815560010161010b565b600181811c9082168061013357607f821691505b6020821081141561015457634e487b7160e01b600052602260045260246000fd5b50919050565b61087f806101696000396000f3fe6080604052600436106100c75760003560e01c806395d89b4111610074578063d0e30db01161004e578063d0e30db01461021c578063dd62ed3e14610224578063f3fef3a31461025c576100c7565b806395d89b41146101d1578063a44b47f7146101e6578063a9059cbb146101fc576100c7565b806323b872dd116100a557806323b872dd14610158578063313ce5671461017857806370a08231146101a4576100c7565b806306fdde03146100de578063095ea7b31461010957806318160ddd14610139575b3480156100d357600080fd5b506100dc61027c565b005b3480156100ea57600080fd5b506100f361030f565b60405161010091906106a4565b60405180910390f35b34801561011557600080fd5b50610129610124366004610715565b61039d565b6040519015158152602001610100565b34801561014557600080fd5b506003545b604051908152602001610100565b34801561016457600080fd5b5061012961017336600461073f565b610409565b34801561018457600080fd5b506002546101929060ff1681565b60405160ff9091168152602001610100565b3480156101b057600080fd5b5061014a6101bf36600461077b565b60046020526000908152604090205481565b3480156101dd57600080fd5b506100f361059b565b3480156101f257600080fd5b5061014a60035481565b34801561020857600080fd5b50610129610217366004610715565b6105a8565b6100dc61027c565b34801561023057600080fd5b5061014a61023f366004610796565b600560209081526000928352604080842090915290825290205481565b34801561026857600080fd5b506100dc610277366004610715565b6105bc565b336000908152600460205260408120805434929061029b9084906107df565b909155505060405134815233907fe1fffcc4923d04b559f4d29a8bfc6cda04eb5b0d3c460751c2402c5c5cc9109c9060200160405180910390a260405134815233906000907fddf252ad1be2c89b69c2b068fc378daa952ba7f163c4a11628f55a4df523b3ef9060200160405180910390a3565b6000805461031c906107f7565b80601f0160208091040260200160405190810160405280929190818152602001828054610348906107f7565b80156103955780601f1061036a57610100808354040283529160200191610395565b820191906000526020600020905b81548152906001019060200180831161037857829003601f168201915b505050505081565b3360008181526005602090815260408083206001600160a01b038716808552925280832085905551919290917f8c5be1e5ebec7d5bd14f71427d1e84f3dd0314c0f7b2291e5b200ac8c7c3b925906103f89086815260200190565b60405180910390a350600192915050565b6001600160a01b03831660009081526004602052604081205482111561042e57600080fd5b6001600160a01b038416331480159061047a57506001600160a01b03841660009081526005602090815260408083203384529091529020546fffffffffffffffffffffffffffffffff14155b156104e8576001600160a01b03841660009081526005602090815260408083203384529091529020548211156104af57600080fd5b6001600160a01b0384166000908152600560209081526040808320338452909152812080548492906104e2908490610832565b90915550505b6001600160a01b03841660009081526004602052604081208054849290610510908490610832565b90915550506001600160a01b0383166000908152600460205260408120805484929061053d9084906107df565b92505081905550826001600160a01b0316846001600160a01b03167fddf252ad1be2c89b69c2b068fc378daa952ba7f163c4a11628f55a4df523b3ef8460405161058991815260200190565b60405180910390a35060019392505050565b6001805461031c906107f7565b60006105b5338484610409565b9392505050565b336000908152600460205260409020548111156105d857600080fd5b33600090815260046020526040812080548392906105f7908490610832565b90915550506040516001600160a01b0383169082156108fc029083906000818181858888f19350505050158015610632573d6000803e3d6000fd5b5060405181815233907f7fcf532c15f0a6db0bd6d0e038bea71d30d808c7d98cb3bf7268a95bf5081b659060200160405180910390a260405181815260009033907fddf252ad1be2c89b69c2b068fc378daa952ba7f163c4a11628f55a4df523b3ef9060200160405180910390a35050565b600060208083528351808285015260005b818110156106d1578581018301518582016040015282016106b5565b818111156106e3576000604083870101525b50601f01601f1916929092016040019392505050565b80356001600160a01b038116811461071057600080fd5b919050565b6000806040838503121561072857600080fd5b610731836106f9565b946020939093013593505050565b60008060006060848603121561075457600080fd5b61075d846106f9565b925061076b602085016106f9565b9150604084013590509250925092565b60006020828403121561078d57600080fd5b6105b5826106f9565b600080604083850312156107a957600080fd5b6107b2836106f9565b91506107c0602084016106f9565b90509250929050565b634e487b7160e01b600052601160045260246000fd5b600082198211156107f2576107f26107c9565b500190565b600181811c9082168061080b57607f821691505b6020821081141561082c57634e487b7160e01b600052602260045260246000fd5b50919050565b600082821015610844576108446107c9565b50039056fea26469706673582212202b87cd2416e8dc8f8d87577ab8df2fe6374233bb4badae888cf203d052dd815464736f6c634300080b0033",
  "immutableReferences": {},
  "source": "// SPDX-License-Identifier: MIT\npragma solidity 0.8.11;\n\ncontract TestToken {\n    string public name = \"Test Token\";\n    string public symbol = \"TTK\";\n    uint8 public decimals = 18;\n    uint256 public TotalSupply = 10000000000000000000000000000;\n\n    event Approval(address indexed src, address indexed guy, uint256 wad);\n    event Transfer(address indexed src, address indexed dst, uint256 wad);\n    event Deposit(address indexed dst, uint256 wad);\n    event Withdrawal(address indexed src, uint256 wad);\n\n    mapping(address => uint256) public balanceOf;\n    mapping(address => mapping(address => uint256)) public allowance;\n\n    fallback() external {\n        deposit();\n    }\n    \n\n    function deposit() public payable {\n        balanceOf[msg.sender] += msg.value;\n        emit Deposit(msg.sender, msg.value);\n        emit Transfer(address(0), msg.sender, msg.value);\n    }\n\n    function withdraw(address user, uint256 wad) public {\n        require(balanceOf[msg.sender] >= wad);\n        balanceOf[msg.sender] -= wad;\n        payable(user).transfer(wad);\n        emit Withdrawal(msg.sender, wad);\n        emit Transfer(msg.sender, address(0), wad);\n    }\n\n    function totalSupply() public view returns (uint256) {\n        return TotalSupply;\n    }\n\n    function approve(address guy, uint256 wad) public returns (bool) {\n        allowance[msg.sender][guy] = wad;\n        emit Approval(msg.sender, guy, wad);\n        return true;\n    }\n\n    function transfer(address dst, uint256 wad) public returns (bool) {\n        return transferFrom(msg.sender, dst, wad);\n    }\n\n    function transferFrom(\n        address src,\n        address dst,\n        uint256 wad\n    ) public returns (bool) {\n        require(balanceOf[src] >= wad);\n\n        if (src != msg.sender && allowance[src][msg.sender] != type(uint128).max) {\n            require(allowance[src][msg.sender] >= wad);\n            allowance[src][msg.sender] -= wad;\n        }\n\n        balanceOf[src] -= wad;\n        balanceOf[dst] += wad;\n\n        emit Transfer(src, dst, wad);\n\n        return true;\n    }\n}",
  "sourcePath": "/Users/preethisjv/Documents/Alkemi/githubUpload/project-alkemi-alkemi-earn-protocol-v2-d96569adc8c7 2/contracts/TestToken.sol",
  "compiler": {
    "name": "solc",
    "version": "0.8.11+commit.d7f03943.Emscripten.clang"
  },
  "schemaVersion": "3.4.5",
  "updatedAt": "2022-06-07T16:43:47.047Z",
  "devdoc": {
    "kind": "dev",
    "methods": {},
    "version": 1
  },
  "userdoc": {
    "kind": "user",
    "methods": {},
    "version": 1
  }
}